:020000040000FA
:060000000201070221EDE0
:03002B0002247735
:030033000224594B
:03003B0002249DFF
:0300430002240D87
:0300530002226323
:03006B0002243339
:10008300022043E5C754F84401F5C7790122000073
:100093000080FB120086B900030200F1E4791A78AC
:1000A30002B800028004F709D8FCE4791C7802B88E
:1000B30000028004F709D8FCE4900281782E791BB2
:1000C3008002F0A3D8FCD9FA7AAE7B1C9001377872
:1000D300DB79018015E493A3AD82AE838A828B839F
:1000E300F0A3AA82AB838D828E83D8E9D9E7758288
:1000F300A67583FF740212011975829175830074CA
:100103000012011975D00075813F751881751902A8
:10011300759F00020096C09FF59FE473D09F22D085
:1001230083D082C09FE493C0E0740193C0E0740263
:1001330093F59F22B503C103F703F103FF0000B456
:10014300000028002800283075A000A000A000A00F
:100153000000080008E001F000100010001000107B
:10016300001000100050005000500010001000D08C
:10017300070000000000000F0001000500307507B4
:10018300001000010081FF00000000FFFFFF0202DA
:1001930002DF83010000D98302E783010000081D09
:1001A30002F383010000B80202E783010000091D86
:1001B30002F583010000CE02FFFF0100FF2002DFF2
:1001C30083010000D68302E783010000371D02E3A9
:1001D30083000000000002ED83030000FA02170011
:1001E300FB0BFB0BFB0BFB0BFB0BFB0BFB0BFB0BDC
:1001F300FB0BFB0BFB0BFB0BFB0BDB0DF90DD50D0E
:1002030001E803057710020AFFFFFF00FEFF12015A
:100213002282CF0312012295CF03120122B6CF030C
:1002230012012221D00312012262D0031201228380
:10023300D003120122A4D003120122E5D00312013C
:10024300227DD103120122C5D10312012216BA0362
:1002530012012229BA031201225ABA03120122946B
:10026300BA03120122EDBA0312012234BB031201B5
:10027300227CBB03120122ABBB03120122DABB03B4
:1002830012012211BC0312012258BC031201227174
:10029300BC03120122C6BC03120122F4BC031201E7
:1002A300222EBD0312012208A8021201220BA90269
:1002B30012012238A90212012289A902120122ACD9
:1002C300A902120122BEA902120122C1A90212012E
:1002D30022FFA90212012273AA02120122DFAA023B
:1002E300120122A7AB02120122CDAB021201220797
:1002F300AC021201229EAC02120122F0AC021201E6
:100303002221AD0212012224AD0212012255AD02B7
:1003130012012262AD021201227AAD02120122E41D
:10032300AD02120122E7AD02120122F4AD02120165
:1003330022F7AD021201224EAE021201225FAE027B
:1003430012012298AE021201229BAE021201229EDA
:10035300AE0212012200AF0212012203AF02120108
:100363002257AF02120122A0AF02120122B0AF0244
:10037300120122E3AF02120122F0AF02120122F3B3
:10038300AF021201225BB0021201225DB10212011F
:100393002201B2021201226AB202120122A8B2029F
:1003A3001201223CDA0212012234DB02120122681A
:1003B300DB02120122FEDB0212012249DC021201DE
:1003C30022ADDC0212012237DD02120122F0DD022E
:1003D30012012212E1021201228FE202120122B261
:1003E300E2021201224CA203120122F1A303120121
:1003F3002211A40312012232A50312012285A503AF
:10040300120122ACAA03120122D4AA03120122016F
:10041300AB0312012239AB0312012297AB03120182
:1004230022E3AB031201224AAC031201228AAC037A
:10043300120122C7AC03120122F5AC031201229F61
:10044300AD03120122A9AD03120122B6AD031201BD
:1004530022E9AD03120122F5AD031201220DAE0311
:1004630012012217AE0312012205E2031201221325
:10047300E2031201222BE20312012243E2031201DF
:10048300225AE2031201222DD801120122D7D801E8
:1004930012012253D90112012271DA01120122AD94
:1004A300DA0112012248DB011201222CDC011201C4
:1004B30022EFDC0112012267DD01120122F5DE01C8
:1004C30012012266DF0112012220E0011201221231
:1004D300E10112012252E10112012206E20112019D
:1004E3002238E2011201222EE40112012270E401FA
:1004F3001201228EE40112012213E501120122D717
:10050300E501120122F6E70112012292B203120160
:1005130022A8B203120122C6B203120122D7B303E7
:10052300120122E1B3031201220CB50312012203CB
:10053300B60312012270B6031201225A8F0312016D
:1005430022FE8F031201223590031201228C9003A5
:10055300120122A19203120122F98301120122AA9C
:100563008401120122BA8401120122508501120171
:10057300228D8501120122978501120122D3850163
:10058300120122DE8501120122B486011201229199
:100593008701120122EE87011201227E88011201D6
:1005A30022358901120122438C01120122328E016C
:1005B300120122E48E01120122AD8F01120122F2F7
:1005C30092011201229C9301120122C5940112018E
:1005D300228196011201222197011201226F9701B4
:1005E300120122AE9701120122819801120122B554
:1005F3009801120122429901120122F8C501120148
:100603002284C601120122E8C701120122F4C701A4
:100613001201222FC8011201229EC801120122A732
:10062300C901120122B0CA0112012277CB011201C2
:1006330022D4CC01120122F2CC011201220FCD01EE
:10064300120122DACD0112012202CE01120122CCC3
:10065300D001120122D1D001120122EAD2011201EA
:100663002238D301120122A8D301120122E6D301B9
:10067300120122C2D40112012282D501120122CE1B
:10068300D501120122D1D50112012215D601120181
:10069300225DD6011201229CD601120122BED6018F
:1006A300120122F2D60112012255D7011201225062
:1006B3008A03120122598A03120122678A03120153
:1006C30022BA8A03120122D98A031201221E8B0342
:1006D300120122628C03120122FD8C0312012241BA
:1006E3008D031201226B8D03120122DA8D03120195
:1006F30022208E03120122978E03120122488F03B8
:10070300120122902500120122A02500120122418C
:1007130026001201229D26001201225A27001201EF
:1007230022762800120122A82800120122D72800CD
:10073300120122842A00120122FB2C001201226BD7
:100743002F001201225D30001201225631001201E6
:10075300225D33001201225136001201228037003C
:10076300120122843900120122943A001201222339
:100773003C00120122143D00120122623D001201CD
:1007830022D13D00120122F53D00120122463E0016
:10079300120122E74200120122E84300120122491A
:1007A30044001201227444001201223A450012014E
:1007B30022A5AE03120122AFAE03120122F4AE034F
:1007C30012012208AF0312012298AF03120122C0C3
:1007D300AF03120122FBAF0312012224B003120163
:1007E3002258B0031201226DB003120122D8B003C4
:1007F300120122F9B0031201220DB10312012222C8
:10080300B1031201225CB103120122C1B10312012F
:100813002204B2031201222EB2031201226AB2038E
:10082300120122F7DE031201226274001201224533
:100833007500120122C07500120122FB750012011E
:10084300224C7700120122D57700120122ED7900A4
:100853001201227F7C00120122317D0012012250FD
:100863007E00120122A97E001201222D85031201AE
:1008730022708503120122F48503120122C7860325
:100883001201229E890312012273CA03120122203C
:10089300CB031201222DCC031201226CCC031201D3
:1008A30022C6CC03120122BFD50312012222D60392
:1008B300120122BFD603120122EDD6031201220E2A
:1008C300D70312012249D70312012269D703120168
:1008D30022509403120122DC94031201229B9503FC
:1008E300120122B39603120122CD9803120122E6CC
:1008F300C6021201220BC702120122DFC702120134
:10090300224CC802120122A2C8021201223EC902CD
:1009130012012272CA021201224DCB02120122AC31
:10092300CB021201227DCC0212012209CD02120157
:10093300220CCD0212012256CD02120122C8CD0291
:1009430012012273CE0212012293CE02120122DB84
:10095300CE02120122F7CE0212012271CF0212013E
:10096300227FCF021201220ED00212012277D0027F
:10097300120122B69D031201223B9E031201227D26
:100983009E03120122619F03120122CE9F031201D3
:100993002212A00312012256A00312012283A003F4
:1009A300120122ABA003120122E3A00312012221B0
:1009B300A10312012248A103120122C2A1031201C1
:1009C300220CA203120122EB5D00120122B85F0088
:1009D300120122A66100120122FA610012012225EE
:1009E3006200120122D3620012012203630012018A
:1009F3002232630012012245630012012286630042
:100A0300120122B263001201220064001201223794
:100A13006400120122836400120122E264001201C5
:100A2300227565001201225F66001201224E6700E3
:100A33001201222E69001201224D6E00120122A61C
:100A43006E001201228F70001201225E72001201E9
:100A530022E072001201222E74001201223F740060
:100A630012012211CD03120122FCCD031201223FF8
:100A7300CE031201228ECE03120122DFCE03120116
:100A83002230CF03120122A645001201222746007D
:100A93001201225446001201229D46001201229E99
:100AA3004700120122ED4700120122694900120199
:100AB30022EB4900120122484A001201229B4A00FC
:100AC3001201228A4B001201221F4D00120122E95A
:100AD3004D00120122F94D00120122234E00120192
:100AE30022264E00120122094F00120122F44F0068
:100AF300120122A15000120122FE500012012257BE
:100B03005100120122BB5100120122635200120153
:100B130022FF52001201228C5300120122015400C1
:100B23001201225D5400120122BC5400120122E37F
:100B33005400120122A15500120122925700120102
:100B430022DB57001201220B58001201227E5800AB
:100B5300120122045A00120122B45A00120122D9AE
:100B63005A00120122185B001201222D5B001201B0
:100B730022705B00120122E05B001201222A5C005A
:100B8300120122345D00120122B55D0012012226FA
:100B9300BD0212012271BD021201227DBD021201AA
:100BA3002251BE0212012268BE02120122A5BE0218
:100BB300120122D6BE021201220EBF0212012264CA
:100BC300BF021201227ABF02120122B6BF02120132
:100BD30022C9BF02120122F0BF0212012224C00265
:100BE3001201224AC10212012294C202120122906E
:100BF300C302120122ADC402120122FD7F001201C1
:100C030022008003120122AE8303120122E2840335
:100C1300120122159C02120122D89E02120122DE29
:100C23009E021201229BA102120122F5A3021201CC
:100C3300220499031201229B9903120122599A0358
:100C4300120122839A03120122B99C031201223852
:100C53009A01120122739A01120122C7A4011201FF
:100C63002233A60112012230A701120122B5AA01E3
:100C73001201229BAB01120122E7AB0112012201F7
:100C8300AC0112012242AC011201224BAC01120150
:100C930022FBAC01120122CBAD0112012212AE01E3
:100CA30012012278AE01120122EAAE011201225A88
:100CB300C70312012237C8031201227BC8031201A2
:100CC30022B5C8031201224DC903120122BCC90374
:100CD300120122C5C903120122D1C903120122EB59
:100CE300C90312012215CA0312012245CA031201C4
:100CF300229EF302120122ABF302120122C5F30278
:100D0300120122F8F30212012236F4021201229B8D
:100D1300F402120122B0F402120122C7F4021201FA
:100D230022D5F402120122E4F402120122F9F402A0
:100D33001201220EF50212012219F50212012225D7
:100D4300F50212012232F50212012241F5021201CB
:100D5300224CF50212012271F50212012215F6024C
:100D63001201222AF6021201223FF602120122592F
:100D7300F60212012276F60212012293F602120102
:100D8300229EF6021201224AF7021201222BF802D6
:100D930012012250F8021201225BF80212012270A2
:100DA300F80212012284F802120122E5F80212016C
:100DB30022EBF802120122F1F802120122F7F802E3
:100DC3001201220FF90212012242F902120122CE6C
:100DD300B202120122F0B202120122B8B3021201CE
:100DE3002272B60212012288B702120122A9B802A6
:100DF30012012283B90212012232BA021201229293
:100E03008E02120122298F02120122C18F021201C6
:100E130022B19002120122E89002120122FB9002F9
:100E23001201226991021201220493021201222B60
:100E33009302120122CD93021201220294021201A3
:100E4300221394021201228C9402120122AD940205
:100E5300120122C594021201221D960212012226BA
:100E63009802120122769A02120122799B02120140
:100E730022C89B02120122008002120122FD80027D
:100E8300120122E88102120122F2810212012214CC
:100E930082021201222082021201227283021201B3
:100EA30022A18302120122D184021201221385029C
:100EB3001201223F860212012215870212012267C4
:100EC3008702120122C68702120122FD8702120144
:100ED30022388802120122D38B02120122EC8B02E8
:100EE3001201226E8C021201227C8C02120122D189
:100EF3008C02120122DF8C021201224C8D0212019C
:100F030022BE8D02120122048E0212012277D70320
:100F13001201229CD7031201220DD803120122A52C
:100F2300F701120122AEF701120122B7F7011201F4
:100F330022E8F80112012207FB011201223DFB0105
:100F430012012277FB01120122ADFB01120122E7FC
:100F5300FB011201221BFC0112012247FC011201B9
:100F63002290FC01120122CAFC0112012212FD018E
:100F730012012268FD011201229DFD01120122F8D6
:100F8300FD0112012232FE0112012283FE01120130
:100F930022B9FE01120122F3FE0112012216FF0102
:100FA300120122527F001201227E7F00120122D9F8
:100FB3007F00120122E37F00120122F37F0012015E
:100FC30022C4F90212012203FA021201228CFA024C
:100FD300120122A1FA02120122ECFA0212012220CA
:100FE300FB0212012266FB0212012275FB021201AF
:100FF300222AFC0212012283FC02120122D2FC02E9
:101003001201222BFD0212012238FE0212012231AB
:10101300FF021201226EFF021201221EE5031201DA
:101023002236B001120122B6B2011201222AB40102
:1010330012012287B40112012230B5011201222DBF
:10104300B601120122B5B60112012241B701120104
:101053002266B701120122B6B70112012257BA0163
:10106300120122C8BA01120122B4BB01120122EEFD
:10107300BB011201222EBC01120122CEBD011201BD
:1010830022FFBD0112012254BE01120122A1BE01A1
:1010930012012212BF0112012235BF011201224F98
:1010A300BF0112012265C00112012275C0011201A4
:1010B3002206C20112012226C2011201225CC201D0
:1010C300120122E0C30112012259C4011201229824
:1010D300C401120122CAC501120122F2D303120173
:1010E3002256D40312012205D50312012224D5036B
:1010F30012012278D503120122EAE203120122FB34
:10110300E203120122DDE5031201221CE6031201B0
:101113002216E7031201229EE303120122AEE30328
:10112300120122C9E30312012231E4031201220B4B
:10113300E0031201228FE003120122F5E003120102
:101143002255DC031201227EDC03120122EBDC03B5
:101153001201223FDD0312012298DD031201222B2B
:10116300C40312012240C40312012264C503120105
:1011730022CEC50312012242C6031201225CC6031A
:1011830012012273C60312012286C6031201229E94
:10119300C603120122B3C603120122D4C6031201ED
:1011A3002225C7031201227AB60312012291B60344
:1011B3001201220AB703120122DFB703120122B17F
:1011C300B903120122F1C00312012283C1031201E8
:1011D3002201C20312012288C2031201221AC3038D
:1011E30012012271C3031201227BC3031201228A5B
:1011F300C303120122A0C303120122B3C3031201CA
:101203002214C40312012228C403120122D3DD03D2
:101213001201223DDE0312012248DE03120122588D
:10122300DE0312012263DE031201227FDE031201B9
:1012330022CBDA03120122F4DA031201221DDB03AB
:10124300120122B6DB03120122CEDB0312012210AC
:10125300DC03120122D5E302120122DFE3021201B1
:10126300221FE40212012268E402120122A2E40214
:10127300120122F8E40212012217E5021201229C54
:10128300E702120122A5E702120122F6E702120188
:10129300221FE80212012234E802120122A4E8020A
:1012A30012012232E90212012276E9021201229E80
:1012B300E9021201221DEA0212012260EA0212016E
:1012C300229DEA02120122AFEA02120122CEEA02B1
:1012D300120122D7EA021201229CEB021201222DF3
:1012E300D9031201227ED90312012207DA03120164
:1012F300226DDA0312012296BD03120122C0BD033F
:10130300120122BABE03120122DFBE0312012280A0
:10131300BF0312012206C0031201220EE1031201D0
:1013230022F0D10312012226D2031201225FD2033B
:10133300120122B8D3031201223BE403120122510A
:10134300E4031201225BE4031201227EE50312018E
:1013530022C8EB0212012285EC02120122C0EC0228
:10136300120122E8EC021201224AED021201229636
:10137300ED0212012201EE021201227DEE021201A0
:101383002279EF0212012200F10212012283F102FB
:10139300120122E7F102120122FEF102120122F4EC
:1013A300F20212012240F30212012292A603120159
:1013B30022A7A6031201225AA7031201229AA70306
:1013C300120122B3A703120122E6A703120122335B
:1013D300A80312012267A803120122A9A80312017C
:1013E300229FAA0312012203E80112012220E9012C
:1013F300120122C1E90112012206EC011201228A23
:10140300EE01120122ADEE0112012293F10112014C
:1014130022E5F10112012276F201120122CFF3013A
:101423001201226AF401120122EBF4011201225F7C
:10143300F5011201229AD002120122D0D002120128
:10144300220CD10212012273D10212012226E603D9
:10145300120122A3E603120122B1E4031201226C5A
:10146300E603120122CFE603120122F8E60312017A
:1014730022A4FF01E066701008A3E066700A08A3C7
:10148300E066700408A3E06622C3E7960809E796BE
:101493000809E7960809E79622C3E09608A3E096B1
:1014A30008A3E09608A3E09622C008C3E096F508D7
:1014B30008A3E096420808A3E096420808A3E09632
:1014C30045087001D3D00822080808EAC0E0EBC041
:1014D300E086F0E7A4FA180986F0E7A42AFA1809C7
:1014E30086F0E7A42AFA180986F0E7A42AFA1986EF
:1014F300F0E7A4FBE5F02AFA190886F0E7A42BFB32
:10150300E5F03AFA190886F0E7A42BFBE5F03AFA7E
:1015130018180986F0E7A4C5F02BFBE43AFA19087A
:10152300E7C5F0C6A426F6E5F03BFBE43AFA1886D5
:10153300F0E7A4F6E5F00826F6E43B08F6E43A08FB
:10154300F6D0E0FBD0E0FA22E4CFC0E0E4CEC0E086
:10155300E4CDC0E0E4CCC0E075F020E626F608E672
:1015630033F608E633F608E633F6181818EC33FCBE
:10157300ED33FDEE33FEEF33FFC3EC9709ED97092F
:10158300EE9709EF97191919400FFFEC97FC09ED36
:1015930097FD09EE97FE191906D5F0BFECF709ED93
:1015A300F709EEF709EFF7191919D0E0FCD0E0FDC0
:1015B300D0E0FED0E0FF22E4C396F608E496F608F6
:1015C300E496F608E496F6226016080808C6C313E4
:1015D300C618C613C618C613C618C613C6D5E0EA7E
:1015E300227009080808226016181818C6C333C6E3
:1015F30008C633C608C633C608C633C6D5E0EA22D2
:10160300E627F60809E637F60809E637F60809E695
:1016130037F622E026F608A3E036F608A3E036F60E
:1016230008A3E036F622E026F008A3E036F008A38C
:10163300E036F008A3E036F022C3E697F60809E6A1
:1016430097F60809E697F60809E697F622C3E096A7
:10165300F008A3E096F008A3E096F008A3E096F064
:1016630022E657F60809E657F60809E657F6080989
:10167300E657F622E056F608A3E056F608A3E0562E
:10168300F608A3E056F622E056F008A3E056F00869
:10169300A3E056F008A3E056F022E066F608A3E0C4
:1016A30066F608A3E066F608A3E066F622E0F6080D
:1016B300A3E0F608A3E0F608A3E0F622E6F008A309
:1016C300E6F008A3E6F008A3E6F022E0FAA3E0FBC5
:1016D300A3E0FCA3E0FD22EAF0A3EBF0A3ECF0A36C
:1016E300EDF022E0F8A3E0F9A3E0FAA3E0FB22E89F
:1016F300F0A3E9F0A3EAF0A3EBF022CAC0E0E6F01E
:10170300A308DAFAD0E0FA22CAC0E0E0A3C582CC8B
:10171300C582C583CDC583F0A3C582CCC582C583ED
:10172300CDC583DAE6D0E0CA22C3E498F8E499F998
:1017330012176D8026C3E49AFAE49BFBE920E7E9DC
:1017430012176DE498F8E499F922C3E498F8E49940
:10175300F912176DE498F8E499F9C3E49AFAE49B53
:10176300FB22EB20E7CFE920E7E0B90010BB00083C
:10177300E88AF084F8AAF022E4FBC8FA22EB70228C
:101783007B10C833C8C933C9335007C39AC3DBF2CC
:1017930080069A50012ADBEAC833F4C8C933F4C976
:1017A300FA2275F008E4C833C8C933C933C99AC9E2
:1017B3009B5004C92AC93BD5F0ECFBC833F4C8E4F9
:1017C300C9FA22600D08C6A2E713C618C613C6D508
:1017D300E0F322600C08C6C313C618C613C6D5E0CF
:1017E300F422700422600D18C6C333C608C633C67C
:1017F300D5E0F41822251810AF08F518400C151978
:101803008008F51840021519D2AF2200C0D0251860
:1018130010AF08F518500C05198008F5185002058B
:1018230019D2AFD0D0222518F58210AF08F5184091
:101833000C15198008F51840021519D2AF851983C4
:10184300222518F582E43519F583222518F8E435A5
:1018530019F9222518FAE43519FB222518FCE43579
:1018630019FD22E4732518C582C0E0E51934FFC5CC
:1018730083C0E0E518C3958224F810AF0885831967
:101883008582188008858319858218D2AFCEF0A38C
:10189300E520F0A37808E608F0A3DEFAEFF0A3E56D
:1018A3008124FAF8E608F0A3E608F0A3E608F0A31B
:1018B3000808E608F0A3E608F0A315811581D0E037
:1018C300FED0E0F8158115811581E8C0E0EEC0E097
:1018D300222518C582C0E0E51934FFC583C0E0E5C1
:1018E30018C3958224F910AF08858319858218805F
:1018F30008858319858218D2AFCEF0A3E520F0A323
:101903007808E608F0A3DEFAEFF0A3E58124FBF8FC
:10191300E608F0A3E608F0A30808E608F0A3E60843
:10192300F0A315811581D0E0FED0E0F81581158173
:10193300E8C0E0EEC0E022851983851882E0A3FEAB
:10194300E0A3F5207808E0A3F608DFFAE0A3FFE0C0
:10195300A3C0E0E0A3C0E0E0A3C0E0E0A3C0E0E0F8
:10196300A3C0E010AF08858218858319800885829B
:1019730018858319D2AFD083D08202011F851983C2
:10198300851882E0A3FEE0A3F5207808E0A3F6081B
:10199300DFFAE0A3FFE0A3C0E0E0A3C0E0E0A3C060
:1019A300E0E0A3C0E010AF088582188583198008A2
:1019B300858218858319D2AFD083D08222C0D025E7
:1019C30018C582C0E0E51934FFC583C0E0E518C33C
:1019D300958224F310AF08858319858218800885C2
:1019E3008319858218D2AFC8F0A3E9F0A3EAF0A364
:1019F300EBF0A37908E709F0A3D8FAECF0A3EDF034
:101A0300A3EEF0A3EFF0A3D0E0F0A3D0E0F0A3D0D7
:101A1300E0F0A3E520F0A3E5F0F0A3228519838588
:101A23001882E0C0E0A3E0F9A3E0FAA3E0FBA37807
:101A330008E0F608A3DFFAE0FCA3E0FDA3E0FEA3C1
:101A4300E0FFA3E0C0E0A3E0C0E0A3E0F5D0A3E0A3
:101A5300F520A3E0A3F5F010AF088583198582185C
:101A63008008858319858218D2AFD082D083D0E0D5
:101A7300F8D0E03274048006740280027401C0E07E
:101A8300F404121829D0E01216FE227404800474A0
:101A9300028000CCC0E0EDC0E0E518C39CCCAD19DA
:101AA30050011D10AF068C188D1980068C188D19E6
:101AB300D2AF12170BD0E0FDD0E0FC22D083D0824E
:101AC300E9C0E0E493A3C386F0C5F095F0F908E418
:101AD30093A386F0C5F095F0700BE493A3C39940EC
:101AE30005E9048002A3E475F002A42582F582E5EA
:101AF300F03583F583D0E0F9E493A3C0E0E493C029
:101B0300E022D083D082ECC0E0EDC0E0E493A3FCFC
:101B1300E493A3FDED4C600D121B51EC24FFFCED8F
:101B230034FFFD80EFE493A3FCE493A3FDED4C604D
:101B33000D121B90EC24FFFCED34FFFD80EFD0E091
:101B4300FDD0E0FCE493A3C0E0E493C0E022C0E056
:101B5300C3E49396087401939618400FE493667058
:101B63000808740193661870007019A3A3C3E49363
:101B730096087401939618A3A3400DD0E0D0E0D04B
:101B8300E0021B41A3A3A3A3A3A3D0E022C0E0C010
:101B9300F088F0E493667008087401936618700087
:101BA300A8F0A3A3700BD0F0D0E0D0E0D0E0021BEC
:081BB30041A3A3D0F0D0E02211
:101BBC0074F61218D4EAFEEBFF8C088D09EE24346F
:101BCC00F8E43FF9E8FCE9FDEE2435121E88FAEE44
:101BDC002437121E88F88508F0A4C885F00A8509F8
:101BEC00F0A4250AF9EA28F8E439F97A257B0012E1
:101BFC00176DEA8C828D83F0FA131313541FF8EED1
:101C0C0028F8E43FF9E8245DF582E439F583E0C077
:101C1C00E074075AF8D0E0B800028004C313D8FC73
:101C2C00A2E0EE50082434F582E43F8018243612EA
:101C3C001E88F5F0EA84A8F0EE28F8E43FF9E824D1
:101C4C0038F582E439F583E0F97F0302198074F7E3
:101C5C001218D4EAFEEBFFEE2434121E88C0E0EE1C
:101C6C002435F582E43FF583D0E0F08E828F83A398
:101C7C00A3A3A3A3A3A3C082C0838E828F83A3A399
:101C8C00A3A3A3E0F8A3E0F9D083D082E0C398F536
:101C9C0008A3E099F509EE247F121E886401703EBA
:101CAC00EE2480F582E43FF583C082C0838E828F60
:101CBC0083A3A3A3A3A3E0240108A3E03400F9D0D9
:101CCC0083D082E0687003A3E06970127CC07D064B
:101CDC00120B2FEE247FF582E43FF583E4F0AC0881
:101CEC00AD09EEFAEFFB121BBCE9F91223FF7F02E0
:101CFC0002198074EF1218D4900369E0640860052F
:101D0C00E06407702A9061C8E06024900397E0F4C7
:101D1C00601DE0F875F00DA4C8AAF02AF974992892
:101D2C00FE740339FF8E828F83A3A3A3E07003029A
:101D3C001E0D906060E0C0E0EE2468F582E43FF593
:101D4C0083D0E0F0750CFC750D0675080075090064
:101D5C00E5D914F50AE5D95403F50E601274036540
:101D6C000E6043E50A600AEE2467121E887002803A
:101D7C00759006F7E06401601F121E8560047A04FA
:101D8C0080027A00E50AC39AFA95E0FB1209D98A17
:101D9C00088B09EA45097005120DB18064121E8585
:101DAC0070048A0C8B0DE50A6012850C82850D83FC
:101DBC00F50BE5D9F0A3150BE50B70F6121E85603B
:101DCC004474FC250AF50A780C121A7BAC0AA90E8D
:101DDC00EEFAEFFB120BF5740212180EE97026AA3C
:101DEC0008AB091212E5793D8E828F83A3A3A3A3BE
:101DFC00E0FA7B00120853EEFAEFFB120B53120CB5
:101E0C00557900806F7403650E6051850A10751149
:101E1C00007810121A7BAC0CAD0DAA08AB09120B92
:101E2C00B9740212180EEE2468121E8864807004B5
:101E3C00747F8001E0F50C780C121A7FE50EF50C1E
:101E4C00780C121A7FA90AAC08AD09900397E0FA36
:101E5C007B00120823740212180E8013900369E0A1
:101E6C006408700BAC0CAD0DEEFAEFFB120C2512E6
:101E7C000DBD79017F0A021980EE2483F582E43FBF
:101E8C00F583E02274F21218D474FC1217F8EAFEEF
:101E9C00EBFF8909A2AFE433F508C2AF021F5AE089
:101EAC00601B780C121A7BAC0BA90EEEFAEFFB122E
:101EBC000BEF740212180E7404250BF50B7401252C
:101ECC000BF5D9850ED9E50B6018F50A850C8285C2
:101EDC000D83E0F5D9A385820C85830D150AE50ADF
:101EEC0070EA75E195EE2463F8E43FF97A007B0023
:101EFC00A2AFE433F50BC2AF88828983E0FCA3E088
:101F0C00FDEC4D603A88828983E0FAA3E0FB8A827B
:101F1C008B83E0FCA3E0FD88828983ECF0A3EDF0D9
:101F2C008A828B83E4F0A3F088828983E0FCA3E0AF
:101F3C00FDEC4D700A88828983A3A3E4F0A3F0E53D
:101F4C000BA2E092AF1212E59006C7E004F0EE246B
:101F5C0063121E88F8A3E0F9E8496064EE2463126A
:101F6C001E882402F8A3E03400F988828983E58274
:101F7C002402F50CE43583F50DE0F50BA3E0F50E2A
:101F8C00EE2462121E88640170369061D0E0F81263
:101F9C001E8560047C0480027C007480C398FA95D2
:101FAC00E0FBE50B2CF8E43400F9E82402F85001CE
:101FBC0009C3EA98EB99A2D265D0334003021EAB59
:101FCC009006C7E0604D9006C8E0F89006C7E0C3E5
:101FDC0098500C74026509703A9006C9E060348E12
:101FEC00828F83A3A3A3A3E0851882851983122073
:101FFC002F7402121844E812202F9006C6E028F025
:10200C00740212185EAA18AB19790112087D900699
:10201C00C7E4F0E508A2E092AF740412180E7F0733
:10202C00021980F0A3E4F09006C7E0F8220000004B
:10203C00851A87851BC622C0E074EB1219C0A2AFAB
:10204C00E433F508C2AF759B00906182E0A2E050CA
:10205C0030E591A2E0502A7591FE7401651A702149
:10206C001221D6120CE51221C4121A8E12233B74C3
:10207C000412180EE9640170057901120D15121C79
:10208C00FF906182E0A2E5505DE591A2E5505775A5
:10209C0091DF900369E064076005E06408702F121B
:1020AC0021D67401651A703E120CE51221C4121A65
:1020BC008E12233B740412180EE964017005790129
:1020CC00120D157901EEFAEFFB121E908018E064E8
:1020DC000D701390038BE004F064287002E4F07A26
:1020EC0000E0F9120DC3906182E0A2E640030221E8
:1020FC0099E591A2E640030221997591BF9003697D
:10210C00E064057008120CCD120CD98003120CD3AC
:10211C00751A00120D33E990036AF07900120D154F
:10212C00120A997A017B00900368E0F91212B590BB
:10213C007803E0644270569006FBE014F0704EC2D7
:10214C00AF12215000781DD0E0F618D0E0F6E59FD4
:10215C005407F87005750DFF8003750D7FC4C0E042
:10216C00781CE6F50A08E6550DF50B740B780A1287
:10217C0017D6D0E0250AF8906270E0A2E740F8E8A4
:10218C00C333906272F0906270E0D2E0F0906181A3
:10219C00E0A2E35009E5E9A2E3500375E9F7A3E0F7
:1021AC00A2E75009E591A2E7500375917FE508A2DB
:1021BC00E092AF7F08021A1F8E828F83E0F8A3E0B3
:1021CC00C82416F582E438F58322900397E0F8755D
:1021DC00F00DA4C8AAF02AF9749928FE740339FFEB
:1021EC0022C0E0C0D0C082C083906183E0A2E050E6
:1021FC0009E5BFA2E0500375BFFEE0A2E15009E57E
:10220C00BFA2E1500375BFFDE0A2E25009E5BFA2F9
:10221C00E2500375BFFBE0A2E35009E5BFA2E35017
:10222C000375BFF7E0A2E45009E5BFA2E4500375C3
:10223C00BFEFE0A2E55009E5BFA2E5500375BFDF93
:10224C00E0A2E65009E5BFA2E6500375BFBFD083FC
:10225C00D082D0D0D0E032C0E074F21219C0E5A721
:10226C00A2E6500FE5A1A2E6500953A7BF75A1BF86
:10227C001222B7E5A7A2E5500CE5A1A2E550065342
:10228C00A7DF75A1DFE5A7A2E15009E5A1A2E15006
:10229C000375A1FDE5A7A2E2500CE5A1A2E2500650
:1022AC0053A7FB75A1FB7F01021A1F74F71218D4F8
:1022BC00751A01900369E064067015120C798A8214
:1022CC008B83A3A3A3A3A3A3E0FAA3E0FB120CBBF1
:1022DC00A2AFE433FED2AF90036FE0640170187AC2
:1022EC00207B00900368E0F91213CF7A207B0090DA
:1022FC000368E0F91212BB906182E0D2E6F090061E
:10230C00F8E0602185C61B801690036EE0640170B6
:10231C0008E5C654F84405F5C653BEFC12203C74BF
:10232C0001651A60E4EEA2E092AF7F02021980749C
:10233C00F11218D48A088B098C0A8D0B9083BA7809
:10234C0008121677740F121844780C1216B090837A
:10235C00BA780C1216777808790C12148C90839A30
:10236C0050107808790C12163C78081214AC4014F2
:10237C00800E780C790812163C780C1214AC5004B0
:10238C007901800279007F0802198074ED1218D44B
:10239C008A088B098C0A8D0B9083BA7808121677F1
:1023AC007413121844780C1216B09083BA780C126D
:1023BC001677780C790812148C40117808790C1265
:1023CC00163CAA08AB09AC0AAD0B8022751000753F
:1023DC0011007512007513017810790C12163C78E7
:1023EC00107908121603AA10AB11AC12AD137F0CA6
:1023FC00021980C082C083E9906000F0D083D08243
:10240C0022C0E074F21219C0A2AFE433FED2AFC204
:10241C00C0E5D1A2E4500675D10F121207EEA2E06E
:10242C0092AF7F01021A1FC0E074F21219C0A2AF62
:10243C00E433FED2AFE589A2E1500312115975893C
:10244C0000C2C5EEA2E092AF7F01021A1FC0E07479
:10245C00F21219C0A2AFE433FED2AFE58BA2E0506A
:10246C0003121159758B00C2E880D8C0E0C0D0E8C7
:10247C00C0E0E9C0E0A9A8D2AFC2C7E9A2E7E43343
:10248C00F8E9A2E792AFD0E0F9D0E0F8D0D0D0E0F4
:10249C0032C0E0C0D0E8C0E0E9C0E0EAC0E0C082F1
:1024AC00C083A2AFE433FAD2AF900F62E0F8A3E09E
:1024BC00687008539AFBA374018022C2E9900F62E2
:1024CC00E0F8740128F074E228F582E4340EF58308
:1024DC00E0F5C1900F62E0C394804002E4F0EAA200
:1024EC00E092AFD083D082D0E0FAD0E0F9D0E0F81F
:1024FC00D0D0D0E032C2AF02000022002020202039
:10250C002020202020282828282820202020202097
:10251C002020202020202020202020208810101077
:10252C0010101010101010101010101004040404CF
:10253C000404040404041010101010101041414144
:10254C0041414101010101010101010101010101AF
:10255C000101010101010110101010101042424242
:10256C00424242020202020202020202020202027F
:10257C00020202020202021010101020FFFFFFFFE5
:10258C00FFFFFFFFC082C083E9901D36F0D083D0DF
:10259C008202011F74F6121868E99002DCF09003B5
:1025AC003BE0F508750900740278081217E5AA08D3
:1025BC00AB0912132D9002DD122F539002DD123352
:1025CC0040606F90033BE075F003A4FAABF012137C
:1025DC002D9002FA122F539002FA123340700B9086
:1025EC0002DD12331112133380489002FA1242A505
:1025FC007AFF7BFF1210DB7A0080198A08750900BC
:10260C00740278081217E5123D4D74FF122753E43B
:10261C00F0A3F00A90033BE0F8EAC39840DD79059B
:10262C0012071B9002DCE0F91206077AA57B071251
:10263C000979023DF074F41218688A088B09EB547E
:10264C008060479002DCE0F912129D8A0A8B0BAE77
:10265C000AAF0BEE4F602A8E828F83E064B0701A43
:10266C0012072DE960148E828F83A3A3A3A3E0F934
:10267C00EE2405FAE43FFB1206FDEEFAEFFB121214
:10268C008BAA08E5096480FB80047A007B00022891
:10269C00A374F212186874FB1217F8EAFEEBFFEE43
:1026AC004F60457403121844EEF0A3EFF0851882C6
:1026BC00851983ECF0A3EDF07402121844E9F0AA2A
:1026CC0018AB19120601E9F5087075741312184449
:1026DC00E0F50AA3E0F50BE50A450B60638E828FEB
:1026EC0083122CDCEE4F700575080280537A067B42
:1026FC000012132D8A0C8B0DA80CA90DE84970053E
:10270C00750813803B88828983E4122753EEF0A36B
:10271C00EF12286FE50AF0A3E50BF09002E0122807
:10272C00689002E06017E0FCA3E08003EAFCEBFD9C
:10273C008C828D8312286870F38C828D8312396899
:10274C00A9087405024525F0A3124287A32274F24E
:10275C001218688908890C750D007403780C12170F
:10276C00E5850C0A850D0B9002DFF09002DD123727
:10277C0073122866602E1213337900801D890C7534
:10278C000D007402780C1217E59002DD123C0C88D7
:10279C0082F583A3A3E4F0A3F00990033BE0F8E9EE
:1027AC00C39840D990033BE0FA850AF0A4CAA8F07C
:1027BC00850BF0A428FB12132D8A0C8B0DAE0CAFDD
:1027CC000DEE4F700302285C90033BE0FC850AF091
:1027DC00A4CCA8F0850BF0A428FD79001212737C10
:1027EC000080318D0C750D007403780C1217E58A7E
:1027FC00828B8312286188828983E4F012286EA36D
:10280C00A3F0A3F00DEDC3950840D8EE250AFEEF1A
:10281C00350BFF0C90033BE0F8ECC39850288C0C64
:10282C00750D007402780C1217E59002DD12286108
:10283C00E82402500109FAE9FB8A828B83EEF0A3AB
:10284C00EFF07D0080BFE5089002DFF07900800298
:10285C007913024528123C10F922A3A3123315EA6E
:10286C004B22A3124287A3A3A32274F412186879F3
:10287C0000EAA2E0501F7508507509837808121AF7
:10288C007B79107C047D007A387B1D12071574024D
:10289C0012180EE9F980007F0402193AC082C08335
:1028AC009002E0123340601C88828983A3A3E06A03
:1028BC007003A3E06B8882898370E8A3A3A3A3129F
:1028CC00331180047A007B0002259974F212186887
:1028DC0074FD1217F8EAFEEBFF851882851983E464
:1028EC00F0A3F074021218447401F012333D70140A
:1028FC001208CB12132D9002E3122F5312333D709A
:10290C0003022A69123053EE2404F50AE43FF50B56
:10291C00850A82F583E024FE603C24FC607424FE6E
:10292C00607E24FE70030229B924FE70030229C6BE
:10293C0024FE70030229D324FE70030229E024FE36
:10294C0070030229ED24FC7003022A0E24FE70038E
:10295C00022A26022A621208CB9002E5EAF0A3EBC7
:10296C00122A75120259E96003022A629002E512DA
:10297C001A928E828F83A3A3A3A3A31242A58508C8
:10298C00828509831233111206E5740212180E02A5
:10299C002A62AC18AD19EEFAEFFB120733022A319A
:1029AC00AC18AD19EEFAEFFB1207398078AC18AD04
:1029BC0019EEFAEFFB12073F806BAC18AD19EEFA6B
:1029CC00EFFB120745805EAC18AD19EEFAEFFB1267
:1029DC00074B8051AC18AD19EEFAEFFB1207518082
:1029EC0044740212184E880C890D780C121A7B74E0
:1029FC000212185EEEFAEFFB120757740212180E51
:102A0C008023AC18AD19EEFAEFFB12075DE9F870F4
:102A1C00167402121844E4F0803CAC18AD19EEFAAE
:102A2C00EFFB120763E9F8E8602C8E828F83A3E03A
:102A3C0064146022850A82850B83E09002E5F085A0
:102A4C0018828519831233119002E6122F53E8A3D2
:102A5C00122A75120253EEFAEFFB1206BB74021225
:102A6C001844E0F97403024525F07CE57D028508E5
:102A7C00828509831233152274E812186874FA12CD
:102A8C0017F87404121844ECF0A3EDF08A128B13AF
:102A9C00EA2405F50EE43513F50FEA2402F510E4EB
:102AAC003513F511851082F58312331112039D8AAB
:102ABC000A8B0B7508007C037D0079007AE57B029C
:102ACC00121273E50E2402F516E4350FF517740295
:102ADC0012184E880C890D780C121A7B850E828583
:102AEC000F83A3A3A3A3E0F50C750D00780C121AA9
:102AFC007BE50E2405F50CE4350FF50D780C121A58
:102B0C007B85168285178312361812061F740612DF
:102B1C00180E8A0C8B0DE50C450D7003022CA5804C
:102B2C0020851882851983E088828983F0050885C1
:102B3C001882851983A3E0C0E0122CE6D0E0F005E2
:102B4C0008E50A24FBFAE50B34FFFBC3E5089AE41D
:102B5C009B4003022CA57E007F0085128285138387
:102B6C00A3A3A3A3E0F5097809121A7FE4F514F5E1
:102B7C00157814121A7B7514E27515027814121A52
:102B8C007B9002E3121A927409121844121A92E5FD
:102B9C000A24F9F9AC0CAD0D851082851183123322
:102BAC001112078D740912180EE96003022C468568
:102BBC000E82850F83A3A3A3A3A3A3A3E0F8900283
:102BCC00E2E0687075E0F5148E157814121A7B1219
:102BDC0042A2850E82850F83A3A3A3A3A3A3A3A3C1
:102BEC0012331112126D740212180EE9604C90021D
:102BFC00E6123340703BE4F5147814121A7B7CFF18
:102C0C007DFF79078510828511831233111206F727
:102C1C00740212180E1233467017850E82850F83BC
:102C2C0012443F7404121844123D00123649022C0F
:102C3C00D9850C82850D83122CDCA818A91988144F
:102C4C0089157814121A7B7404121844121A92857E
:102C5C001682851783122F4912062B740412180E34
:102C6C008A0C8B0DEE4F7003022B22122CE6EE1207
:102C7C002CF11235FFEF122CF1F8A3E03400F9E53A
:102C8C000C450D6003022B2D8882898374FFF0059F
:102C9C0008122CE674FFF00508E508601A131354AB
:102CAC003F122F59120265E960099002E6123311A6
:102CBC001212E579008016850E82850F8312443F2F
:102CCC007404121844123D00123968790A0235D284
:102CDC00A3A3A3A3E0FEA3E0FF22A8089002E6E0D2
:102CEC00281235FF22F00508089002E6E02822742D
:102CFC00E812186874FA1217F87402121844122F9A
:102D0C00537404121844ECF0A3EDF074021218443E
:102D1C00E024051235E8E0F50CA3E0F50D74021281
:102D2C001844E02402F510A3E03400F5118510825C
:102D3C00F58312331112039D750800750900EA24FE
:102D4C00FCFEEB34FFFF8008050CE50C7002050D52
:102D5C00A808C3EE98EF94005003022F05A818A9F9
:102D6C0019880E890F780E121A7B851482851583AB
:102D7C00A3A3A3A31242A9121A7BE5142405F50EF2
:102D8C00E43515F50F780E121A7B851482851583A0
:102D9C00122F4712061F740612180E8A0E8B0FEA9A
:102DAC00450F7003022F05EA2404F516E4350FF5E0
:102DBC0017851682F583E0F50CA3E0F50D851882D6
:102DCC008519831242A58A828B83A3A3A3E0F9857C
:102DDC00108285118312331112060DE9F509600377
:102DEC00022F05740212184412360FF509780912D5
:102DFC001A7FE4F512F5137812121A7B7512E2752C
:102E0C0013027812121A7B9002E3121A92740712B0
:102E1C001844121A92EEF9AC0EAD0F851082851182
:102E2C008312331112078D740912180EE9F509601B
:102E3C0003022F05E508703FE4F50EF50F780E122E
:102E4C001A7B7CFF7DFF79098510828511831233F3
:102E5C00111206F7740212180E123635700D740426
:102E6C00121844122F3C7911022F399002E2E024FF
:102E7C00029002E6F080149002E6E0FA9002E2E0A2
:102E8C00790024025001096A497072A8089002E284
:102E9C00E0FAE82AFAE43400FBEE9AEF9B405A85FC
:102EAC001682851783E0C0E09002E7122CEBD0E08D
:102EBC00F00508851682851783A3E0C0E008900210
:102ECC00E7122CEBD0E0F005089002E21242A912B6
:102EDC001A7B1242A2A8081235DC12125B74021281
:102EEC00180E9002E2E02508F50874FF650C7004DA
:102EFC0074FF650D6003022D54E508601F9002E617
:102F0C00E0F5F0E50884122F5912026BE960099084
:102F1C0002E71233111212E579008011E5097003F2
:102F2C0075090A7404121844122F3CA9090235D2EF
:102F3C00123777E50CF0A3E50DF022A3A31245346C
:102F4C00AA0CAB0D22A3A3EAF0A3EBF0229002E5AE
:102F5C00F07CE57D02851082851183123315227475
:102F6C00EC12186874FC1217F8123A7874021218E2
:102F7C005E12330B1206258A0C8B0DEA450D70037D
:102F8C00023043123053A818A919881089117810EF
:102F9C00121A7B7CFF7DFF790B85088285098312D1
:102FAC0033111206F7740212180E123149700C8587
:102FBC000A82850B831236460230508E828F83A391
:102FCC00A3A3A3E0F5127812121A7FE4F512F513FD
:102FDC007812121A7B7512E57513027812121A7B8D
:102FEC007810121A7B7409121844121A927409126E
:102FFC001844E0F9AC0CAD0D8508828509831233B9
:10300C001112078D740912180EE9FE70157CE57DFE
:10301C0002850882850983123311120271E9700945
:10302C00802074166E70027E009002E6123311122C
:10303C0012E5EE7004800B7E01850A82850B8312EB
:10304C003965EEF902397AEE2402F508E43FF50908
:10305C002274EC12186874FC1217F8EAFEEBFF8C61
:10306C000E8D0FEE2405F508E43FF50974021218D5
:10307C005E8508828509831233111206258A0C8B12
:10308C000DEA450D7003023139EE2402F50AE43FD6
:10309C00F50BA818A919881089117810121A7B7CC5
:1030AC00FF7DFF790D12330B1206F7740212180E06
:1030BC00123149700B850882850983123646807A55
:1030CC008E828F83A3A3A3A3E0F5127812121A7F2A
:1030DC00850882850983A3A3121A927512E57513CC
:1030EC00027812121A7B7810121A7B740912184487
:1030FC00121A927409121844E0F912330712078D50
:10310C00740912180EE9FE700F7CE57D0212330B68
:10311C00120277E97009802074166E70027E00909E
:10312C0002E61233111212E5EE7004800B7E01855B
:10313C000882850983123965EEF902397A12335007
:10314C00F510A3E0F511EA45112274E81218687421
:10315C00FE1217F88A168B178C148D15EA2405F5B8
:10316C000CE43517F50DEA2402F50EE43517F50FCE
:10317C00850E82F58312331112039D8A088B097513
:10318C000B007C037D0079007AE57B0212127375CB
:10319C000A00E50814F5100424FFF508E50934FFCE
:1031AC00F50980549002E5E0FA9002E2E0F8EA2892
:1031BC00F8E43400F9E50898E50999500D9002E51A
:1031CC00E0F8E510C3989002E2F0E0F512751300F8
:1031DC007812121A7B1242A29002E6E02AFAA3E0BD
:1031EC003400FB12125B740212180E9002E2E0F82B
:1031FC009002E5E028F0050A850C82850D83A3A3D7
:10320C00123C1C40030232EC9002E5E0C39508E44A
:10321C00950940030232ECAE0AEE2EFEE433FF12A7
:10322C00332BAC18AD191242BDE439FB1206258ABA
:10323C00128B13AC12AD13EC4D701B750B011233CA
:10324C001B1239699002E612286860031212E5A974
:10325C000B74020235D4851682851783A3A3A3A30E
:10326C00E0F50B780B121A7FE4F512F513781212B5
:10327C001A7B7512E27513027812121A7B9002E314
:10328C00121A927407121844121A92A910850E82FF
:10329C00850F8312331112078D740912180EE9F57C
:1032AC000B709B9002E612334060030231B0E4F5E0
:1032BC0012F5137812121A7B7CFF7DFF790F850EA5
:1032CC0082850F831233111206F7740212180E1234
:1032DC00334660030231B012331B12364A02325DA0
:1032EC007CE57D02850E82850F8312331112027DDF
:1032FC00E96003023250790002325DAC0CAD0D85F1
:10330C000A82850B8312331522E0FAA3E0FB22120A
:10331C00332BE0FAA3E0F9EA851482851583228524
:10332C000C82850D83E02EF8A3E03FF98882898317
:10333C00229002E3124443E84922123350F8A3E0EE
:10334C00F9E849229002E6EAF0A3EBF09002E6E0FD
:10335C002274E812186874FA1217F87404121844DC
:10336C00122F538C168D177404121844E02405F593
:10337C000EA3E03400F50F7404121844E02402127A
:10338C0035E812331112039D8A0A8B0B7F007E00E5
:10339C00A818A919880889097808121A7B850E8241
:1033AC00850F83A3A3A3A3E0F5088E097808121A4E
:1033BC007BE50E2405F508E4350FF5097808121A9B
:1033CC007B850E82850F83A3A312361812061F74F9
:1033DC000612180E8A0C8B0D8029123609F00F126A
:1033EC003609F00F9002E2123954121A7B1242A2E3
:1033FC00EFF81235DC12125B740212180E9002E216
:10340C00E02FFFE50C450D7003023498851882857A
:10341C001983123A8AA3A3A3E0F985148285158334
:10342C0012331112060DE9FEE50C2404F510E435F7
:10343C000DF511EE7050740412184412360FF50885
:10344C007808121A7FE4F508F5097808121A7B75CA
:10345C0008E27509027808121A7B9002E3121A929C
:10346C007407121844121A92E50A24FAF9AC0CAD3E
:10347C000D85148285158312331112078D74091270
:10348C00180EE9FE6039123625123968EF70030206
:10349C0035BF9002E6E0F5F0EF849002E5F07CE5B4
:1034AC007D02851482851583123311120283E96023
:1034BC00099002E71233111212E579000235D28F0E
:1034CC0008EF703BE4F512F5137812121A7B7CFFAF
:1034DC007DFF79118514828515831233111206F73D
:1034EC00740212180E12363570091236251236492E
:1034FC000235D29002E2E024049002E6F08035908E
:10350C0002E2E0F89002E6E0FAE82404FCE434007D
:10351C00FDEC6A4D600302349EE50A24FAFAE50BD1
:10352C0034FFFBE50828F8E43400F9EA98EB9950ED
:10353C000302349E851082851183E0C0E09002E77F
:10354C00E02FF8A3E034008882F583D0E0F00F85FB
:10355C001082851183A3E0C0E01235F6D0E0F00FA5
:10356C00740212184E880889097808121A7B7402A2
:10357C00121844121A92850E82850F83122F47124D
:10358C00062B740412180E8A0C8B0DEA450D700371
:10359C000233E67402121844E0C0E01235F6D0E0B3
:1035AC00F00F7402121844A3E0C0E01235F6D0E01C
:1035BC000233EEEE70027E0A850E82850F83123680
:1035CC002B123968EEF9740612180E7F1002193A94
:1035DC009002E7E028FAA3E03400FB22F514A3E004
:1035EC003400F515851482F583221235FA229002E7
:1035FC00E7E02FFAA3E034008A82F583221235FA31
:10360C0074FF22123777A3A3A3A3E02212453485BB
:10361C000E82850F83123315228510828511831239
:10362C004443851682851783229002E7EAF0A3EBC8
:10363C00F09002E7124443E8492212396EE8F0A3F5
:10364C00E9F079112274EA12186874FE1217F88ADC
:10365C00088B098C128D13EA2405FEE43509FFACA6
:10366C0018AD198E828F831233111206258A0C8B9A
:10367C000DEE2406F50EE43FF50FEA450D7003023E
:10368C003749E5082402F50AE43509F50B8A828BE3
:10369C0083A3A3A3E0A2E550288518828519831281
:1036AC0033111207818A108B11EA451160207912AF
:1036BC00123307851082851183121866E9F50C7098
:1036CC007F850E82850F83E0600979528011750C1D
:1036DC000E806D850882850983A3A3A3A3E0F9E47A
:1036EC00F508F5097808121A7B8E828F83A3A3E064
:1036FC00F5087808121A7B8E828F83A3A3A3121A63
:10370C00928E828F831242A512330B12079374068A
:10371C0012180EE9F50C7011850E82850F83E0707E
:10372C002D12330B12028980257416650C701175DD
:10373C000C007418121844123773E48010750C01C5
:10374C0012443B851282851383E8F0A3E9F0850EC1
:10375C0082850F83E0600479008002A90C74021248
:10376C00180E7F0E02193A12377722E0F8A3E0F513
:10377C008388822274EC12186874F71217F88A0A7C
:10378C008B0B8C108D11EA2405FEE4350BFF750CA8
:10379C0000AC18AD198E828F831233111206258A54
:1037AC00088B09EA4509700302393FE50A2402F542
:1037BC000A5002050B8A828B83A3A3A3E0A2E550D7
:1037CC002F8518828519831233111207818A0C8B6D
:1037DC000DEA450D604F7912AC08AD0912330B851B
:1037EC000C82850D83121866E9F50C6003023942D0
:1037FC00850A82850B83E0F508A3E0F509AA08FB8E
:10380C00120775EA4B70197AFF7BFF120775EA4BAA
:10381C0070030239358A828B83E508F0A3E509F041
:10382C007508008008750C0E02394205089002DFFD
:10383C00E0F8E508C398400302393585080E750F8A
:10384C00007403780E1217E58A828B83A3A3E025FC
:10385C000EF8A3E0350F123D0970D08E828F8312C3
:10386C00395D122F538E828F83A3A312395D122FD1
:10387C0051EE2404F508E43FF509850882F583E050
:10388C0088828983A3A3A3A3F0A3E4F0EE2405F517
:10389C000EE43FF50F850E82F58312395DA3A3A3C9
:1038AC00A3122F517512077513007812121A7BEEA2
:1038BC00FCEFFD740412185612125B740212180EEF
:1038CC00E4F5127812121A7B850882850983E0FCD4
:1038DC007D00791712330B1206F7740212180E744E
:1038EC0007121844122F537407121844E0FA4B6055
:1038FC003D850882850983123954121A7B850E8204
:10390C00850F831242A512125B740212180E7402F8
:10391C0012185E12330B12028FE96026740712180C
:10392C00441233111212E58019750C098008750CBC
:10393C00118003750C0112443B8510828511831292
:10394C003968A90C74098028E0F508750900780815
:10395C0022123315888289832212396EE8F0A3E98A
:10396C00F022E0F8A3E0F9850E82850F832274041F
:10397C0012180E7F0C02193A74EC121868123A786D
:10398C00751000EE2402F50CE43FF50D850C82F564
:10399C00831233111207758A088B09EA45097003E3
:1039AC00023A5C850A82850B83E064016003023A6B
:1039BC0051AC08AD09AA0AAB0B120769E9606E8518
:1039CC000882850983122CDEEE2406F50AE43FF505
:1039DC000B8E828F83A3A3121A928E828F83A3A342
:1039EC00A3A3121A92850A82850B83121A92791854
:1039FC008E828F83123A8A12331112079374061235
:103A0C00180EE9F8741668700B850A82850B83E42E
:103A1C00F0A38014E860128E828F83123311850E0E
:103A2C0082850F83EAF0A3EBF088108018780E12D1
:103A3C001A7BAC08AD09EEFAEFFB12076F74021299
:103A4C00180EE9F510AA08AB0912077BE510700EE9
:103A5C00850C82850D831233111202958009741620
:103A6C0065107003751000A91002397FEAFEEBFF98
:103A7C008C0E8D0FEE2405F50AE43FF50B22124552
:103A8C0034850C82850D832274EA1218687508003F
:103A9C007509007E007F00750A00EC2402F510E425
:103AAC003DF5118035EC65087003ED650960030286
:103ABC003B4988828983A3A3E06A7003A3E06B70FF
:103ACC007C88828983A3A3A3A312443FEE28FEEF34
:103ADC0039FFEA28FAEB39FB050A123C19503A85F2
:103AEC000A0C750D007403780C1217E5851082858D
:103AFC001183123C0C123D09601FE508450970A5A5
:103B0C008C088D0988828983122CDC88828983A396
:103B1C00A3E02EFAA3E03F80BEE50AC39402500353
:103B2C00023C07750800750900EE4F6010EEFAEFC5
:103B3C00FB1212DF8A0E8B0FEA450F70057900021B
:103B4C003C09750B00023BDC850B0C750D007403F6
:103B5C00780C1217E5851082851183E0250CF50C85
:103B6C00A3E0350DF50DE50C2406F514E4350DF543
:103B7C0015851482F583123D0E6042E50C2404F584
:103B8C0012E4350DF513851282F583121A92E50EA7
:103B9C002508FAE50F3509FB12125B740212180E98
:103BAC00851282851383E02508F508A3E03509F515
:103BBC00098514828515831233111212E5E50B6009
:103BCC000D7C087D007900AA0CAB0D121273050B4D
:103BDC00E50BC3950A5003023B5485108285118373
:103BEC0012443F88828983A3A3A3A3A3A3E50EF069
:103BFC00A3E50F12286FEEF0A3EFF0790102376EF8
:103C0C00123C1022E0250CF8A3E0350D229002DFC7
:103C1C00E0F8E50AC3982274F01218688A0E8B0F2C
:103C2C008C0A8D0B750D00750C0080507916EE24E6
:103C3C0006F508E43FF5098E828F83A3A3121A922E
:103C4C008E828F83A3A3A3A3121A9285088285095F
:103C5C0083121A92850E82850F83A3A3123311123D
:103C6C000793740612180EE9F50D7416650D706C39
:103C7C00850882850983E4F0A3F0050C9002DFE04F
:103C8C00F8E50CC3985066AA0C8A087509007403F1
:103C9C0078081217E5850A82850B83A3A3123D5879
:103CAC00E8FEE9FF8E828F83123D0E6040EA24010C
:103CBC00F508E43400F5099002DFE065087002E5D0
:103CCC0009601488828983A3A3A3A3A3A3A3A3122B
:103CDC0033406003023C387918023C3AE9609B128D
:103CEC00443B7410121844123D00123968A90D7F20
:103CFC000802193AE0FAA3E0F5838A8222F9888255
:103D0C008983124534EC4D2274F61218687C0080BD
:103D1C00010C90033BE0F8ECC398501E8C0875091D
:103D2C0000740278081217E5123D4DE06A7003A387
:103D3C00E06B70DDE8FAE9FB80047A007B00023D61
:103D4C00F09002DD123D588882898322E02508F824
:103D5C00A3E03509F92274F21218688A088B0975E8
:103D6C000A0080278E828F83A3A3A3A312286660E8
:103D7C00031212E57C087D007900EEFAEFFB1212BB
:103D8C00738E828F83E4F0A3F0050A123C1950273E
:103D9C00850A0C750D007403780C1217E5850882E2
:103DAC00850983A3A3E0250CFEA3E0350DFF8E82CD
:103DBC008F8312334070AD85088285098374FFF0C0
:103DCC00A3F002452874F61218681207278A828B12
:103DDC0083E582458370067A007B008007A3A3A34A
:103DEC00A31233117F0202193A74F412186889086D
:103DFC008C828D83E06402703C1243DEFEA3E0F9FA
:103E0C00EEF874026870037429697029750A0275DA
:103E1C000B00780A121A7B7410121844121A92743E
:103E2C0010121844121A92A9081210E174061218F2
:103E3C000EE9F9800279010228A374E8121868745B
:103E4C00FB1217F8E9851882851983F08A168B17EF
:103E5C00ECFEEDFF7510008E828F83A3A3A3E0A26E
:103E6C00E4502D741D1218441233111207818A82EA
:103E7C008B83E5824583700302427D790AEEFCEF69
:103E8C00FDAA16AB17121866E9F510600302428002
:103E9C00741F121844E0F508A3E0F50974211218F8
:103EAC0044E0F50AA3E0F50B7423121844E0F50E78
:103EBC00A3E0F50F8E828F83E06402600302421E42
:103ECC00A312443F850882850983A38582128583CA
:103EDC0013EE2406F50CE43FF50D8882898312421B
:103EEC00BDF514E439F5157814121B0501000028F2
:103EFC000128203F07000228E53F0328533F0029F3
:103F0C00144101293F410229E040032914410429AD
:103F1C00B8411E42E50E450F6003024219850C8222
:103F2C00850D8312443FE8FAE9FB8A828B83E08596
:103F3C000A82850B831242C8121A7B8A828B83A356
:103F4C00E0FCA3E00241A2E50E450F60030242191A
:103F5C00850A82850B837401F01242B28508828532
:103F6C000983F07C007D008E828F83A3A3A3A3E042
:103F7C002401FAA3E03400FB120625EA4B60408AC8
:103F8C00828B83E02402F8850A82850B83E028F07B
:103F9C00EA2404F8E43BF988828983E0851282855F
:103FAC0013831242D61242C8121A7B8A828B83A3C5
:103FBC001242A5E5082403FAE43509FB0241A78562
:103FCC000A82850B83E02404F07C047D007900AA2E
:103FDC0012AB13121273024280E50E450F600302FE
:103FEC0042191242B2FEA3E0FF850A82850B83744C
:103FFC0004F0EE850882850983F0EF851282851323
:10400C0083F0740312185EEEFAEFFB1206258A0C8D
:10401C008B0DEA450D70030240C38A828B83A3A3E8
:10402C00122CDC740112184E880E890F780E121A9D
:10403C007B7405121844121A927CFF7DFF12062B1A
:10404C00740412180E8B0FEA450F7033850C8285A1
:10405C000D831242A9121A7B850C82850D83A31243
:10406C001A927C027D007AE17B8312038B7404121A
:10407C00180EE9700A740112184474FFF0A3F08E44
:10408C00828F83E064027039750C02750D00780C18
:10409C00121A7B8E828F83A31242A5E5082404FAA0
:1040AC00E43509FB12125B740212180E850A828524
:1040BC000B83E0240280097401121844EEF0A3EF84
:1040CC00F0740112184412429774011218441242EF
:1040DC008E024213E50E450F6003024219850C82D5
:1040EC00850D8312452DAA16AB171210E7850A828F
:1040FC00850B837402F0850882850983EAF08512AA
:10410C0082851383EB024216E50E450F60030242D3
:10411C00191242B2F8A3E0F9850A82850B83740266
:10412C00F0E8850882850983F0E98512828513837E
:10413C00024216850C82850D83123311121255EA38
:10414C00FAF8C3950EE4950F405CE8650E450F70C8
:10415C00047A008021851882851983E0FCE50E2CF9
:10416C00FCE4350FFDC3EC98ED94005003E08005A2
:10417C00E50ECAC39AFAEA850A82850B83F08A0A8D
:10418C00750B00780A121A7B850C82850D83E0254D
:10419C000EFCA3E0350FFDAA08AB0912125B7402EA
:1041AC0012180E024280751007024280E50E450F70
:1041BC00705B850C82850D8312443F850A82850BCA
:1041CC00837407F08882898312428F124287E085BC
:1041DC001282851383F0E82402FAE439FB8A828B7D
:1041EC00831242978A828B8312428EA3A312286E6B
:1041FC0012429CF0E82405F8500109888289831248
:10420C00429CA31242D6A3A3A3A3F0806775100B04
:10421C008062741D1218441233111207278A828B84
:10422C0083E5824583604A12443F880C890DE8453A
:10423C000D603E7425121844E0F5107810121A7FA8
:10424C00780E121A7B780A121A7B7808121A7B7471
:10425C0007121844E0F9EEFCEFFDAA16AB17850C1B
:10426C0082850D83121866740712180EE9F51080FA
:10427C000375100EA91074050235D4F08882898359
:10428C00A322A3E0850882850983221242DDF02255
:10429C001242DDA3A3229002E312453422E0F50E74
:1042AC00750F00780E22850C82850D83123777E00E
:1042BC0022E0FAA3E0F8E4C8F9EA2822F08A828B1B
:1042CC0083E0F50A750B00780A221242871242DD50
:1042DC0022E0850882850983A3A32274EE12186854
:1042EC0074FE1217F88A088B09ECFEEDFF890AACF4
:1042FC0018AD19EEFAEFFB1206258A0C8B0DEA4568
:10430C000D70030243CF8518828519831233111265
:10431C0007278A828B83E582458370030243CAA3F5
:10432C00A312443F880E890FE8450F70030243CA5D
:10433C007414121844E0F510A3E0F511E50AF50B1E
:10434C00780B121A7F7419121844121A92781012E0
:10435C001A7B741B121844E0F9AC0CAD0DAA08AB17
:10436C0009850E82850F83121866740512180EE9E2
:10437C00F50B705274FE650A604C850C82850D83BA
:10438C00E0640270411243DEFAA3E0F9EAF8740229
:10439C00687003742969702E85108285118312420E
:1043AC00BDF50CE439F50D780C121A7BEEFCEFFD23
:1043BC00AA08AB091207AB740212180E8008750B11
:1043CC000E8003750B01A90B740212180E7F0A02E2
:1043DC00193AA312444388828983E02274F6121896
:1043EC006874FE1217F8740C12184412443FE885D6
:1043FC001882851983F07401121844E9F0E4F50869
:10440C00F5097808121A7B7508027808121A7B7461
:10441C000412184E880889097808121A7B79FE1242
:10442C000793740612180E740212180E023DF08EC9
:10443C00828F8312444322E0F8A3E0F92274F7122E
:10444C001868EAFEEBFF89089002FA1242A51210D6
:10445C00E7EA5402600BA908EEFAEFFB120619808A
:10446C000279017F0102193A74F212186874FE1273
:10447C0017F8EAFEEBFF890A7401650A60147402EE
:10448C00650A60030245237901120997E96003026A
:10449C004523EEFAEFFB120775EA4B600312077B1C
:1044AC00A818A919880889097808121A7B750802B6
:1044BC007509007808121A7B7508ED750983780860
:1044CC00121A7B7CFF7DFF7A017B0012061F74069B
:1044DC0012180E8038850882850983A3A3A3A3A391
:1044EC00A312452DEEFAEFFB1210DBE4F50CF50DE3
:1044FC00780C121A7B7402121844121A927CFF7DEB
:10450C00FFAA08AB0912062B740412180E8A088B2A
:10451C0009E508450970BE740212180E7F060219CF
:10452C003A12377712453422E0FCA3E0FD2274F4F2
:10453C001218688A088B09ECFEEDFF901D36E0F42A
:10454C00604B7A097B00121285EA4B60408A828BA1
:10455C008374B1F0A3E412459CF08A828B83A3A3ED
:10456C00E508F0A3E50912459CA3EEF0A3EFF07467
:10457C000C12184412443F8A828B83A3A3A3A3A3D7
:10458C00A3A3123968901D36E0F91212910228A3E8
:10459C00F08A828B83A3A3A3A322C082C0839061E1
:1045AC00907404F0A37448F0A37402F090618074CA
:1045BC0040F09061BC7403F09061877419F09062C4
:1045CC0065741BF0906249E0C3941390619C401099
:1045DC007409F09060667401F090619F7428800DEE
:1045EC00740BF0906066E4F090619F742CF01247AD
:1045FC00917009C29190036D7467800590036D747E
:10460C0061F01247E3902588E493F46006E493F993
:10461C00120A8D7905120DA5024A25C082C083E9C4
:10462C00540FF9906185E0696012E5C654B84441B5
:10463C00F5C6E59E5447644170F8E9F053C6B8E5F9
:10464C009E544770FA024A25C082C083A8A853A87A
:10465C007E906181E4F0A3F0A3F0C2BA539AFEC23B
:10466C0089759B00C2C275E90075910075BF007514
:10467C00A91175B905906181F0A374C0F0A3E4F0A1
:10468C00D2BA439A0174805842A8024A25F0024AD1
:10469C0025C082C08374F81217F890036B125DA3C7
:1046AC00700302478990036BE0544060177908AAA5
:1046BC0018AB19120B9BAA18AB1912080B90036BB1
:1046CC00E054BFF0E054806010790C7A1C7B071228
:1046DC000B9B90036BE0547FF0E0A2E0501E12475E
:1046EC00917009C29190036D7467800590036D748D
:1046FC0061F012081190036BE054FEF0E05402607C
:10470C001E1247D67009D29190036D74718005907A
:10471C00036D746AF012081190036BE054FDF0E025
:10472C005404601090258C1247E612081790036B06
:10473C00E054FBF0E05408601090258D1247E6120F
:10474C00081790036BE054F7F0E05410600D12471B
:10475C00E312081790036BE054EFF0E05420600A6A
:10476C0012081790036BE054DFF0A3E05401600DC6
:10477C00120AAB12081D90036CE054FEF074081280
:10478C00180E024A2590619A1249D89006F6E064F8
:10479C000122C082C083E96005146017802912478A
:1047AC00917009C29190036D7467801A90036D74B7
:1047BC006180131247D67009D29190036D74718089
:1047CC000590036D746AF0024A2590619A1249CAE9
:1047DC009006F6E064012290258EE493906186F0B9
:1047EC002274EA12186874F41217F8908382AC18C9
:1047FC00AD19740412170B90258C93F460030249C5
:10480C005F907808E0C394025003024943908322DE
:10481C00740412185E740812170BA818A9198814BE
:10482C008915740412184E88088909AE08AF0975E9
:10483C0010FF7511FF750EFF7C00750C48750D7817
:10484C00801274086C70030248D974096C607E7411
:10485C000A6C6079850C82850D8378081216B08EEF
:10486C00828F83A909E50AC9F8881274187808128E
:10487C0015CBE5124508F8C3E098A3E099850C82A6
:10488C00850D8378081216B040188E828F837418A9
:10489C0078081215CBE5124508F8E0C398F8A3E0A8
:1048AC00801A741878081215CBE5124508FAE9FB42
:1048BC008E828F831250FAEAC398F8EB99F9C3E809
:1048CC009510E995115006881089118C0E0CE50C89
:1048DC002404F50C5002050DECC39413500302484C
:1048EC004E74FF6510700474FF65116024850E080A
:1048FC00740278081217E574482508F58274783527
:10490C0009F58378081216B0851482851583E5089D
:10491C00F0EE2402FE50010F851482851583A385C9
:10492C008214858315740C121844E5826E7003E5AD
:10493C00836F600302483B75080175090078081203
:10494C001A7B740212185E7A637B09121135740299
:10495C0012180E740C12180E7F0E02193AC082C077
:10496C00839061AE7468F0A3746AF090624574FB36
:10497C00F0A304F053F4FD43FE029006F67401F02C
:10498C009061A0E0643A90619A70191249D8740150
:10499C0064017009C29190036D7467801E90036D61
:1049AC00746180171249CA740164017009D2919024
:1049BC00036D7471800590036D746A024699743F9F
:1049CC00F0A3745AF09061A0747FF0227433F0A3BA
:1049DC007455F09061A0743AF0227F0402193AC029
:1049EC0082C0839006D4E0640170119006DAE06412
:1049FC00016019E07006A3E0640160109006EBE022
:104A0C006401700C9006F1E064017004790C800272
:104A1C0079008005E0F91223FFD083D08202011FB8
:104A2C00E0C4333354C02288828983124FBBA882DE
:104A3C00A983222414F582E438F58322C082C08332
:104A4C009006DE7425F09006DC7401F0A3E4F07A95
:104A5C0001FB120D21124A94241AF582E438F583D5
:104A6C0074CFF0A3740AF09006DBE064017016902A
:104A7C0006DAE070107901120D81120D51120D7BC6
:104A8C007900120D8D024A259006CA124E1D227411
:104A9C00F612186874FA1217F89006D3E0640170D5
:104AAC0008120AB79006D3E4F075E1F1124A942487
:104ABC0015F582E438F5837401F09006D5E06401B5
:104ACC00704B90833EAC18AD19740612170B75D948
:104ADC000D9006CC124A2C4403F5D97582CD758302
:104AEC0006124FB7E58264D37004E583640670F157
:104AFC00A818A919124A337406121844E582687072
:104B0C0003E5836970EE75E19579018002790012F5
:104B1C000D27901D5A124B817437F0A3740CF0A31F
:104B2C00124B81124B81124CEF743DF0A3740C129A
:104B3C004D049006CCE0F97ACD7B06120D0390065D
:104B4C00DEE0F91223FF7901120D2D90837E1216EF
:104B5C00CE120D459083661216CE120D0F790012EF
:104B6C000D99124A94124A3F7416F0900369740519
:104B7C00F00402521C7431F0A3740CF0A32274F7ED
:104B8C001218688908A808E875F00DA4C8AAF02ABC
:104B9C00F9749928FE740339FF9006E3E0F97AE47E
:104BAC007B06120D039006F1E070257900120D635F
:104BBC00EE240CF582EF3401F583E070047900806B
:104BCC00027901EE2406FAEF3401FB120D0980057F
:104BDC007901120D6375E1F175D9239006E3124A40
:104BEC002C4405F5D97582E4758306124FB7E5821E
:104BFC0064EA7004E583640670F175D90075D90018
:104C0C0075D90075D90075D90075D900EE2422121A
:104C1C00507012508F7003E9658370F6EE242612E3
:104C2C00507B2403F8E43583F912508F7003E96547
:104C3C008370F6EE242B125084242C125084242DD5
:104C4C00125084242E125084242F1250842430129B
:104C5C005084243112508424321250842433125044
:104C6C0084245D12507B2405F8E43583F912508FAF
:104C7C007003E9658370F6EE2437125C22541FF83A
:104C8C00EE242A125C22C43354E048F5D975E19520
:104C9C00901D5A7401F0A3740CF0A37407F0A37464
:104CAC000C124CE6740DF0A3740C124D049006F02B
:104CBC00E0F91223FF90837E1216CE120D459083DD
:104CCC00661216CE120D0F90600DE4F07901120DE4
:104CDC00999003697406F0025458F0A3124CEF1229
:104CEC004CEF22124CF32274FBF0A3740BF0A37460
:104CFC00FBF0A3740BF0A322124D0822F0901D6858
:104D0C00124D14A3124D1422124CF374FBF0A37425
:104D1C000BF02274EC1218689006E1125878781097
:104D2C001216B09006F2E0FAF875F00DA4C8ACF0CB
:104D3C002C1259F4FFEE2EFEEF33FF8E0CF50D7591
:104D4C000E00750F0085100885110985120A851350
:104D5C000B9083A278081216167808121A77851011
:104D6C000885110985120A85130B7808790C12161F
:104D7C00037810790C12154BE4F50EF50F780879C1
:104D8C000C12163C8A0C750D007403780C1217E586
:104D9C007808790C1216039083BA7808121677AA41
:104DAC0008AB09AC0AAD0B122397740412180E8AC7
:104DBC00088B09A808A909C3EE98EF995006E82EAC
:104DCC00F8E93FF9E890600EF0E9A3F0EEA3F0EFFC
:104DDC00A3F090600D74C1F07F0C02193AC082C030
:104DEC00839006CA124E099006DE024A20C082C089
:104DFC00839006E1124E099006F0024A20124E1DD5
:104E0C00124E13F0A3F0222406F582E438F583E465
:104E1C0022E0F8A3E0C82202011F74F612186812EF
:104E2C004FC06004780480027800E8240EF8ECC3CC
:104E3C00985003024EF47C0C9006FCE4F0EA2476C5
:104E4C00F582E43BF583E09006FDF0EA2477124E00
:104E5C00F99006FE124F039006FFF0EA2479124EE9
:104E6C00F9900700124F03900701F0EA247B124ED1
:104E7C00F9900702124F03900703F0EA247D124EBB
:104E8C00F9900704124F03900705F0EA2474F8E434
:104E9C003BF98A828B83A3A3A3A3A3E0FEA3E0FF29
:104EAC0088828983E02EF0A3E03F12559690070686
:104EBC00124F03900707124FE460177508FC750931
:104ECC00067808121A7B7903120BEF740212180E73
:104EDC007C1012522AECFE124FB7DEFB75E195796D
:104EEC0004120D4B79018002790002521FF8E43B49
:104EFC00F988828983E02212559BA3E02274F61272
:104F0C001868124FC06004780480027800E8240A04
:104F1C00F8ECC3985003024FB27E089006FC740163
:104F2C00F07CC07D0678FD79067F05124FCEA882F5
:104F3C00A983DFF7EA2480FCE43BFD8A828B83A300
:104F4C00A3A3A3A3E0F508A3E0F5098C828D83E06D
:104F5C002508F0A3E03509F0124FCE08A9838C8206
:104F6C008D83E088828983124FE460197508FC7583
:104F7C0009067808121A7B7C087903120BEF74026D
:104F8C0012180E7E0C74012EF5D975D9037582FC9E
:104F9C00758306EEFF124FB7DFFB75E195790412AE
:104FAC000D4B79018002790002521F124FBB22E097
:104FBC00F5D9A3229061D0E0F87480C398FC124F0D
:104FCC00E922124FD2228C828D83E088828983124F
:104FDC005DE088828983A322F0124FE922EA2483C0
:104FEC00F582E43BF583E02274F7121868EAFEEBD5
:104FFC00FF9061D0E0706875D91875D90375D90325
:10500C00EE249C12509612508F7003E9658370F653
:10501C00EE24A412508424A5125084249412509689
:10502C0012508F7003E9658370F6EE24881250706D
:10503C0012508F7003E9658370F675E1957908EE6F
:10504C002494FAE43FFB120B8F7904EE2488FAE4E3
:10505C003FFB120B8F7904120D4B1251A480027975
:10506C000002545812507B2404F8E43583F922F5DD
:10507C0082E43FF583E58222F582E43FF583E0F597
:10508C00D9EE22124FBBE865822212507B2408F81D
:10509C00E43583F92274F6121868EAFEEBFF9006E9
:1050AC00FC740612514D121A7B7C017903120BEF22
:1050BC00740212180E75D90675D9037582FC7583A6
:1050CC00061251457004E583640770F575E19590FF
:1050DC000369E064087010EE246FF582E43F12500F
:1050EC00F8EE2471125BB1790102521FF583125D47
:1050FC00AF2274F6121868EAFEEBFF9061D0E070F4
:10510C00339006FC740A12514D121A7B7C01790300
:10511C00120BEF740212180E75D90675D90375822D
:10512C00FC7583061251457004E583640770F51213
:10513C0051A18002790002521F124FBBE58264011B
:10514C0022F07508FC75090678082274F6121868A6
:10515C00EAFEEBFF9061D0E0703678019006FC74AB
:10516C000BF0900369E0640770197508FC7509066B
:10517C007808121A7B7C017903120BEF7402121857
:10518C000E78051253EC124FB7DAFB1251A18002C4
:10519C00790002521F75E195EE246F125DA9EE2481
:1051AC0071F582E43FF583E8F0A3E9F0790122740C
:1051BC00F61218681252ED6004780480027800E848
:1051CC00240BF8EAC39840447C099006FC7408123E
:1051DC005239125248DDFB125C1F601B7508FC75BE
:1051EC0009067808121A7B7903EEFAEFFB120BEF23
:1051FC00740212180E7C0D1252241252E570FB75BB
:10520C00E1957904120D4B1251A4800279008003B0
:10521C0012180E7F0202193A12522A8C08227401BB
:10522C002CF5D975D9037582FC75830622F0EE2412
:10523C00E5F8E43FF97AFD7B067D082288828983B4
:10524C00E08A828B8312559BA3A882A9838A828BC6
:10525C0083A3AA82AB832274F61218681252ED60F3
:10526C0004780480027800E82408F8EAC3984064C3
:10527C0078069006FC740CF0900386E09006FDF026
:10528C00900387E09006FEF0900388E09006FFF014
:10529C00900389E0900700F090038AE090070112D8
:1052AC00537C601B7508FC7509067808121A7B7C08
:1052BC00067903EEFA120BEF740212180E780A122A
:1052CC0053761252E570FB75E1957904120D4B1271
:1052DC0051A48002790002521F124FBB1508E50839
:1052EC0022EAFEEBFF9061D0E0F87480C398FA12CA
:1052FC0053812274F61218681252ED6004780480FF
:10530C00027800E82404F8EAC398404B780290062F
:10531C00FCE8F0EE24F7125C229006FD12537C6040
:10532C001B7508FC7509067808121A7B7C02790338
:10533C00EEFA120BEF740212180E78061253761254
:10534C0052E570FB75E1951253687904120D4BEE22
:10535C00240D1251A78002790002521FEE241DF574
:10536C0082E43FF583E4F0A3F0221253F288082282
:10537C00F012538122EE2483F582E43FF583E02280
:10538C0074F6121868124FC060047804800278001A
:10539C00E82404F8ECC398404278029006FC7407A9
:1053AC00F0EA24F8F582E43BF583E09006FD124F19
:1053BC00E460197508FC7509067808121A7B7C02E2
:1053CC007903120BEF740212180E78061253EC12BA
:1053DC004FB7DAFB75E19579018002790002521F13
:1053EC001253F2E8FA22740128F5D975D9037582A3
:1053FC00FC7583062274F7121868E9FFA2AFE43338
:10540C00FEC2AF7C0080010C1254A95010ECF8EADB
:10541C0028F8E43BF9125B0D6F70EC8016EA246EF1
:10542C00F8E43BF9E0FCEA2CFAE43BFB125446EFBF
:10543C00125590EEA2E092AF8012EA246AF582E453
:10544C003BF58322F0EEA2E092AF79007F010219C6
:10545C003AC082C083A2AFE433FDC2AF1254B11480
:10546C00F07C00801DECF8EA28F8E43BF9E8246BAA
:10547C00125B10C0E0E8246AF582E439F583D0E0D1
:10548C00F00C1254A940DEEA246DF582E43BF5835E
:10549C0074FF1254D6EDA2E092AF024A251254B119
:1054AC00F8ECC39822EA246EF582E43BF583E02203
:1054BC00C082C083A8A8C2AF125446E91254D6E8E1
:1054CC00A2E7E433FAE8A2E780CEF0EA2469F58299
:1054DC00E43BF583E4F02274F3121868EAFEEBFF68
:1054EC00ECFAEDFB8A828B83A3A3A3A3E0541FF0F9
:1054FC00EE2436F582E43FF583E4F0750A00EE24E1
:10550C005DFCE43FFD8A828B83E08C828D83F07599
:10551C000B00E50A33333354F8F50C8A828B83E0A5
:10552C00F508750900E50B78081217C6E508A2E026
:10553C005027EE2436F8E43FF988828983E0F50899
:10554C00EE2508F508E43FF509E5082438F582E472
:10555C003509F583E50C125590050B050CE50BC3CD
:10556C00940840B7050A8A828B83A3AA82AB838CEA
:10557C00828D83A3AC82AD83E50AC3940540867FFC
:10558C000502193A12559604F02212559BE022F0AE
:10559C00888289832274F7121868900395E064035B
:1055AC00700302573E7C0075829B758303E0600399
:1055BC00025728ECF875F00DA4C8AAF02AF97499D2
:1055CC0028FA740339FB8A828B83A3A374011257C4
:1055DC0060E4F0EC8A828B83A3A3A3A3F0125D2A70
:1055EC007401F0EA2467F582E43BF58374011257E9
:1055FC005AE4F0A312575AA3A3125770240FF58242
:10560C00E43BF5837401F0EA243512574524181253
:10561C005775241C125745241D125769247F1257A5
:10562C0045247312574524821257452468F582E4A9
:10563C003BF58374801254D6EA246E12574524ED40
:10564C0012574524EE12574524EF12574524F012F9
:10565C00574524F112576924F312576924F612574F
:10566C0045248312574524D312574524D412574549
:10567C0024D512577524D912577524DF1257452497
:10568C00E112574524DD12574524E212574524E315
:10569C0012574524F912576924FB12576924FD123D
:1056AC00576924FF125769240C12574F24061257BE
:1056BC004F240712574F240812574F240912574FE3
:1056CC00240A12574F240B12574F12544774FF7869
:1056DC0004F0A3D8FCEA245DF8E43BF97CC07D0619
:1056EC0012578964C57003ED640670F4EA24E5F87A
:1056FC00E43BF97C7D7D0312578964857003ED646E
:10570C000370F4900395E004F0640170298A828B95
:10571C0083A3A3A3A3E0900397F0801A0CE5822443
:10572C000DF582E5833401F583ECC3940350030239
:10573C0055B97A007B00025458F582E43BF583E4BA
:10574C00F0EA22F582EB3401F583E4F0EA221257F9
:10575C0060A3A322F08A828B83A3A3A322F582E405
:10576C003BF583E4F0A3F0EA22F582E43BF58312E7
:10577C005780EA22E4F0A3F0A3F0A3F022124FD258
:10578C00A882A983EC22C082C0838A828B83A3A3C4
:10579C00A3E0600F8A828B83A3A3A3E4F09003960B
:1057AC00E014F0900395E014F0700690039774FFEA
:1057BC00F08A828B83A3A3E4F09006C5E0700D9071
:1057CC000396E0640170057900120D15024A25C09C
:1057DC0082C083789B790388828983A3E412559BCA
:1057EC00F01259DEE864C27003E9640670E99003B4
:1057FC0095E4F0A3F0A374FFF075E1F1024A25746F
:10580C00F5121868750800750900750A007E997FF5
:10581C00038E828F83A3A3A3E0602BE50845096068
:10582C001D850882850983125878121A8E125874B5
:10583C001216CE12233B740412180EE97008EEF8FF
:10584C00EFF988088909050AEE240DFEEF3401FFF3
:10585C00E50AC3940340BA850882850983A3A3A3F0
:10586C00A3E0F97F0302193A8E828F83125D4DA358
:10587C00A32274EE1218688A0A8B0B8C08890C9080
:10588C000396E0F8E9C39850627AFF7BFF7C0078BE
:10589C0099790388828983A3A3A3E0603F74FF6A8C
:1058AC00700374FF6B700CE82473125B106401704E
:1058BC00218012E82473125B106401700DE82479C6
:1058CC001259E75017E82479800BE8242E1259E777
:1058DC00500AE8242E125B10FAA3E0FB0C1259DEDE
:1058EC00ECC3940340ADEAFEEB8018E96010A3E032
:1058FC00F875F00DA4C8AAF02A1259F48005EA2A0A
:10590C00FEEB33FF8E0E8F0F7403780E1217D690AA
:10591C000396E0F8C3E50E98E50F94005003025986
:10592C00CAE50A25E0F50AE50B33F50BE50825E099
:10593C00F508ED33F509AC0AAD0B8007EC2402FC3D
:10594C00E43DFDC3E5089CE5099D4060C3EC9EED7C
:10595C009F403FECF8EDF9EEFAEFFB12176D8B0F51
:10596C00EA450F60068E0E8F0F8006750E00750FC0
:10597C0000ECF8EDF9EEFAEFFB12176D8A108B11B3
:10598C00EC9510F8ED9511F9E8250EFCE9350FFDB5
:10599C00801AE0F8E50CC3985012EEF8EFF9ECFA27
:1059AC00EDFB12176D8B0FEA450F7090C3EC950A47
:1059BC00ED950B4009C3E5089CE5099D50067AFF5F
:1059CC007BFF8009ECFAEDC313FBEA13FA7F0A02A2
:1059DC00193AE8240DF8E93401F922F582E439F595
:1059EC0083C3E09AA3E09B22F974C728F582740361
:1059FC0039F583E0FEA3E02274F612186874FC12E9
:105A0C0017F8EAFEEBFF8044EE2463F8E43FF97AE2
:105A1C00007B00A2AFE433F508C2AF88828983E033
:105A2C00FCA3E0FDEC4D600F125D68700A88828962
:105A3C0083A3A3E4F0A3F0E508A2E092AF1212E571
:105A4C009006C6E004F09006C7E004F0EE2463F57F
:105A5C0082E43FF583125DA370AE9006C7E060351B
:105A6C008E828F83A3A3A3A3E0851882851983F06C
:105A7C00A3E4F09006C7E0F87402121844E8F0A30F
:105A8C00E4F0740212185EAA18AB19790112087DA1
:105A9C009006C7E4F0EEFAEFFB120B3BEEFAEFFBCD
:105AAC00120C73740402521C74F7121868EAFEEBA1
:105ABC00FF8E828F83A3A3A3A3E0FA7B001208536B
:105ACC00EEFAEFFB120B53120C55025458C082C065
:105ADC00837A007899790388828983A3A3A3E060F1
:105AEC0011E8246E125B106009125B0D70047901D1
:105AFC00800C0A1259DEEAC3940340DB7900024A97
:105B0C0025E8246AF582E439F583E022C082C0835B
:105B1C00E490037D7808F0A3D8FC90037D04024642
