:020000040000FA
:060000000201070221B11C
:03002B0002243B71
:0300330002241D87
:03003B000224613B
:030043000223D1C4
:030053000222275F
:03006B000223F776
:10008300022007E5C754F84401F5C77901220000AF
:100093000080FB120086B900030200F1E4791A78AC
:1000A30002B800028004F709D8FCE4791C7802B88E
:1000B30000028004F709D8FCE490028178BC791A25
:1000C3008002F0A3D8FCD9FA7A3C7B1C90013778E4
:1000D300DB79018015E493A3AD82AE838A828B839F
:1000E300F0A3AA82AB838D828E83D8E9D9E7758288
:1000F3009C7583D9740312011975829175830074F9
:100103000012011975D00075813F751881751902A8
:10011300759F00020096C09FF59FE473D09F22D085
:1001230083D082C09FE493C0E0740193C0E0740263
:1001330093F59F22B503C103F703F103FF0000B456
:10014300000028002800283075A000A000A000A00F
:100153000000080008E001F000100010001000107B
:10016300001000100050005000500010001000D08C
:10017300070000000000000F0001000500307507B4
:10018300001000010081FF00000000FFFFFF0202DA
:1001930002BD83010000AA8302C383010000961CF1
:1001A30002B983010000B80202C383010000971C57
:1001B30002B583010000CE02FFFF0100FF2002BD54
:1001C30083010000AD8302C383010000C51C02C983
:1001D30083000000000002C783030000FA02170037
:1001E300FB0BFB0BFB0BFB0BFB0BFB0BFB0BFB0BDC
:1001F300FB0BFB0BFB0BFB0BFB0BDB0DF90DD50D0E
:1002030001E803057710020AFFFFFF00FEFF12015A
:100213002232C50312012245C50312012266C5031A
:10022300120122D1C50312012212C6031201223385
:10023300C60312012254C60312012295C6031201FA
:10024300222DC70312012275C703120122C6AF0371
:10025300120122D9AF031201220AB0031201224470
:10026300B0031201229DB003120122E4B003120174
:10027300222CB1031201225BB1031201228AB103C2
:10028300120122C1B10312012208B2031201222179
:10029300B20312012276B203120122A4B2031201A5
:1002A30022DEB20312012205A70212012208A802CC
:1002B30012012235A80212012286A802120122A9E4
:1002C300A802120122BBA802120122BEA802120137
:1002D30022FCA80212012270A902120122DCA90247
:1002E300120122A4AA02120122CAAA0212012204A2
:1002F300AB021201229BAB02120122EDAB021201EF
:10030300221EAC0212012221AC0212012252AC02C3
:100313001201225FAC0212012277AC02120122E128
:10032300AC02120122E4AC02120122F1AC0212016E
:1003330022F4AC021201224BAD021201225CAD0287
:1003430012012295AD0212012298AD021201229BE5
:10035300AD02120122FDAD0212012200AE02120112
:100363002254AE021201229DAE02120122ADAE0250
:10037300120122E0AE02120122EDAE02120122F0BE
:10038300AE0212012258AF021201225AB002120128
:1003930022FEB00212012267B102120122A5B102AC
:1003A30012012297CF021201228FD002120122C31F
:1003B300D00212012259D102120122A4D102120148
:1003C3002208D20212012292D2021201224BD3023C
:1003D3001201226DD602120122EAD7021201220D66
:1003E300D802120122FC9703120122A199031201E0
:1003F30022C19903120122E29A03120122359B03BF
:100403001201225CA00312012284A003120122B173
:10041300A003120122E9A00312012247A103120142
:100423002293A103120122FAA1031201223AA20389
:1004330012012277A203120122A5A2031201224F65
:10044300A30312012259A30312012266A30312017B
:100453002299A303120122A5A303120122BDA30320
:10046300120122C7A30312012291D6031201229F74
:10047300D603120122B7D603120122CFD6031201EB
:1004830022E6D60312012201D801120122ABD801C0
:1004930012012227D90112012245DA011201228118
:1004A300DA011201221CDB0112012200DC0112011C
:1004B30022C3DC011201223BDD01120122C9DE014C
:1004C3001201223ADF01120122F4DF01120122E6B6
:1004D300E00112012226E101120122DAE1011201F7
:1004E300220CE20112012202E40112012244E4017E
:1004F30012012262E401120122E7E401120122AB9C
:10050300E501120122CAE70112012242A8031201E6
:100513002258A80312012276A80312012287A903F5
:1005230012012291A903120122BCAA03120122B3D0
:10053300AB0312012220AC031201220A850312012C
:1005430022AE8503120122E585031201223C8603B4
:10055300120122518803120122CD83011201227E4E
:1005630084011201228E84011201222485011201C9
:10057300226185011201226B8501120122A78501E7
:10058300120122B28501120122888601120122651D
:100593008701120122C2870112012252880112012E
:1005A30022098901120122178C01120122068E01F0
:1005B300120122B88E01120122818F01120122C67B
:1005C30092011201227093011201229994011201E6
:1005D30022559601120122F5960112012243970139
:1005E30012012282970112012255980112012289D8
:1005F3009801120122169901120122CCC5011201A0
:100603002258C601120122BCC701120122C8C70128
:1006130012012203C80112012272C8011201227BB6
:10062300C90112012284CA011201224BCB0112011A
:1006330022A8CC01120122C6CC01120122E3CC0173
:10064300120122AECD01120122D6CD01120122A048
:10065300D001120122A5D001120122BED201120142
:10066300220CD3011201227CD301120122BAD3013D
:1006730012012296D40112012256D501120122A29F
:10068300D501120122A5D501120122E9D5011201DA
:100693002231D60112012270D60112012292D60113
:1006A300120122C6D60112012229D701120122000A
:1006B3008003120122098003120122178003120111
:1006C300226A8003120122898003120122CE800351
:1006D300120122128203120122AD8203120122F1BE
:1006E30082031201221B83031201228A8303120154
:1006F30022D08303120122478403120122F88403C8
:10070300120122D42400120122E4240012012285C2
:100713002500120122E125001201229E260012016A
:1007230022BA2700120122EC27001201221B280003
:10073300120122C829001201223F2C00120122AF0C
:100743002E00120122A12F001201229A3000120161
:1007530022A13200120122953500120122C4360073
:10076300120122C83800120122D83900120122676F
:100773003B00120122583C00120122A63C00120148
:1007830022153D00120122393D001201228A3D004B
:100793001201222B42001201222C43001201228D4E
:1007A3004300120122B843001201227E44001201C9
:1007B3002255A4031201225FA403120122A4A4035D
:1007C300120122B8A40312012248A50312012270C8
:1007D300A503120122ABA503120122D4A503120122
:1007E3002208A6031201221DA60312012288A603D2
:1007F300120122A9A603120122BDA603120122D2CD
:10080300A6031201220CA70312012271A7031201EE
:1008130022B4A703120122DEA7031201221AA8039E
:1008230012012283D303120122159C02120122F822
:100833009C02120122739D02120122AE9D0212013B
:1008430022FF9E02120122889F02120122A0A1020E
:1008530012012232A402120122E4A4021201220391
:10086300A6021201225CA6021201222EFA02120132
:100873002271FA02120122F5FA02120122C8FB02C6
:100883001201229FFE0212012223C003120122D071
:10089300C003120122DDC1031201221CC203120193
:1008A3002276C2031201226FCB03120122D2CB03A1
:1008B3001201226FCC031201229DCC03120122BE2E
:1008C300CC03120122F9CC0312012219CD03120128
:1008D30022008A031201228C8A031201224B8B030A
:1008E300120122638C031201227D8E03120122E383
:1008F300C50212012208C602120122DCC60212013D
:100903002249C7021201229FC7021201223BC802D9
:100913001201226FC9021201224ACA02120122A93C
:10092300CA021201227ACB0212012206CC02120160
:100933002209CC0212012253CC02120122C5CC029D
:1009430012012270CD0212012290CD02120122D88F
:10095300CD02120122F4CD021201226ECE02120147
:10096300227CCE021201220BCF0212012274CF028B
:10097300120122669303120122EB93031201222D2B
:1009830094031201221195031201227E9503120191
:1009930022C2950312012206960312012233960303
:1009A3001201225B9603120122939603120122D1B4
:1009B3009603120122F89603120122729703120181
:1009C30022BC97031201222F5D00120122FC5E005C
:1009D300120122EA60001201223E61001201226923
:1009E3006100120122176200120122476200120104
:1009F30022766200120122896200120122CA620079
:100A0300120122F662001201224463001201227BCA
:100A13006300120122C7630012012226640012013F
:100A230022B96400120122A365001201229266001A
:100A3300120122726800120122916D00120122EA52
:100A43006D00120122D36F00120122A27100120164
:100A53002224720012012272730012012283730096
:100A6300120122C1C203120122ACC303120122EFFD
:100A7300C3031201223EC4031201228FC4031201D5
:100A830022E0C403120122EA44001201226B450052
:100A9300120122984500120122E14500120122E2CF
:100AA3004600120122314700120122AD4800120113
:100AB300222F49001201228C4900120122DF490032
:100AC300120122CE4A00120122634C001201222D90
:100AD3004D001201223D4D00120122674D0012010B
:100AE300226A4D001201224D4E00120122384F009E
:100AF300120122E54F001201224250001201229BF3
:100B03005000120122FF5000120122A751001201CE
:100B130022435200120122D05200120122455300F7
:100B2300120122A1530012012200540012012227B4
:100B33005400120122E55400120122D6560012017C
:100B4300221F57001201224F5700120122C25700E1
:100B5300120122485900120122F859001201221DE4
:100B63005A001201225C5A00120122715A0012012A
:100B730022B45A00120122245B001201226E5B0090
:100B8300120122785C00120122F95C001201222377
:100B9300BC021201226EBC021201227ABC021201B3
:100BA300224EBD0212012265BD02120122A2BD0224
:100BB300120122D3BD021201220BBE0212012261D5
:100BC300BE0212012277BE02120122B3BE0212013B
:100BD30022C6BE02120122EDBE0212012221BF0271
:100BE30012012247C00212012291C1021201228D79
:100BF300C202120122AAC302120122F97F001201CA
:100C03002201F502120122AFF802120122E3F902D6
:100C1300120122A673001201226976001201226FCB
:100C230076001201222C7900120122867B00120128
:100C330022B48E031201224B8F0312012209900367
:100C43001201223390031201226992031201220C32
:100C53009A01120122479A011201229BA401120157
:100C63002207A60112012204A70112012289AA0167
:100C73001201226FAB01120122BBAB01120122D57B
:100C8300AB0112012216AC011201221FAC011201A9
:100C930022CFAC011201229FAD01120122E6AD0168
:100CA3001201224CAE01120122BEAE011201220A30
:100CB300BD03120122E7BD031201222BBE03120161
:100CC3002265BE03120122FDBE031201226CBF0383
:100CD30012012275BF0312012281BF031201229B5D
:100CE300BF03120122C5BF03120122F5BF03120184
:100CF30022F9E80212012206E90212012220E90286
:100D030012012253E90212012291E902120122F691
:100D1300E9021201220BEA0212012222EA02120163
:100D23002230EA021201223FEA0212012254EA02AD
:100D330012012269EA0212012274EA0212012280DC
:100D4300EA021201228DEA021201229CEA02120136
:100D530022A7EA02120122CCEA0212012270EB025C
:100D630012012285EB021201229AEB02120122B434
:100D7300EB02120122D1EB02120122EEEB0212016D
:100D830022F9EB02120122A5EC0212012286ED02E6
:100D9300120122ABED02120122B6ED02120122CBA7
:100DA300ED02120122DFED0212012240EE021201D6
:100DB3002246EE021201224CEE0212012252EE02F0
:100DC3001201226AEE021201229DEE02120122CBCF
:100DD300B102120122EDB102120122B5B2021201D7
:100DE300226FB50212012285B602120122A6B702B2
:100DF30012012280B8021201222FB902120122929B
:100E03008E02120122298F02120122C18F021201C6
:100E130022B19002120122E89002120122FB9002F9
:100E23001201226991021201220493021201222B60
:100E33009302120122CD93021201220294021201A3
:100E4300221394021201228C9402120122AD940205
:100E5300120122C594021201221D960212012226BA
:100E63009802120122769A02120122799B02120140
:100E730022C89B02120122008002120122FD80027D
:100E8300120122E88102120122F2810212012214CC
:100E930082021201222082021201227283021201B3
:100EA30022A18302120122D184021201221385029C
:100EB3001201223F860212012215870212012267C4
:100EC3008702120122C68702120122FD8702120144
:100ED30022388802120122D38B02120122EC8B02E8
:100EE3001201226E8C021201227C8C02120122D189
:100EF3008C02120122DF8C021201224C8D0212019C
:100F030022BE8D02120122048E0212012227CD037A
:100F13001201224CCD03120122BDCD03120122BFC7
:100F2300F601120122C8F601120122D1F6011201C3
:100F33002202F80112012221FA0112012257FA01B9
:100F430012012291FA01120122C7FA0112012201B0
:100F5300FB0112012235FB0112012261FB01120187
:100F630022AAFB01120122E4FB011201222CFC0143
:100F730012012282FC01120122B7FC01120122128A
:100F8300FD011201224CFD011201229DFD011201FE
:100F930022D3FD011201220DFE0112012230FE01B6
:100FA30012012251FF021201227DFF02120122D8F7
:100FB300FF02120122E2FF02120122F2FF021201DA
:100FC300221FEF021201225EEF02120122E7EF025B
:100FD300120122FCEF0212012247F0021201227BCE
:100FE300F002120122C1F002120122D0F00212011A
:100FF3002285F102120122DEF1021201222DF202F8
:1010030012012286F20212012293F3021201228CB0
:10101300F402120122C9F402120122997F00120183
:10102300220AB0011201228AB201120122FEB30187
:101033001201225BB40112012204B5011201220143
:10104300B60112012289B60112012215B70112015C
:10105300223AB7011201228AB7011201222BBA01E7
:101063001201229CBA0112012288BB01120122C281
:10107300BB0112012202BC01120122A2BD01120115
:1010830022D3BD0112012228BE0112012275BE0125
:10109300120122E6BE0112012209BF01120122231D
:1010A300BF0112012239C00112012249C0011201FC
:1010B30022DAC101120122FAC10112012230C20156
:1010C300120122B4C3011201222DC4011201226CA8
:1010D300C4011201229EC501120122A2C9031201F9
:1010E3002206CA03120122B5CA03120122D4CA037B
:1010F30012012228CB0312012276D7031201228781
:10110300D703120122EFD9031201222EDA031201AF
:10111300220ADB031201222AD8031201223AD8033E
:1011230012012255D803120122BDD80312012297BE
:10113300D4031201221BD50312012281D50312010C
:101143002205D2031201222ED2031201229BD203C3
:10115300120122EFD20312012248D303120122DB30
:10116300B903120122F0B90312012214BB031201C5
:10117300227EBB03120122F2BB031201220CBC0329
:1011830012012223BC0312012236BC031201224E98
:10119300BC0312012263BC0312012284BC031201AB
:1011A30022D5BC031201222AAC0312012241AC0353
:1011B300120122BAAC031201228FAD031201226184
:1011C300AF03120122A1B60312012233B7031201A6
:1011D30022B1B70312012238B803120122CAB8039D
:1011E30012012221B9031201222BB9031201223A5F
:1011F300B90312012250B90312012263B903120188
:1012030022C4B903120122D8B903120122BEFE017E
:1012130012012228FF0112012233FF01120122438E
:10122300FF011201224EFF011201226AFF01120186
:10123300227BD003120122A4D003120122CDD003BA
:1012430012012266D1031201227ED103120122C0B0
:10125300D10312012230D9021201223AD90212011A
:10126300227AD902120122C3D902120122FDD90224
:1012730012012253DA0212012272DA02120122F758
:10128300DC0212012200DD0212012251DD021201F1
:10129300227ADD021201228FDD02120122FFDD021A
:1012A3001201228DDE02120122D1DE02120122F985
:1012B300DE0212012278DF02120122BBDF021201D9
:1012C30022F8DF021201220AE00212012229E002BF
:1012D30012012232E002120122F7E002120122DDA2
:1012E300CE031201222ECF03120122B7CF03120124
:1012F300221DD00312012246B30312012270B3034D
:101303001201226AB4031201228FB40312012230A4
:10131300B503120122B6B5031201229AD5031201B5
:1013230022A0C703120122D6C7031201220FC8034A
:1013330012012268C903120122C7D803120122DD58
:10134300D803120122E7D8031201223DD903120167
:101353002223E102120122E0E1021201221BE20236
:1013630012012243E202120122A5E202120122F13A
:10137300E2021201225CE302120122D8E30212010B
:1013830022D4E4021201225BE602120122DEE6020B
:1013930012012242E70212012259E7021201224FEF
:1013A300E8021201229BE802120122429C0312016D
:1013B30022579C031201220A9D031201224A9D0314
:1013C300120122639D03120122969D03120122E35F
:1013D3009D03120122179E03120122599E0312013B
:1013E300224FA003120122D7E701120122F4E801E0
:1013F30012012295E901120122D2EB011201223ED0
:10140300EE0112012261EE0112012253F1011201D8
:1014130022A5F10112012233F20112012295F301F7
:1014230012012230F401120122B1F4011201223817
:10143300DA03120122B5DA031201227EDA03120162
:1014430022E1DA03120122E2FF01E066701008A331
:10145300E066700A08A3E066700408A3E06622C38E
:10146300E7960809E7960809E7960809E79622C36D
:10147300E09608A3E09608A3E09608A3E09622C0AE
:1014830008C3E096F50808A3E096420808A3E0968F
:10149300420808A3E09645087001D3D00822080843
:1014A30008EAC0E0EBC0E086F0E7A4FA180986F08A
:1014B300E7A42AFA180986F0E7A42AFA180986F09D
:1014C300E7A42AFA1986F0E7A4FBE5F02AFA19083B
:1014D30086F0E7A42BFBE5F03AFA190886F0E7A4B7
:1014E3002BFBE5F03AFA18180986F0E7A4C5F02BB0
:1014F300FBE43AFA1908E7C5F0C6A426F6E5F03B83
:10150300FBE43AFA1886F0E7A4F6E5F00826F6E4D9
:101513003B08F6E43A08F6D0E0FBD0E0FA22E4CF49
:10152300C0E0E4CEC0E0E4CDC0E0E4CCC0E075F0C0
:1015330020E626F608E633F608E633F608E633F641
:10154300181818EC33FCED33FDEE33FEEF33FFC315
:10155300EC9709ED9709EE9709EF97191919400FC1
:10156300FFEC97FC09ED97FD09EE97FE191906D5D7
:10157300F0BFECF709EDF709EEF709EFF7191919C1
:10158300D0E0FCD0E0FDD0E0FED0E0FF2260160802
:101593000808C6C313C618C613C618C613C618C68A
:1015A30013C6D5E0EA227009080808226016181845
:1015B30018C6C333C608C633C608C633C608C633FF
:1015C300C6D5E0EA22E627F60809E637F60809E673
:1015D30037F60809E637F622E026F608A3E036F6E2
:1015E30008A3E036F608A3E036F622E026F008A3C7
:1015F300E036F008A3E036F008A3E036F022C3E6B5
:1016030097F60809E697F60809E697F60809E697B4
:10161300F622C3E096F008A3E096F008A3E096F064
:1016230008A3E096F022E657F60809E657F60809FC
:10163300E657F60809E657F622E056F608A3E05601
:10164300F608A3E056F608A3E056F622E056F008A3
:10165300A3E056F008A3E056F008A3E056F022E01A
:1016630066F608A3E066F608A3E066F608A3E0665C
:10167300F622E0F608A3E0F608A3E0F608A3E0F6F6
:1016830022E6F008A3E6F008A3E6F008A3E6F022BA
:10169300E0FAA3E0FBA3E0FCA3E0FD22EAF0A3EB66
:1016A300F0A3ECF0A3EDF022E0F8A3E0F9A3E0FA55
:1016B300A3E0FB22E8F0A3E9F0A3EAF0A3EBF02216
:1016C300CAC0E0E6F0A308DAFAD0E0FA22CAC0E022
:1016D300E0A3C582CCC582C583CDC583F0A3C582F3
:1016E300CCC582C583CDC583DAE6D0E0CA22C3E484
:1016F30098F8E499F91217328026C3E49AFAE49B26
:10170300FBE920E7E9121732E498F8E499F922C3D8
:10171300E498F8E499F9121732E498F8E499F9C3D4
:10172300E49AFAE49BFB22EB20E7CFE920E7E0B958
:101733000010BB0008E88AF084F8AAF022E4FBC892
:10174300FA22EB70227B10C833C8C933C933500760
:10175300C39AC3DBF280069A50012ADBEAC833F44A
:10176300C8C933F4C9FA2275F008E4C833C8C933C9
:10177300C933C99AC99B5004C92AC93BD5F0ECFBAC
:10178300C833F4C8E4C9FA22600D08C6A2E713C639
:1017930018C613C6D5E0F322600C08C6C313C618D7
:1017A300C613C6D5E0F422700422600D18C6C333F5
:1017B300C608C633C6D5E0F41822251810AF08F5BD
:1017C30018400C15198008F51840021519D2AF22DC
:1017D30000C0D0251810AF08F518500C0519800863
:1017E300F51850020519D2AFD0D0222518F5821072
:1017F300AF08F518400C15198008F51840021519A3
:10180300D2AF851983222518F582E43519F5832291
:101813002518F8E43519F9222518FAE43519FB22BD
:101823002518FCE43519FD22E4732518C582C0E0B0
:10183300E51934FFC583C0E0E518C3958224F81089
:10184300AF088583198582188008858319858218D6
:10185300D2AFCEF0A3E520F0A37808E608F0A3DE2C
:10186300FAEFF0A3E58124FAF8E608F0A3E608F01E
:10187300A3E608F0A30808E608F0A3E608F0A3151A
:10188300811581D0E0FED0E0F8158115811581E83E
:10189300C0E0EEC0E0222518C582C0E0E51934FFA0
:1018A300C583C0E0E518C3958224F910AF0885838A
:1018B300198582188008858319858218D2AFCEF0E6
:1018C300A3E520F0A37808E608F0A3DEFAEFF0A37F
:1018D300E58124FBF8E608F0A3E608F0A30808E690
:1018E30008F0A3E608F0A315811581D0E0FED0E04F
:1018F300F815811581E8C0E0EEC0E02285198385E3
:101903001882E0A3FEE0A3F5207808E0A3F608DF41
:10191300FAE0A3FFE0A3C0E0E0A3C0E0E0A3C0E0DF
:10192300E0A3C0E0E0A3C0E010AF08858218858380
:10193300198008858218858319D2AFD083D082029B
:10194300011F851983851882E0A3FEE0A3F52078A3
:1019530008E0A3F608DFFAE0A3FFE0A3C0E0E0A3FA
:10196300C0E0E0A3C0E0E0A3C0E010AF08858218A8
:101973008583198008858218858319D2AFD083D0D7
:101983008222C0D02518C582C0E0E51934FFC58383
:10199300C0E0E518C3958224F310AF088583198549
:1019A30082188008858319858218D2AFC8F0A3E90D
:1019B300F0A3EAF0A3EBF0A37908E709F0A3D8FAC0
:1019C300ECF0A3EDF0A3EEF0A3EFF0A3D0E0F0A3CF
:1019D300D0E0F0A3D0E0F0A3E520F0A3E5F0F0A37E
:1019E30022851983851882E0C0E0A3E0F9A3E0FA19
:1019F300A3E0FBA37808E0F608A3DFFAE0FCA3E08A
:101A0300FDA3E0FEA3E0FFA3E0C0E0A3E0C0E0A3EA
:101A1300E0F5D0A3E0F520A3E0A3F5F010AF08852F
:101A230083198582188008858319858218D2AFD0DF
:101A330082D083D0E0F8D0E0327404800674028050
:101A4300027401C0E0F4041217EED0E01216C322B0
:101A53007404800474028000CCC0E0EDC0E0E5189B
:101A6300C39CCCAD1950011D10AF068C188D198085
:101A7300068C188D19D2AF1216D0D0E0FDD0E0FC41
:101A830022D083D082E9C0E0E493A3C386F0C5F0FB
:101A930095F0F908E493A386F0C5F095F0700BE494
:101AA30093A3C3994005E9048002A3E475F002A45B
:101AB3002582F582E5F03583F583D0E0F9E493A33D
:101AC300C0E0E493C0E022D083D082ECC0E0EDC05C
:101AD300E0E493A3FCE493A3FDED4C600D121B160D
:101AE300EC24FFFCED34FFFD80EFE493A3FCE493CF
:101AF300A3FDED4C600D121B55EC24FFFCED34FFF0
:101B0300FD80EFD0E0FDD0E0FCE493A3C0E0E493DC
:101B1300C0E022C0E0C3E493960874019396184092
:101B23000FE49366700808740193661870007019C7
:101B3300A3A3C3E49396087401939618A3A3400D3B
:101B4300D0E0D0E0D0E0021B06A3A3A3A3A3A3D0BD
:101B5300E022C0E0C0F088F0E493667008087401E6
:101B63009366187000A8F0A3A3700BD0F0D0E0D058
:101B7300E0D0E0021B06A3A3D0F0D0E02274F6125B
:101B83001899EAFEEBFF8C088D09EE2434F8E43F44
:101B9300F9E8FCE9FDEE2435121E4CFAEE24371267
:101BA3001E4CF88508F0A4C885F00A8509F0A42521
:101BB3000AF9EA28F8E439F97A257B00121732EAA0
:101BC3008C828D83F0FA131313541FF8EE28F8E474
:101BD3003FF9E8245DF582E439F583E0C0E074075A
:101BE3005AF8D0E0B800028004C313D8FCA2E0EE98
:101BF30050082434F582E43F80182436121E4CF535
:101C0300F0EA84A8F0EE28F8E43FF9E82438F582F6
:101C1300E439F583E0F97F0302194574F712189943
:101C2300EAFEEBFFEE2434121E4CC0E0EE2435F541
:101C330082E43FF583D0E0F08E828F83A3A3A3A336
:101C4300A3A3A3C082C0838E828F83A3A3A3A3A3D2
:101C5300E0F8A3E0F9D083D082E0C398F508A3E0CD
:101C630099F509EE247F121E4C6401703EEE248028
:101C7300F582E43FF583C082C0838E828F83A3A362
:101C8300A3A3A3E0240108A3E03400F9D083D08206
:101C9300E0687003A3E06970127CC07D06120B2F0D
:101CA300EE247FF582E43FF583E4F0AC08AD09EE62
:101CB300FAEFFB121B80E9F91223C37F02021945D5
:101CC30074EF121899900369E064086005E06407F3
:101CD300702A9061C8E06024900397E0F4601DE0EF
:101CE300F875F00DA4C8AAF02AF9749928FE7403B4
:101CF30039FF8E828F83A3A3A3E07003021DD190CB
:101D03006060E0C0E0EE2468F582E43FF583D0E054
:101D1300F0750CFC750D06750800750900E5D914FE
:101D2300F50AE5D95403F50E60127403650E60439A
:101D3300E50A600AEE2467121E4C70028075900655
:101D4300F7E06401601F121E4960047A0480027A7E
:101D530000E50AC39AFA95E0FB1209D98A088B09B0
:101D6300EA45097005120DB18064121E4970048A98
:101D73000C8B0DE50A6012850C82850D83F50BE54E
:101D8300D9F0A3150BE50B70F6121E49604474FCE1
:101D9300250AF50A780C121A40AC0AA90EEEFAEFDE
:101DA300FB120BF574021217D3E97026AA08AB09CC
:101DB3001212E5793D8E828F83A3A3A3A3E0FA7B5E
:101DC30000120853EEFAEFFB120B53120C55790075
:101DD300806F7403650E6051850A107511007810C9
:101DE300121A40AC0CAD0DAA08AB09120BB9740260
:101DF3001217D3EE2468121E4C64807004747F8023
:101E030001E0F50C780C121A44E50EF50C780C126F
:101E13001A44A90AAC08AD09900397E0FA7B0012B3
:101E2300082374021217D38013900369E0640870C7
:101E33000BAC0CAD0DEEFAEFFB120C25120DBD79B8
:101E4300017F0A021945EE2483F582E43FF583E01E
:101E53002274F212189974FC1217BDEAFEEBFF8983
:101E630009A2AFE433F508C2AF021F1EE0601B787E
:101E73000C121A40AC0BA90EEEFAEFFB120BEF7427
:101E8300021217D37404250BF50B7401250BF5D936
:101E9300850ED9E50B6018F50A850C82850D83E064
:101EA300F5D9A385820C85830D150AE50A70EA75B9
:101EB300E195EE2463F8E43FF97A007B00A2AFE4F6
:101EC30033F50BC2AF88828983E0FCA3E0FDEC4DC0
:101ED300603A88828983E0FAA3E0FB8A828B83E0FD
:101EE300FCA3E0FD88828983ECF0A3EDF08A828B6A
:101EF30083E4F0A3F088828983E0FCA3E0FDEC4D4A
:101F0300700A88828983A3A3E4F0A3F0E50BA2E01F
:101F130092AF1212E59006C7E004F0EE2463121E9E
:101F23004CF8A3E0F9E8496064EE2463121E4C24E4
:101F330002F8A3E03400F988828983E5822402F55C
:101F43000CE43583F50DE0F50BA3E0F50EEE24620A
:101F5300121E4C640170369061D0E0F8121E496085
:101F6300047C0480027C007480C398FA95E0FBE54E
:101F73000B2CF8E43400F9E82402F8500109C3EA11
:101F830098EB99A2D265D0334003021E6F9006C727
:101F9300E0604D9006C8E0F89006C7E0C398500C87
:101FA30074026509703A9006C9E060348E828F83AB
:101FB300A3A3A3A3E0851882851983121FF37402D8
:101FC300121809E8121FF39006C6E028F0740212F3
:101FD3001823AA18AB19790112087D9006C7E4F0FB
:101FE300E508A2E092AF74041217D37F07021945E4
:101FF300F0A3E4F09006C7E0F822000000851A87FA
:10200300851BC622C0E074EB121985A2AFE433F539
:1020130008C2AF759B00906182E0A2E05030E59169
:10202300A2E0502A7591FE7401651A702112219A5B
:10203300120CE5122188121A531222FF740412178C
:10204300D3E9640170057901120D15121CC3906167
:1020530082E0A2E5505DE591A2E550577591DF90CE
:102063000369E064076005E06408702F12219A7425
:1020730001651A703E120CE5122188121A531222BE
:10208300FF74041217D3E9640170057901120D1569
:102093007901EEFAEFFB121E548018E0640D701301
:1020A30090038BE004F064287002E4F07A00E0F916
:1020B300120DC3906182E0A2E6400302215DE59127
:1020C300A2E6400302215D7591BF900369E06405B8
:1020D3007008120CCD120CD98003120CD3751A00A0
:1020E300120D33E990036AF07900120D15120A9963
:1020F3007A017B00900368E0F91212B5907803E04F
:10210300644270569006FBE014F0704EC2AF122189
:102113001400781DD0E0F618D0E0F6E59F5407F8D8
:102123007005750DFF8003750D7FC4C0E0781CE654
:10213300F50A08E6550DF50B740B780A12179BD0B8
:10214300E0250AF8906270E0A2E740F8E8C3339014
:102153006272F0906270E0D2E0F0906181E0A2E3FD
:102163005009E5E9A2E3500375E9F7A3E0A2E750BC
:1021730009E591A2E7500375917FE508A2E092AFCC
:102183007F080219E48E828F83E0F8A3E0C8241647
:10219300F582E438F58322900397E0F875F00DA4F7
:1021A300C8AAF02AF9749928FE740339FF22C0E003
:1021B300C0D0C082C083906183E0A2E05009E5BF34
:1021C300A2E0500375BFFEE0A2E15009E5BFA2E122
:1021D300500375BFFDE0A2E25009E5BFA2E2500340
:1021E30075BFFBE0A2E35009E5BFA2E3500375BF4F
:1021F300F7E0A2E45009E5BFA2E4500375BFEFE0A6
:10220300A2E55009E5BFA2E5500375BFDFE0A2E6F2
:102213005009E5BFA2E6500375BFBFD083D082D07B
:10222300D0D0E032C0E074F2121985E5A7A2E650DF
:102233000FE5A1A2E6500953A7BF75A1BF12227BE8
:10224300E5A7A2E5500CE5A1A2E5500653A7DF756B
:10225300A1DFE5A7A2E15009E5A1A2E1500375A121
:10226300FDE5A7A2E2500CE5A1A2E2500653A7FBAD
:1022730075A1FB7F010219E474F7121899751A010D
:10228300900369E064067015120C798A828B83A32C
:10229300A3A3A3A3A3E0FAA3E0FB120CBBA2AFE4A6
:1022A30033FED2AF90036FE0640170187A207B0095
:1022B300900368E0F91213CF7A207B00900368E063
:1022C300F91212BB906182E0D2E6F09006F8E0606A
:1022D3002185C61B801690036EE064017008E5C675
:1022E30054F84405F5C653BEFC1220007401651A68
:1022F30060E4EEA2E092AF7F0202194574F1121876
:10230300998A088B098C0A8D0B90834E78081216D4
:102313003C740F121809780C12167590834E780CC2
:1023230012163C7808790C12146290836E50107860
:1023330008790C12160178081214824014800E7862
:102343000C7908121601780C12148250047901805A
:102353000279007F0802194574ED1218998A088BD7
:10236300098C0A8D0B90834E780812163C74131255
:102373001809780C12167590834E780C12163C7857
:102383000C790812146240117808790C121601AA0C
:1023930008AB09AC0AAD0B802275100075110075EE
:1023A30012007513017810790C1216017810790850
:1023B3001215C8AA10AB11AC12AD137F0C0219454C
:1023C300C082C083E9906000F0D083D08222C0E055
:1023D30074F2121985A2AFE433FED2AFC2C0E5D1C5
:1023E300A2E4500675D10F121207EEA2E092AF7F5E
:1023F300010219E4C0E074F2121985A2AFE433FEBE
:10240300D2AFE589A2E15003121159758900C2C503
:10241300EEA2E092AF7F010219E4C0E074F2121958
:1024230085A2AFE433FED2AFE58BA2E050031211D5
:1024330059758B00C2E880D8C0E0C0D0E8C0E0E99D
:10244300C0E0A9A8D2AFC2C7E9A2E7E433F8E9A282
:10245300E792AFD0E0F9D0E0F8D0D0D0E032C0E0DE
:10246300C0D0E8C0E0E9C0E0EAC0E0C082C083A217
:10247300AFE433FAD2AF900F62E0F8A3E0687008DC
:10248300539AFBA374018022C2E9900F62E0F874AF
:102493000128F074E228F582E4340EF583E0F5C1F7
:1024A300900F62E0C394804002E4F0EAA2E092AFAE
:1024B300D083D082D0E0FAD0E0F9D0E0F8D0D0D009
:0824C300E032C2AF020000226A
:1024CC00FFFFFFFFFFFFFFFFC082C083E9901CC42A
:1024DC00F0D083D08202011F74F612182DE99002FD
:1024EC00DCF090033BE0F5087509007402780812E3
:1024FC0017AAAA08AB0912132D9002DD122E979081
:10250C0002DD123284606F90033BE075F003A4FA95
:10251C00ABF012132D9002FA122E979002FA12328F
:10252C0084700B9002DD12325512133380489002E6
:10253C00FA1241E97AFF7BFF1210DB7A0080198ACC
:10254C0008750900740278081217AA123C9174FFDE
:10255C00122697E4F0A3F00A90033BE0F8EAC39844
:10256C0040DD790512071B9002DCE0F91206077AB0
:10257C00A57B07120979023D3474F412182D8A08D0
:10258C008B09EB548060479002DCE0F912129D8AB3
:10259C000A8B0BAE0AAF0BEE4F602A8E828F83E054
:1025AC0064B0701A12072DE960148E828F83A3A376
:1025BC00A3A3E0F9EE2405FAE43FFB1206FDEEFAC4
:1025CC00EFFB12128BAA08E5096480FB80047A00E9
:1025DC007B000227E774F212182D74FB1217BDEA68
:1025EC00FEEBFFEE4F60457403121809EEF0A3EFFB
:1025FC00F0851882851983ECF0A3EDF074021218A3
:10260C0009E9F0AA18AB19120601E9F508707574FE
:10261C0013121809E0F50AA3E0F50BE50A450B6067
:10262C00638E828F83122C20EE4F7005750802800A
:10263C00537A067B0012132D8A0C8B0DA80CA90D56
:10264C00E8497005750813803B88828983E412265B
:10265C0097EEF0A3EF1227B3E50AF0A3E50BF09089
:10266C0002E01227AC9002E06017E0FCA3E08003CC
:10267C00EAFCEBFD8C828D831227AC70F38C828D7F
:10268C00831238ACA9087405024469F0A31241CB3B
:10269C00A32274F212182D8908890C750D0074038D
:1026AC00780C1217AA850C0A850D0B9002DFF0909E
:1026BC0002DD1236B71227AA602E1213337900806E
:1026CC001D890C750D007402780C1217AA9002DD8E
:1026DC00123B508882F583A3A3E4F0A3F009900386
:1026EC003BE0F8E9C39840D990033BE0FA850AF047
:1026FC00A4CAA8F0850BF0A428FB12132D8A0C8B0E
:10270C000DAE0CAF0DEE4F70030227A090033BE013
:10271C00FC850AF0A4CCA8F0850BF0A428FD790068
:10272C001212737C0080318D0C750D007403780CC3
:10273C001217AA8A828B831227A588828983E4F0D8
:10274C001227B2A3A3F0A3F00DEDC3950840D8EE69
:10275C00250AFEEF350BFF0C90033BE0F8ECC39819
:10276C0050288C0C750D007402780C1217AA90026C
:10277C00DD1227A5E82402500109FAE9FB8A828BB5
:10278C0083EEF0A3EFF07D0080BFE5089002DFF050
:10279C0079008002791302446C123B54F922A3A3F2
:1027AC00123259EA4B22A31241CBA3A3A32274F4F5
:1027BC0012182D7900EAA2E0501F750824750983C0
:1027CC007808121A4079107C047D007AC67B1C12A2
:1027DC00071574021217D3E9F980007F040218FF61
:1027EC00C082C0839002E0123284601C888289838C
:1027FC00A3A3E06A7003A3E06B8882898370E8A3CB
:10280C00A3A3A312325580047A007B000224DD744A
:10281C00F212182D74FD1217BDEAFEEBFF8518821B
:10282C00851983E4F0A3F074021218097401F012F4
:10283C00328170141208CB12132D9002E3122E97D2
:10284C0012328170030229AD122F97EE2404F50A7F
:10285C00E43FF50B850A82F583E024FE603C24FC02
:10286C00607424FE607E24FE70030228FD24FE703A
:10287C000302290A24FE700302291724FE700302A6
:10288C00292424FE700302293124FC7003022952EE
:10289C0024FE700302296A0229A61208CB9002E5D5
:1028AC00EAF0A3EB1229B9120259E960030229A636
:1028BC009002E5121A578E828F83A3A3A3A3A312AF
:1028CC0041E98508828509831232551206E57402A6
:1028DC001217D30229A6AC18AD19EEFAEFFB1207AA
:1028EC0033022975AC18AD19EEFAEFFB12073980DB
:1028FC0078AC18AD19EEFAEFFB12073F806BAC18F1
:10290C00AD19EEFAEFFB120745805EAC18AD19EE6F
:10291C00FAEFFB12074B8051AC18AD19EEFAEFFB36
:10292C0012075180447402121813880C890D780C0C
:10293C00121A407402121823EEFAEFFB12075774A6
:10294C00021217D38023AC18AD19EEFAEFFB120765
:10295C005DE9F870167402121809E4F0803CAC18AA
:10296C00AD19EEFAEFFB120763E9F8E8602C8E82E2
:10297C008F83A3E064146022850A82850B83E09028
:10298C0002E5F08518828519831232559002E61201
:10299C002E97E8A31229B9120253EEFAEFFB120696
:1029AC00BB7402121809E0F97403024469F07CE567
:1029BC007D028508828509831232592274E8121827
:1029CC002D74FA1217BD7404121809ECF0A3EDF073
:1029DC008A128B13EA2405F50EE43513F50FEA245D
:1029EC0002F510E43513F511851082F5831232557A
:1029FC0012039D8A0A8B0B7508007C037D007900FD
:102A0C007AE57B02121273E50E2402F516E4350FFB
:102A1C00F5177402121813880C890D780C121A40D1
:102A2C00850E82850F83A3A3A3A3E0F50C750D007F
:102A3C00780C121A40E50E2405F50CE4350FF50D53
:102A4C00780C121A4085168285178312355C120693
:102A5C001F74061217D38A0C8B0DE50C450D7003F1
:102A6C00022BE98020851882851983E0888289836E
:102A7C00F00508851882851983A3E0C0E0122C2A82
:102A8C00D0E0F00508E50A24FBFAE50B34FFFBC3A4
:102A9C00E5089AE49B4003022BE97E007F00851237
:102AAC0082851383A3A3A3A3E0F5097809121A4422
:102ABC00E4F514F5157814121A407514E275150224
:102ACC007814121A409002E3121A5774091218095A
:102ADC00121A57E50A24F9F9AC0CAD0D8510828554
:102AEC00118312325512078D74091217D3E9600342
:102AFC00022B8A850E82850F83A3A3A3A3A3A3A372
:102B0C00E0F89002E2E0687075E0F5148E15781428
:102B1C00121A401241E6850E82850F83A3A3A3A34C
:102B2C00A3A3A3A312325512126D74021217D3E988
:102B3C00604C9002E6123284703BE4F51478141267
:102B4C001A407CFF7DFF7907851082851183123234
:102B5C00551206F774021217D312328A7017850EAB
:102B6C0082850F831243837404121809123C441299
:102B7C00358D022C1D850C82850D83122C20A818F6
:102B8C00A919881489157814121A4074041218099A
:102B9C00121A57851682851783122E8D12062B74E6
:102BAC00041217D38A0C8B0DEE4F7003022A661297
:102BBC002C2AEE122C35123543EF122C35F8A3E0EB
:102BCC003400F9E50C450D6003022A718882898373
:102BDC0074FFF00508122C2A74FFF00508E5086054
:102BEC001A1313543F122E9D120265E960099002CC
:102BFC00E61232551212E579008016850E82850F89
:102C0C00831243837404121809123C441238AC79B1
:102C1C000A023516A3A3A3A3E0FEA3E0FF22A80893
:102C2C009002E6E02812354322F00508089002E6EF
:102C3C00E0282274E812182D74FA1217BD740212CF
:102C4C001809122E977404121809ECF0A3EDF07405
:102C5C0002121809E0240512352CE0F50CA3E0F55E
:102C6C000D7402121809E02402F510A3E03400F5EB
:102C7C0011851082F58312325512039D750800756B
:102C8C000900EA24FCFEEB34FFFF8008050CE50C80
:102C9C007002050DA808C3EE98EF94005003022EA5
:102CAC0049A818A919880E890F780E121A40851494
:102CBC0082851583A3A3A3A31241ED121A40E51438
:102CCC002405F50EE43515F50F780E121A4085140F
:102CDC0082851583122E8B12061F74061217D38A47
:102CEC000E8B0FEA450F7003022E49EA2404F516E9
:102CFC00E4350FF517851682F583E0F50CA3E0F5A6
:102D0C000D8518828519831241E98A828B83A3A3CE
:102D1C00A3E0F985108285118312325512060DE954
:102D2C00F5096003022E497402121809123553F585
:102D3C00097809121A44E4F512F5137812121A40A4
:102D4C007512E27513027812121A409002E3121AED
:102D5C00577407121809121A57EEF9AC0EAD0F85FD
:102D6C00108285118312325512078D74091217D3F4
:102D7C00E9F5096003022E49E508703FE4F50EF50C
:102D8C000F780E121A407CFF7DFF79098510828521
:102D9C0011831232551206F774021217D3123579B9
:102DAC00700D7404121809122E807911022E7D9068
:102DBC0002E2E024029002E6F080149002E6E0FACF
:102DCC009002E2E0790024025001096A497072A86D
:102DDC00089002E2E0FAE82AFAE43400FBEE9AEFFB
:102DEC009B405A851682851783E0C0E09002E7125B
:102DFC002C2FD0E0F00508851682851783A3E0C040
:102E0C00E0089002E7122C2FD0E0F005089002E2C7
:102E1C001241ED121A401241E6A808123520121286
:102E2C005B74021217D39002E2E02508F50874FFD8
:102E3C00650C700474FF650D6003022C98E5086046
:102E4C001F9002E6E0F5F0E50884122E9D12026B4D
:102E5C00E960099002E71232551212E579008011EF
:102E6C00E509700375090A7404121809122E80A959
:102E7C00090235161236BBE50CF0A3E50DF022A3C2
:102E8C00A3124478AA0CAB0D22A3A3EAF0A3EBF097
:102E9C00229002E5F07CE57D02851082851183127B
:102EAC0032592274EC12182D74FC1217BD1239BC55
:102EBC00740212182312324F1206258A0C8B0DEA5B
:102ECC00450D7003022F87122F97A818A919881087
:102EDC0089117810121A407CFF7DFF790B850882CE
:102EEC008509831232551206F774021217D3123069
:102EFC008D700C850A82850B8312358A022F948E75
:102F0C00828F83A3A3A3A3E0F5127812121A44E4D0
:102F1C00F512F5137812121A407512E57513027832
:102F2C0012121A407810121A407409121809121A47
:102F3C00577409121809E0F9AC0CAD0D850882859F
:102F4C00098312325512078D74091217D3E9FE70DA
:102F5C00157CE57D028508828509831232551202A3
:102F6C0071E97009802074166E70027E009002E682
:102F7C001232551212E5EE7004800B7E01850A8226
:102F8C00850B831238A9EEF90238BEEE2402F5083F
:102F9C00E43FF5092274EC12182D74FC1217BDEAEB
:102FAC00FEEBFF8C0E8D0FEE2405F508E43FF509C2
:102FBC007402121823850882850983123255120671
:102FCC00258A0C8B0DEA450D700302307DEE240230
:102FDC00F50AE43FF50BA818A91988108911781087
:102FEC00121A407CFF7DFF790D12324F1206F774D6
:102FFC00021217D312308D700B850882850983124B
:10300C00358A807A8E828F83A3A3A3A3E0F51278EE
:10301C0012121A44850882850983A3A3121A5775C4
:10302C0012E57513027812121A407810121A4074B5
:10303C0009121809121A577409121809E0F91232F8
:10304C004B12078D74091217D3E9FE700F7CE57DC6
:10305C000212324F120277E97009802074166E70DA
:10306C00027E009002E61232551212E5EE700480D8
:10307C000B7E018508828509831238A9EEF9023886
:10308C00BE123294F510A3E0F511EA45112274E852
:10309C0012182D74FE1217BD8A168B178C148D15F1
:1030AC00EA2405F50CE43517F50DEA2402F50EE4D7
:1030BC003517F50F850E82F58312325512039D8A52
:1030CC00088B09750B007C037D0079007AE57B0287
:1030DC00121273750A00E50814F5100424FFF508A4
:1030EC00E50934FFF50980549002E5E0FA9002E21C
:1030FC00E0F8EA28F8E43400F9E50898E509995075
:10310C000D9002E5E0F8E510C3989002E2F0E0F5CE
:10311C00127513007812121A401241E69002E6E082
:10312C002AFAA3E03400FB12125B74021217D3903C
:10313C0002E2E0F89002E5E028F0050A850C8285B1
:10314C000D83A3A3123B6040030232309002E5E0F2
:10315C00C39508E495094003023230AE0AEE2EFE08
:10316C00E433FF12326FAC18AD19124201E439FB93
:10317C001206258A128B13AC12AD13EC4D701B7515
:10318C000B0112325F1238AD9002E61227AC6003CD
:10319C001212E5A90B740202351885168285178365
:1031AC00A3A3A3A3E0F50B780B121A44E4F512F5D4
:1031BC00137812121A407512E27513027812121A51
:1031CC00409002E3121A577407121809121A57A9E1
:1031DC0010850E82850F8312325512078D740912D9
:1031EC0017D3E9F50B709B9002E612328460030250
:1031FC0030F4E4F512F5137812121A407CFF7DFFBF
:10320C00790F850E82850F831232551206F77402E0
:10321C001217D312328A60030230F412325F123565
:10322C008E0231A17CE57D02850E82850F831232E0
:10323C005512027DE9600302319479000231A1AC90
:10324C000CAD0D850A82850B8312325922E0FAA34C
:10325C00E0FB2212326FE0FAA3E0F9EA85148285D2
:10326C00158322850C82850D83E02EF8A3E03FF9AF
:10327C0088828983229002E3124387E84922123222
:10328C0094F8A3E0F9E849229002E6EAF0A3EBF007
:10329C009002E6E02274E812182D74FA1217BD742D
:1032AC0004121809122E978C168D17740412180913
:1032BC00E02405F50EA3E03400F50F740412180990
:1032CC00E0240212352C12325512039D8A0A8B0B04
:1032DC007F007E00A818A919880889097808121A95
:1032EC0040850E82850F83A3A3A3A3E0F5088E0966
:1032FC007808121A40E50E2405F508E4350FF50997
:10330C007808121A40850E82850F83A3A312355CB0
:10331C0012061F74061217D38A0C8B0D80291235D6
:10332C004DF00F12354DF00F9002E2123898121A30
:10333C00401241E6EFF812352012125B740212179C
:10334C00D39002E2E02FFFE50C450D70030233DC55
:10335C008518828519831239CEA3A3A3E0F98514AD
:10336C008285158312325512060DE9FEE50C2404F4
:10337C00F510E4350DF511EE7050740412180912A5
:10338C003553F5087808121A44E4F508F50978085D
:10339C00121A407508E27509027808121A40900258
:1033AC00E3121A577407121809121A57E50A24FA6D
:1033BC00F9AC0CAD0D8514828515831232551207AC
:1033CC008D74091217D3E9FE60391235691238ACC5
:1033DC00EF70030235039002E6E0F5F0EF84900203
:1033EC00E5F07CE57D028514828515831232551239
:1033FC000283E960099002E71232551212E5790056
:10340C000235168F08EF703BE4F512F513781212A3
:10341C001A407CFF7DFF7911851482851583123249
:10342C00551206F774021217D3123579700912353A
:10343C006912358D0235169002E2E024049002E602
:10344C00F080359002E2E0F89002E6E0FAE824041D
:10345C00FCE43400FDEC6A4D60030233E2E50A241F
:10346C00FAFAE50B34FFFBE50828F8E43400F9EA36
:10347C0098EB9950030233E2851082851183E0C0EA
:10348C00E09002E7E02FF8A3E034008882F583D0C7
:10349C00E0F00F851082851183A3E0C0E012353A6D
:1034AC00D0E0F00F740212181388088909780812FA
:1034BC001A407402121809121A57850E82850F834E
:1034CC00122E8B12062B74041217D38A0C8B0DEA56
:1034DC00450D700302332A7402121809E0C0E01281
:1034EC00353AD0E0F00F7402121809A3E0C0E012D4
:1034FC00353AD0E0023332EE70027E0A850E8285B8
:10350C000F8312356F1238ACEEF974061217D37F95
:10351C00100218FF9002E7E028FAA3E03400FB2227
:10352C00F514A3E03400F515851482F583221235C9
:10353C003E229002E7E02FFAA3E034008A82F58362
:10354C002212353E74FF221236BBA3A3A3A3E022A2
:10355C00124478850E82850F83123259228510828F
:10356C00851183124387851682851783229002E783
:10357C00EAF0A3EBF09002E7124387E849221238F5
:10358C00B2E8F0A3E9F079112274EA12182D74FE56
:10359C001217BD8A088B098C128D13EA2405FEE4E0
:1035AC003509FFAC18AD198E828F83123255120675
:1035BC00258A0C8B0DEE2406F50EE43FF50FEA453B
:1035CC000D700302368DE5082402F50AE43509F581
:1035DC000B8A828B83A3A3A3E0A2E55028851882D3
:1035EC008519831232551207818A108B11EA451105
:1035FC006020791212324B85108285118312182BA0
:10360C00E9F50C707F850E82850F83E06009795295
:10361C008011750C0E806D850882850983A3A3A388
:10362C00A3E0F9E4F508F5097808121A408E828FA8
:10363C0083A3A3E0F5087808121A408E828F83A327
:10364C00A3A3121A578E828F831241E912324F12A2
:10365C00079374061217D3E9F50C7011850E828549
:10366C000F83E0702D12324F12028980257416657B
:10367C000C7011750C0074181218091236B7E4800E
:10368C0010750C0112437F851282851383E8F0A319
:10369C00E9F0850E82850F83E0600479008002A931
:1036AC000C74021217D37F0E0218FF1236BB22E0E5
:1036BC00F8A3E0F58388822274EC12182D74F712AB
:1036CC0017BD8A0A8B0B8C108D11EA2405FEE4358C
:1036DC000BFF750C00AC18AD198E828F831232550E
:1036EC001206258A088B09EA45097003023883E51E
:1036FC000A2402F50A5002050B8A828B83A3A3A32A
:10370C00E0A2E5502F8518828519831232551207D5
:10371C00818A0C8B0DEA450D604F7912AC08AD090E
:10372C0012324F850C82850D8312182BE9F50C6033
:10373C0003023886850A82850B83E0F508A3E0F541
:10374C0009AA08FB120775EA4B70197AFF7BFF1266
:10375C000775EA4B70030238798A828B83E508F08F
:10376C00A3E509F07508008008750C0E0238860573
:10377C00089002DFE0F8E508C39840030238798529
:10378C00080E750F007403780E1217AA8A828B83A9
:10379C00A3A3E0250EF8A3E0350F123C4D70D08E9C
:1037AC00828F831238A1122E978E828F83A3A3123D
:1037BC0038A1122E95EE2404F508E43FF50985088E
:1037CC0082F583E088828983A3A3A3A3F0A3E4F00A
:1037DC00EE2405F50EE43FF50F850E82F5831238C5
:1037EC00A1A3A3A3A3122E9575120775130078122B
:1037FC00121A40EEFCEFFD740412181B12125B74CB
:10380C00021217D3E4F5127812121A408508828539
:10381C000983E0FC7D00791712324F1206F774020F
:10382C001217D37407121809122E9774071218095D
:10383C00E0FA4B603D850882850983123898121A8C
:10384C0040850E82850F831241E912125B740212BD
:10385C0017D3740212182312324F12028FE960260A
:10386C0074071218091232551212E58019750C09D9
:10387C008008750C118003750C0112437F85108232
:10388C008511831238ACA90C74098028E0F50875F1
:10389C00090078082212325988828983221238B2A0
:1038AC00E8F0A3E9F022E0F8A3E0F9850E82850F99
:1038BC00832274041217D37F0C0218FF74EC1218B5
:1038CC002D1239BC751000EE2402F50CE43FF50DF9
:1038DC00850C82F5831232551207758A088B09EA1A
:1038EC00450970030239A0850A82850B83E06401C7
:1038FC006003023995AC08AD09AA0AAB0B12076933
:10390C00E9606E850882850983122C22EE2406F567
:10391C000AE43FF50B8E828F83A3A3121A578E8273
:10392C008F83A3A3A3A3121A57850A82850B831234
:10393C001A5779188E828F831239CE12325512078C
:10394C009374061217D3E9F8741668700B850A8203
:10395C00850B83E4F0A38014E860128E828F8312AF
:10396C003255850E82850F83EAF0A3EBF088108028
:10397C0018780E121A40AC08AD09EEFAEFFB1207DC
:10398C006F74021217D3E9F510AA08AB0912077B62
:10399C00E510700E850C82850D831232551202953E
:1039AC008009741665107003751000A9100238C3D5
:1039BC00EAFEEBFF8C0E8D0FEE2405F50AE43FF5C5
:1039CC000B22124478850C82850D832274EA12181E
:1039DC002D7508007509007E007F00750A00EC2427
:1039EC0002F510E43DF5118035EC65087003ED65CA
:1039FC00096003023A8D88828983A3A3E06A70036D
:103A0C00A3E06B707C88828983A3A3A3A312438356
:103A1C00EE28FEEF39FFEA28FAEB39FB050A123BD8
:103A2C005D503A850A0C750D007403780C1217AAB8
:103A3C00851082851183123B50123C4D601FE508A6
:103A4C00450970A58C088D0988828983122C2088E1
:103A5C00828983A3A3E02EFAA3E03F80BEE50AC3CC
:103A6C0094025003023B4B750800750900EE4F6041
:103A7C0010EEFAEFFB1212DF8A0E8B0FEA450F7075
:103A8C00057900023B4D750B00023B20850B0C7534
:103A9C000D007403780C1217AA851082851183E02F
:103AAC00250CF50CA3E0350DF50DE50C2406F514ED
:103ABC00E4350DF515851482F583123C526042E510
:103ACC000C2404F512E4350DF513851282F58312DE
:103ADC001A57E50E2508FAE50F3509FB12125B742F
:103AEC00021217D3851282851383E02508F508A3EB
:103AFC00E03509F5098514828515831232551212A9
:103B0C00E5E50B600D7C087D007900AA0CAB0D126D
:103B1C001273050BE50BC3950A5003023A988510F6
:103B2C008285118312438388828983A3A3A3A3A3D1
:103B3C00A3E50EF0A3E50F1227B3EEF0A3EFF07997
:103B4C00010236B2123B5422E0250CF8A3E0350DED
:103B5C00229002DFE0F8E50AC3982274F012182DC7
:103B6C008A0E8B0F8C0A8D0B750D00750C00805016
:103B7C007916EE2406F508E43FF5098E828F83A3AF
:103B8C00A3121A578E828F83A3A3A3A3121A57854D
:103B9C000882850983121A57850E82850F83A3A389
:103BAC0012325512079374061217D3E9F50D7416D9
:103BBC00650D706C850882850983E4F0A3F0050C13
:103BCC009002DFE0F8E50CC3985066AA0C8A0875E1
:103BDC000900740378081217AA850A82850B83A33F
:103BEC00A3123C9CE8FEE9FF8E828F83123C52604C
:103BFC0040EA2401F508E43400F5099002DFE065A1
:103C0C00087002E509601488828983A3A3A3A3A387
:103C1C00A3A3A31232846003023B7C7918023B7E7F
:103C2C00E9609B12437F7410121809123C4412383D
:103C3C00ACA90D7F080218FFE0FAA3E0F5838A8295
:103C4C0022F988828983124478EC4D2274F612187A
:103C5C002D7C0080010C90033BE0F8ECC398501EC7
:103C6C008C08750900740278081217AA123C91E0AE
:103C7C006A7003A3E06B70DDE8FAE9FB80047A005C
:103C8C007B00023D349002DD123C9C8882898322A9
:103C9C00E02508F8A3E03509F92274F212182D8AF0
:103CAC00088B09750A0080278E828F83A3A3A3A398
:103CBC001227AA60031212E57C087D007900EEFA47
:103CCC00EFFB1212738E828F83E4F0A3F0050A12BD
:103CDC003B5D5027850A0C750D007403780C121788
:103CEC00AA850882850983A3A3E0250CFEA3E035F1
:103CFC000DFF8E828F8312328470AD850882850908
:103D0C008374FFF0A3F002446C74F612182D1207A2
:103D1C00278A828B83E582458370067A007B00803C
:103D2C0007A3A3A3A31232557F020218FF74F41247
:103D3C00182D89088C828D83E06402703C1243221A
:103D4C00FEA3E0F9EEF87402687003742969702917
:103D5C00750A02750B00780A121A407410121809B1
:103D6C00121A577410121809121A57A9081210E1D6
:103D7C0074061217D3E9F9800279010227E774E877
:103D8C0012182D74FB1217BDE9851882851983F062
:103D9C008A168B17ECFEEDFF7510008E828F83A3B5
:103DAC00A3A3E0A2E4502D741D121809123255126F
:103DBC0007818A828B83E582458370030241C17936
:103DCC000AEEFCEFFDAA16AB1712182BE9F51060E2
:103DDC00030241C4741F121809E0F508A3E0F509A9
:103DEC007421121809E0F50AA3E0F50B74231218DC
:103DFC0009E0F50EA3E0F50F8E828F83E06402607C
:103E0C0003024162A3124383850882850983A3853B
:103E1C008212858313EE2406F50CE43FF50D88829F
:103E2C008983124201F514E439F5157814121ACA73
:103E3C00010000280128643E07000228293F0328BE
:103E4C00973E002958400129834002292440032928
:103E5C0058400429FC406241E50E450F60030241C5
:103E6C005D850C82850D83124383E8FAE9FB8A8217
:103E7C008B83E0850A82850B8312420C121A408ACE
:103E8C00828B83A3E0FCA3E00240E6E50E450F60C5
:103E9C000302415D850A82850B837401F01241F6A1
:103EAC00850882850983F07C007D008E828F83A338
:103EBC00A3A3A3E02401FAA3E03400FB120625EA35
:103ECC004B60408A828B83E02402F8850A82850B42
:103EDC0083E028F0EA2404F8E43BF988828983E043
:103EEC0085128285138312421A12420C121A408ACE
:103EFC00828B83A31241E9E5082403FAE43509FB1C
:103F0C000240EB850A82850B83E02404F07C047D5F
:103F1C00007900AA12AB131212730241C4E50E45CC
:103F2C000F600302415D1241F6FEA3E0FF850A8299
:103F3C00850B837404F0EE850882850983F0EF8588
:103F4C001282851383F07403121823EEFAEFFB121E
:103F5C0006258A0C8B0DEA450D70030240078A82F8
:103F6C008B83A3A3122C207401121813880E890FB3
:103F7C00780E121A407405121809121A577CFF7D1C
:103F8C00FF12062B74041217D38B0FEA450F7033F4
:103F9C00850C82850D831241ED121A40850C8285A9
:103FAC000D83A3121A577C027D007AB77B83120310
:103FBC008B74041217D3E9700A740112180974FF78
:103FCC00F0A3F08E828F83E064027039750C027559
:103FDC000D00780C121A408E828F83A31241E9E5F2
:103FEC00082404FAE43509FB12125B74021217D38D
:103FFC00850A82850B83E02402800974011218095A
:10400C00EEF0A3EFF074011218091241DB740112E7
:10401C0018091241D2024157E50E450F60030241C7
:10402C005D850C82850D83124471AA16AB17121094
:10403C00E7850A82850B837402F0850882850983E3
:10404C00EAF0851282851383EB02415AE50E450F87
:10405C00600302415D1241F6F8A3E0F9850A8285FE
:10406C000B837402F0E8850882850983F0E98512D8
:10407C008285138302415A850C82850D8312325539
:10408C00121255EAFAF8C3950EE4950F405CE865F8
:10409C000E450F70047A008021851882851983E003
:1040AC00FCE50E2CFCE4350FFDC3EC98ED940050B0
:1040BC0003E08005E50ECAC39AFAEA850A82850BED
:1040CC0083F08A0A750B00780A121A40850C8285D7
:1040DC000D83E0250EFCA3E0350FFDAA08AB0912F9
:1040EC00125B74021217D30241C47510070241C44B
:1040FC00E50E450F705B850C82850D83124383851D
:10410C000A82850B837407F0888289831241D3124B
:10411C0041CBE0851282851383F0E82402FAE4395E
:10412C00FB8A828B831241DB8A828B831241D2A35E
:10413C00A31227B21241E0F0E82405F850010988D7
:10414C008289831241E0A312421AA3A3A3A3F08095
:10415C006775100B8062741D121809123255120704
:10416C00278A828B83E5824583604A124383880CBD
:10417C00890DE8450D603E7425121809E0F510789C
:10418C0010121A44780E121A40780A121A40780843
:10419C00121A407407121809E0F9EEFCEFFDAA168A
:1041AC00AB17850C82850D8312182B74071217D34D
:1041BC00E9F510800375100EA9107405023518F07E
:1041CC0088828983A322A3E0850882850983221231
:1041DC004221F022124221A3A3229002E31244783E
:1041EC0022E0F50E750F00780E22850C82850D836A
:1041FC001236BBE022E0FAA3E0F8E4C8F9EA282280
:10420C00F08A828B83E0F50A750B00780A22124142
:10421C00CB12422122E0850882850983A3A3227454
:10422C00EE12182D74FE1217BD8A088B09ECFEEDE8
:10423C00FF890AAC18AD19EEFAEFFB1206258A0CB1
:10424C008B0DEA450D700302431385188285198383
:10425C001232551207278A828B83E58245837003BD
:10426C0002430EA3A3124383880E890FE8450F70F7
:10427C000302430E7414121809E0F510A3E0F511B3
:10428C00E50AF50B780B121A447419121809121A54
:10429C00577810121A40741B121809E0F9AC0CADC7
:1042AC000DAA08AB09850E82850F8312182B740595
:1042BC001217D3E9F50B705274FE650A604C850C2D
:1042CC0082850D83E064027041124322FAA3E0F967
:1042DC00EAF87402687003742969702E851082855F
:1042EC001183124201F50CE439F50D780C121A40C9
:1042FC00EEFCEFFDAA08AB091207AB74021217D340
:10430C008008750B0E8003750B01A90B7402121734
:10431C00D37F0A0218FFA312438788828983E02285
:10432C0074F612182D74FE1217BD740C12180912A3
:10433C004383E8851882851983F07401121809E902
:10434C00F0E4F508F5097808121A407508027808A7
:10435C00121A407404121813880889097808121A62
:10436C004079FE12079374061217D374021217D3F6
:10437C00023D348E828F8312438722E0F8A3E0F94A
:10438C002274F712182DEAFEEBFF89089002FA123C
:10439C0041E91210E7EA5402600BA908EEFAEFFBB0
:1043AC00120619800279017F010218FF74F21218AB
:1043BC002D74FE1217BDEAFEEBFF890A7401650A23
:1043CC0060147402650A600302446779011209974C
:1043DC00E96003024467EEFAEFFB120775EA4B60E3
:1043EC000312077BA818A919880889097808121ADA
:1043FC00407508027509007808121A407508C775CF
:10440C0009837808121A407CFF7DFF7A017B001229
:10441C00061F74061217D38038850882850983A37A
:10442C00A3A3A3A3A3124471EEFAEFFB1210DBE4D7
:10443C00F50CF50D780C121A407402121809121AA8
:10444C00577CFF7DFFAA08AB0912062B74041217C8
:10445C00D38A088B09E508450970BE74021217D37C
:10446C007F060218FF1236BB12447822E0FCA3E050
:10447C00FD2274F412182D8A088B09ECFEEDFF90C6
:10448C001CC4E0F4604B7A097B00121285EA4B6085
:10449C00408A828B8374B1F0A3E41244E0F08A82E8
:1044AC008B83A3A3E508F0A3E5091244E0A3EEF087
:1044BC00A3EFF0740C1218091243838A828B83A326
:1044CC00A3A3A3A3A3A31238AC901CC4E0F91212AB
:1044DC00910227E7F08A828B83A3A3A3A322C08235
:1044EC00C0839061907404F0A37448F0A37402F03C
:1044FC009061807440F09061BC7403F0906187749B
:10450C0019F0906265741BF0906249E0C3941390AB
:10451C00619C40107409F09060667401F090619F8A
:10452C007428800D740BF0906066E4F090619F74B9
:10453C002CF01246D57009C29190036D74678005FA
:10454C0090036D7461F01247279024CCE493F460CF
:10455C0006E493F9120A8D7905120DA5024969C07A
:10456C0082C083E9540FF9906185E0696012E5C659
:10457C0054B84441F5C6E59E5447644170F8E9F0DF
:10458C0053C6B8E59E544770FA024969C082C0838D
:10459C00A8A853A87E906181E4F0A3F0A3F0C2BA5E
:1045AC00539AFEC289759B00C2C275E900759100D1
:1045BC0075BF0075A91175B905906181F0A374C020
:1045CC00F0A3E4F0D2BA439A0174805842A802498D
:1045DC0069F0024969C082C08374F81217BD900358
:1045EC006B125CE770030246CD90036BE0544060A5
:1045FC00177908AA18AB19120B9BAA18AB19120839
:10460C000B90036BE054BFF0E054806010790C7A8F
:10461C001C7B07120B9B90036BE0547FF0E0A2E035
:10462C00501E1246D57009C29190036D74678005B7
:10463C0090036D7461F012081190036BE054FEF05E
:10464C00E05402601E12471A7009D29190036D74E7
:10465C0071800590036D746AF012081190036BE081
:10466C0054FDF0E0540460109024D012472A120834
:10467C001790036BE054FBF0E0540860109024D1C9
:10468C0012472A12081790036BE054F7F0E054100D
:10469C00600D12472712081790036BE054EFF0E0FF
:1046AC005420600A12081790036BE054DFF0A3E06B
:1046BC005401600D120AAB12081D90036CE054FEFD
:1046CC00F074081217D302496990619A12491C9030
:1046DC0006F6E0640122C082C083E960051460170D
:1046EC0080291246D57009C29190036D7467801AA7
:1046FC0090036D7461801312471A7009D291900364
:10470C006D7471800590036D746AF0024969906153
:10471C009A12490E9006F6E06401229024D2E4939A
:10472C00906186F02274EA12182D74F41217BD9061
:10473C00835AAC18AD1974041216D09024D093F48B
:10474C0060030248A3907808E0C394025003024827
:10475C00879082FE740412182374081216D0A818BD
:10476C00A91988148915740412181388088909AEBC
:10477C0008AF097510FF7511FF750EFF7C00750CE5
:10478C0048750D78801274086C700302481D74090A
:10479C006C607E740A6C6079850C82850D83780858
:1047AC001216758E828F83A909E50AC9F8881274CE
:1047BC00187808121590E5124508F8C3E098A3E0A4
:1047CC0099850C82850D83780812167540188E8297
:1047DC008F8374187808121590E5124508F8E0C319
:1047EC0098F8A3E0801A74187808121590E5124511
:1047FC0008FAE9FB8E828F8312503EEAC398F8EBDD
:10480C0099F9C3E89510E995115006881089118C17
:10481C000E0CE50C2404F50C5002050DECC394139E
:10482C00500302479274FF6510700474FF651160A9
:10483C0024850E08740278081217AA74482508F506
:10484C008274783509F5837808121675851482857B
:10485C001583E508F0EE2402FE50010F85148285C5
:10486C001583A3858214858315740C121809E582AF
:10487C006E7003E5836F600302477F75080175094D
:10488C00007808121A4074021218237A347B091229
:10489C00113574021217D3740C1217D37F0E021831
:1048AC00FFC082C0839061AE7468F0A3746AF0900C
:1048BC00624574FBF0A304F053F4FD43FE02900632
:1048CC00F67401F09061A0E0643A90619A7019124C
:1048DC00491C740164017009C29190036D74678066
:1048EC001E90036D7461801712490E74016401707F
:1048FC0009D29190036D7471800590036D746A02F6
:10490C0045DD743FF0A3745AF09061A0747FF022DF
:10491C007433F0A37455F09061A0743AF0227F04C4
:10492C000218FFC082C0839006D4E064017011901D
:10493C0006DAE064016019E07006A3E0640160101F
:10494C009006EBE06401700C9006F1E064017004D9
:10495C00790C800279008005E0F91223C3D083D052
:10496C008202011FE0C4333354C02288828983122F
:10497C004EFFA882A983222414F582E438F5832201
:10498C00C082C0839006DE7425F09006DC7401F0C2
:10499C00A3E4F07A01FB120D211249D8241AF582F6
:1049AC00E438F58374CFF0A3740AF09006DBE0646E
:1049BC000170169006DAE070107901120D81120D5B
:1049CC0051120D7B7900120D8D0249699006CA12A5
:1049DC004D612274F612182D74FA1217BD9006D37D
:1049EC00E064017008120AB79006D3E4F075E1F1A7
:1049FC001249D82415F582E438F5837401F0900639
:104A0C00D5E06401704B908318AC18AD1974061284
:104A1C0016D075D90D9006CC1249704403F5D97592
:104A2C0082CD758306124EFBE58264D37004E58358
:104A3C00640670F1A818A91912497774061218099E
:104A4C00E582687003E5836970EE75E19579018004
:104A5C00027900120D27901CE8124AC57437F0A396
:104A6C00740CF0A3124AC5124AC5124C33743DF0B3
:104A7C00A3740C124C489006CCE0F97ACD7B06124C
:104A8C000D039006DEE0F91223C37901120D2D906F
:104A9C0083A6121693120D45908336121693120D9F
:104AAC000F7900120D991249D81249837416F0909F
:104ABC0003697405F0040251607431F0A3740CF0B6
:104ACC00A32274F712182D8908A808E875F00DA414
:104ADC00C8AAF02AF9749928FE740339FF9006E3EA
:104AEC00E0F97AE47B06120D039006F1E07025796B
:104AFC0000120D63EE240CF582EF3401F583E070A7
:104B0C0004790080027901EE2406FAEF3401FB12DD
:104B1C000D0980057901120D6375E1F175D92390AA
:104B2C0006E31249704405F5D97582E475830612C3
:104B3C004EFBE58264EA7004E583640670F175D976
:104B4C000075D90075D90075D90075D90075D900D3
:104B5C00EE2422124FB4124FD37003E9658370F622
:104B6C00EE2426124FBF2403F8E43583F9124FD3F9
:104B7C007003E9658370F6EE242B124FC8242C12B7
:104B8C004FC8242D124FC8242E124FC8242F124F59
:104B9C00C82430124FC82431124FC82432124FC8C7
:104BAC002433124FC8245D124FBF2405F8E435831B
:104BBC00F9124FD37003E9658370F6EE2437125B5C
:104BCC0066541FF8EE242A125B66C43354E048F591
:104BDC00D975E195901CE87401F0A3740CF0A374E2
:104BEC0007F0A3740C124C2A740DF0A3740C124C25
:104BFC00489006F0E0F91223C39083A61216931284
:104C0C000D45908336121693120D0F90600DE4F043
:104C1C007901120D999003697406F002539CF0A36C
:104C2C00124C33124C3322124C372274FBF0A37407
:104C3C000BF0A374FBF0A3740BF0A322124C4C22C8
:104C4C00F0901CF6124C58A3124C5822124C37748C
:104C5C00FBF0A3740BF02274EC12182D9006E112E9
:104C6C0057BC78101216759006F2E0FAF875F00D34
:104C7C00A4C8ACF02C125938FFEE2EFEEF33FF8E89
:104C8C000CF50D750E00750F008510088511098542
:104C9C00120A85130B9083A278081215DB78081280
:104CAC001A3C85100885110985120A85130B7808A2
:104CBC00790C1215C87810790C121521E4F50EF543
:104CCC000F7808790C1216018A0C750D0074037894
:104CDC000C1217AA7808790C1215C890834E780814
:104CEC0012163CAA08AB09AC0AAD0B12235B740478
:104CFC001217D38A088B09A808A909C3EE98EF9953
:104D0C005006E82EF8E93FF9E890600EF0E9A3F0C0
:104D1C00EEA3F0EFA3F090600D74C1F07F0C0218BD
:104D2C00FFC082C0839006CA124D4D9006DE024928
:104D3C0064C082C0839006E1124D4D9006F002498A
:104D4C0064124D61124D57F0A3F0222406F582E453
:104D5C0038F583E422E0F8A3E0C82202011F74F6C0
:104D6C0012182D124F046004780480027800E82495
:104D7C000EF8ECC3985003024E387C0C9006FCE401
:104D8C00F0EA2476F582E43BF583E09006FDF0EA48
:104D9C002477124E3D9006FE124E479006FFF0EA25
:104DAC002479124E3D900700124E47900701F0EA0D
:104DBC00247B124E3D900702124E47900703F0EAF7
:104DCC00247D124E3D900704124E47900705F0EAE1
:104DDC002474F8E43BF98A828B83A3A3A3A3A3E0F6
:104DEC00FEA3E0FF88828983E02EF0A3E03F1254FB
:104DFC00DA900706124E47900707124F2860177576
:104E0C0008FC7509067808121A407903120BEF7426
:104E1C00021217D37C1012516EECFE124EFBDEFB0D
:104E2C0075E1957904120D4B7901800279000251DC
:104E3C0063F8E43BF988828983E0221254DFA3E013
:104E4C002274F612182D124F046004780480027834
:104E5C0000E8240AF8ECC3985003024EF67E089042
:104E6C0006FC7401F07CC07D0678FD79067F051286
:104E7C004F12A882A983DFF7EA2480FCE43BFD8A69
:104E8C00828B83A3A3A3A3A3E0F508A3E0F5098C6D
:104E9C00828D83E02508F0A3E03509F0124F12084B
:104EAC00A9838C828D83E088828983124F286019B4
:104EBC007508FC7509067808121A407C08790312EB
:104ECC000BEF74021217D37E0C74012EF5D975D921
:104EDC00037582FC758306EEFF124EFBDFFB75E15A
:104EEC00957904120D4B79018002790002516312FD
:104EFC004EFF22E0F5D9A3229061D0E0F87480C374
:104F0C0098FC124F2D22124F16228C828D83E08832
:104F1C00828983125D2488828983A322F0124F2D0B
:104F2C0022EA2483F582E43BF583E02274F712181D
:104F3C002DEAFEEBFF9061D0E0706875D91875D939
:104F4C000375D903EE249C124FDA124FD37003E988
:104F5C00658370F6EE24A4124FC824A5124FC82402
:104F6C0094124FDA124FD37003E9658370F6EE2476
:104F7C0088124FB4124FD37003E9658370F675E154
:104F8C00957908EE2494FAE43FFB120B8F7904EE2A
:104F9C002488FAE43FFB120B8F7904120D4B12504C
:104FAC00E88002790002539C124FBF2404F8E435C8
:104FBC0083F922F582E43FF583E58222F582E43F12
:104FCC00F583E0F5D9EE22124EFFE8658222124FEE
:104FDC00BF2408F8E43583F92274F612182DEAFE82
:104FEC00EBFF9006FC7406125091121A407C01796A
:104FFC0003120BEF74021217D375D90675D903750A
:10500C0082FC7583061250897004E583640770F581
:10501C0075E195900369E064087010EE246FF582D9
:10502C00E43F12503CEE2471125AF579010251639F
:10503C00F583125CF32274F612182DEAFEEBFF9046
:10504C0061D0E070339006FC740A125091121A4031
:10505C007C017903120BEF74021217D375D9067504
:10506C00D9037582FC7583061250897004E583643C
:10507C000770F51250E580027900025163124EFF61
:10508C00E582640122F07508FC7509067808227423
:10509C00F612182DEAFEEBFF9061D0E07036780125
:1050AC009006FC740BF0900369E0640770197508A6
:1050BC00FC7509067808121A407C017903120BEF73
:1050CC0074021217D37805125330124EFBDAFB120E
:1050DC0050E58002790002516375E195EE246F1260
:1050EC005CEDEE2471F582E43FF583E8F0A3E9F082
:1050FC0079012274F612182D125231600478048052
:10510C00027800E8240BF8EAC39840447C09900626
:10511C00FC740812517D12518CDDFB125B63601B19
:10512C007508FC7509067808121A407903EEFAEF37
:10513C00FB120BEF74021217D37C0D125168125232
:10514C002970FB75E1957904120D4B1250E8800221
:10515C00790080031217D37F020218FF12516E8C54
:10516C00082274012CF5D975D9037582FC75830658
:10517C0022F0EE24E5F8E43FF97AFD7B067D082267
:10518C0088828983E08A828B831254DFA3A882A948
:10519C00838A828B83A3AA82AB832274F612182D86
:1051AC001252316004780480027800E82408F8EA8E
:1051BC00C398406478069006FC740CF0900386E06B
:1051CC009006FDF0900387E09006FEF0900388E0D7
:1051DC009006FFF0900389E0900700F090038AE0BE
:1051EC009007011252C0601B7508FC7509067808FF
:1051FC00121A407C067903EEFA120BEF74021217A6
:10520C00D3780A1252BA12522970FB75E1957904BF
:10521C00120D4B1250E880027900025163124EFFBE
:10522C001508E50822EAFEEBFF9061D0E0F87480E7
:10523C00C398FA1252C52274F612182D125231600C
:10524C0004780480027800E82404F8EAC398404B00
:10525C0078029006FCE8F0EE24F7125B669006FDEF
:10526C001252C0601B7508FC7509067808121A40AA
:10527C007C027903EEFA120BEF74021217D3780644
:10528C001252BA12522970FB75E1951252AC790484
:10529C00120D4BEE240D1250EB800279000251637B
:1052AC00EE241DF582E43FF583E4F0A3F0221253C3
:1052BC0036880822F01252C522EE2483F582E43F90
:1052CC00F583E02274F612182D124F046004780452
:1052DC0080027800E82404F8ECC3984042780290ED
:1052EC0006FC7407F0EA24F8F582E43BF583E090C1
:1052FC0006FD124F2860197508FC7509067808120E
:10530C001A407C027903120BEF74021217D3780641
:10531C00125330124EFBDAFB75E19579018002795C
:10532C0000025163125336E8FA22740128F5D9753C
:10533C00D9037582FC7583062274F712182DE9FFC8
:10534C00A2AFE433FEC2AF7C0080010C1253ED50CF
:10535C0010ECF8EA28F8E43BF9125A516F70EC8023
:10536C0016EA246EF8E43BF9E0FCEA2CFAE43BFB89
:10537C0012538AEF1254D4EEA2E092AF8012EA24B8
:10538C006AF582E43BF58322F0EEA2E092AF79005D
:10539C007F010218FFC082C083A2AFE433FDC2AF0D
:1053AC001253F514F07C00801DECF8EA28F8E43B6D
:1053BC00F9E8246B125A54C0E0E8246AF582E43907
:1053CC00F583D0E0F00C1253ED40DEEA246DF5824B
:1053DC00E43BF58374FF12541AEDA2E092AF02493C
:1053EC00691253F5F8ECC39822EA246EF582E43B7B
:1053FC00F583E022C082C083A8A8C2AF12538AE909
:10540C0012541AE8A2E7E433FAE8A2E780CEF0EAF5
:10541C002469F582E43BF583E4F02274F312182D31
:10542C00EAFEEBFFECFAEDFB8A828B83A3A3A3A32A
:10543C00E0541FF0EE2436F582E43FF583E4F0757A
:10544C000A00EE245DFCE43FFD8A828B83E08C82B3
:10545C008D83F0750B00E50A33333354F8F50C8A61
:10546C00828B83E0F508750900E50B780812178B21
:10547C00E508A2E05027EE2436F8E43FF98882894B
:10548C0083E0F508EE2508F508E43FF509E5082466
:10549C0038F582E43509F583E50C1254D4050B0577
:1054AC000CE50BC3940840B7050A8A828B83A3AA28
:1054BC0082AB838C828D83A3AC82AD83E50AC394CB
:1054CC000540867F050218FF1254DA04F0221254AC
:1054DC00DFE022F0888289832274F712182D900362
:1054EC0095E0640370030256827C0075829B758381
:1054FC0003E0600302566CECF875F00DA4C8AAF03A
:10550C002AF9749928FA740339FB8A828B83A3A332
:10551C0074011256A4E4F0EC8A828B83A3A3A3A398
:10552C00F0125C6E7401F0EA2467F582E43BF583BB
:10553C00740112569EE4F0A312569EA3A31256B405
:10554C00240FF582E43BF5837401F0EA24351256FE
:10555C008924181256B9241C125689241D1256ADD2
:10556C00247F125689247312568924821256892458
:10557C0068F582E43BF583748012541AEA246E12A7
:10558C00568924ED12568924EE12568924EF1256B0
:10559C008924F012568924F11256AD24F31256AD1B
:1055AC0024F6125689248312568924D31256892440
:1055BC00D412568924D51256B924D91256B924DFDF
:1055CC0012568924E112568924DD12568924E212DE
:1055DC00568924E312568924F91256AD24FB12562F
:1055EC00AD24FD1256AD24FF1256AD240C12569369
:1055FC002406125693240712569324081256932409
:10560C0009125693240A125693240B1256931253D2
:10561C008B74FF7804F0A3D8FCEA245DF8E43BF922
:10562C007CC07D061256CD64C57003ED640670F423
:10563C00EA24E5F8E43BF97C7D7D031256CD6485C4
:10564C007003ED640370F4900395E004F064017052
:10565C00298A828B83A3A3A3A3E0900397F0801ADB
:10566C000CE582240DF582E5833401F583ECC394BB
:10567C000350030254FD7A007B0002539CF582E434
:10568C003BF583E4F0EA22F582EB3401F583E4F098
:10569C00EA221256A4A3A322F08A828B83A3A3A38B
:1056AC0022F582E43BF583E4F0A3F0EA22F582E4F0
:1056BC003BF5831256C4EA22E4F0A3F0A3F0A3F066
:1056CC0022124F16A882A983EC22C082C0838A8240
:1056DC008B83A3A3A3E0600F8A828B83A3A3A3E491
:1056EC00F0900396E014F0900395E014F07006909F
:1056FC00039774FFF08A828B83A3A3E4F09006C512
:10570C00E0700D900396E0640170057900120D15A0
:10571C00024969C082C083789B790388828983A3FC
:10572C00E41254DFF0125922E864C27003E96406F3
:10573C0070E9900395E4F0A3F0A374FFF075E1F128
:10574C0002496974F512182D750800750900750A5F
:10575C00007E997F038E828F83A3A3A3E0602BE549
:10576C00084509601D8508828509831257BC121AE9
:10577C00531257B81216931222FF74041217D3E95E
:10578C007008EEF8EFF988088909050AEE240DFE79
:10579C00EF3401FFE50AC3940340BA8508828509FA
:1057AC0083A3A3A3A3E0F97F030218FF8E828F8348
:1057BC00125C91A3A32274EE12182D8A0A8B0B8C07
:1057CC0008890C900396E0F8E9C39850627AFF7B45
:1057DC00FF7C007899790388828983A3A3A3E06076
:1057EC003F74FF6A700374FF6B700CE82473125AD9
:1057FC0054640170218012E82473125A54640170AD
:10580C000DE8247912592B5017E82479800BE824E1
:10581C002E12592B500AE8242E125A54FAA3E0FBEC
:10582C000C125922ECC3940340ADEAFEEB8018E94C
:10583C006010A3E0F875F00DA4C8AAF02A1259382C
:10584C008005EA2AFEEB33FF8E0E8F0F7403780E61
:10585C0012179B900396E0F8C3E50E98E50F9400A1
:10586C00500302590EE50A25E0F50AE50B33F50B5A
:10587C00E50825E0F508ED33F509AC0AAD0B80071A
:10588C00EC2402FCE43DFDC3E5089CE5099D406069
:10589C00C3EC9EED9F403FECF8EDF9EEFAEFFB12F6
:1058AC0017328B0FEA450F60068E0E8F0F80067530
:1058BC000E00750F00ECF8EDF9EEFAEFFB12173253
:1058CC008A108B11EC9510F8ED9511F9E8250EFC6A
:1058DC00E9350FFD801AE0F8E50CC3985012EEF88C
:1058EC00EFF9ECFAEDFB1217328B0FEA450F7090C3
:1058FC00C3EC950AED950B4009C3E5089CE5099DA1
:10590C0050067AFF7BFF8009ECFAEDC313FBEA1318
:10591C00FA7F0A0218FFE8240DF8E93401F922F5A0
:10592C0082E439F583C3E09AA3E09B22F974C7287B
:10593C00F582740339F583E0FEA3E02274F61218A5
:10594C002D74FC1217BDEAFEEBFF8044EE2463F8C5
:10595C00E43FF97A007B00A2AFE433F508C2AF88CC
:10596C00828983E0FCA3E0FDEC4D600F125CAC700F
:10597C000A88828983A3A3E4F0A3F0E508A2E0924D
:10598C00AF1212E59006C6E004F09006C7E004F0F2
:10599C00EE2463F582E43FF583125CE770AE90066B
:1059AC00C7E060358E828F83A3A3A3A3E085188202
:1059BC00851983F0A3E4F09006C7E0F8740212187E
:1059CC0009E8F0A3E4F07402121823AA18AB1979B1
:1059DC000112087D9006C7E4F0EEFAEFFB120B3BC8
:1059EC00EEFAEFFB120C73740402516074F7121888
:1059FC002DEAFEEBFF8E828F83A3A3A3A3E0FA7B99
:105A0C0000120853EEFAEFFB120B53120C55025313
:105A1C009CC082C0837A007899790388828983A399
:105A2C00A3A3E06011E8246E125A546009125A5173
:105A3C0070047901800C0A125922EAC3940340DBEA
:105A4C007900024969E8246AF582E439F583E02299
:105A5C00C082C083E490037D7808F0A3D8FC900347
:105A6C007D040245DD74F712182D74FC1217BD85E8
:105A7C0018828519831256C4120B95E985188285F4
:105A8C001983F0120B957401121809E9F0120B9599
:105A9C007402121809E9F08518828519831216937D
:105AAC0074041217D302539C74F612182DEAFEEBF1
:105ABC00FFEC2403F8E43DF988088909EC2407F885
:105ACC00E43DF9E8FCE9FD125B01121732EE240DFE
:105ADC00125AF5125B011217328B09EA450960065E
:105AEC00EE240D125B14025163F582E43FF583E85A
:105AFC00F0A3E9F0228C828D83125CF385088285F9
:105B0C000983E0FAA3E0FB22F582E43FF583E0246D
:105B1C0001F0A3E03400F02274F612182DEAFEEB2B
