:020000040000FA
:060000000201070221B11C
:03002B0002243B71
:0300330002241D87
:03003B000224613B
:030043000223D1C4
:030053000222275F
:03006B000223F776
:10008300022007E5C754F84401F5C77901220000AF
:100093000080FB120086B900030200F1E4791A78AC
:1000A30002B800028004F709D8FCE4791C7802B88E
:1000B30000028004F709D8FCE49002817840791BA0
:1000C3008002F0A3D8FCD9FA7AC07B1C9001377860
:1000D300DB79018015E493A3AD82AE838A828B839F
:1000E300F0A3AA82AB838D828E83D8E9D9E7758288
:1000F300447583E174031201197582917583007449
:100103000012011975D00075813F751881751902A8
:10011300759F00020096C09FF59FE473D09F22D085
:1001230083D082C09FE493C0E0740193C0E0740263
:1001330093F59F229D03A903DF03D903FF0000B4B6
:10014300000028002800283075A000A000A000A00F
:100153000000080008E001F000100010001000107B
:10016300001000100050005000500010001000D08C
:10017300070000000000000F0001000500307507B4
:10018300001000010081FF00000000FFFFFF0202DA
:1001930002F383010000E28302ED830100001A1DD4
:1001A30002E983010000B80202ED830100001B1D78
:1001B30002E783010000CE02FFFF0100FF2002F3EC
:1001C30083010000DF8302ED83010000491D02E586
:1001D30083000000000002F983030000FA02170005
:1001E300D70BD70BD70BD70BD70BD70BD70BD70BFC
:1001F300D70BD70BD70BD70BD70BB70DD50DB10D2E
:1002030001E803057710020AFFFFFF00FEFF12015A
:1002130022F9CA031201220CCB031201222DCB03B4
:1002230012012298CB03120122D9CB03120122FA25
:10023300CB031201223BCC03120122D3CC031201C4
:10024300221BCD031201228DB503120122A0B50397
:10025300120122D1B5031201220BB603120122644B
:10026300B603120122ABB603120122F3B603120145
:100273002222B70312012251B70312012288B703C6
:10028300120122CFB703120122E8B7031201223D64
:10029300B8031201226BB803120122A5B80312019D
:1002A30022E0A602120122E3A70212012210A802F1
:1002B30012012261A80212012284A80212012296CD
:1002C300A80212012299A802120122D7A802120140
:1002D300224BA902120122B7A9021201227FAA020C
:1002E300120122A5AA02120122DFAA02120122761A
:1002F300AB02120122C8AB02120122F9AB021201B6
:10030300222AAC0212012237AC02120122A1AC0252
:10031300120122A4AC02120122B1AC02120122B4D6
:10032300AC021201220BAD021201220EAD02120128
:100333002247AD021201224AAD021201224DAD0243
:10034300120122AFAD02120122B2AD021201220646
:10035300AE021201224FAE021201225FAE0212015F
:100363002292AE021201229FAE02120122A2AE021B
:100373001201220AAF021201220CB002120122B0B2
:10038300B00212012219B10212012257B102120165
:10039300222BCF0212012228D002120122BED00248
:1003A30012012209D1021201226DD102120122F798
:1003B300D102120122B0D202120122D2D5021201BD
:1003C300224FD70212012272D702120122B0FB027E
:1003D30012012255FD0212012275FD02120122961D
:1003E300FE02120122E9FE0212012223A6031201D8
:1003F300224BA60312012278A603120122B0A60300
:100403001201220EA7031201225AA703120122C1CD
:10041300A70312012201A8031201223EA80312011D
:10042300226CA80312012216A90312012220A90398
:100433001201222DA90312012260A9031201226CC9
:10044300A90312012284A9031201228EA903120116
:1004530022167F00120122247F001201223C7F001A
:10046300120122547F001201226B7F00120122CB62
:10047300D70112012275D801120122F1D80112010C
:10048300220FDA011201224BDA01120122E6DA010C
:10049300120122CADB011201228DDC0112012205A5
:1004A300DD0112012293DE0112012204DF01120198
:1004B30022BEDF01120122B0E001120122F0E001AD
:1004C300120122A4E101120122D6E101120122CC80
:1004D300E3011201220EE4011201222CE4011201B4
:1004E30022B1E40112012275E50112012294E70110
:1004F30012012209AE031201221FAE031201223D93
:10050300AE031201224EAF0312012258AF031201B0
:100513002283B0031201227AB103120122E7B1034D
:100523001201222D8A03120122D18A031201220809
:100533008B031201225F8B03120122748D031201BC
:1005430022FC9901120122AD9A01120122BD9A01E6
:10055300120122539B01120122909B01120122CC12
:100563009B01120122D79B01120122AD9C011201B2
:10057300228A9D011201221A9E01120122D19E019B
:10058300120122DFA101120122CEA3011201228056
:10059300A40112012249A5011201228EA801120110
:1005A3002238A90112012261AA011201221DAC0104
:1005B300120122BDAC011201220BAD011201224A2C
:1005C300AD011201221DAE0112012251AE01120131
:1005D30022DEAE0112012296C50112012222C601BA
:1005E30012012286C70112012292C701120122CDF4
:1005F300C7011201223CC80112012245C90112019F
:10060300224ECA0112012215CB0112012272CC0122
:1006130012012290CC01120122ADCC0112012278E9
:10062300CD01120122A0CD011201226AD0011201D3
:10063300226FD00112012288D201120122D6D201E7
:1006430012012246D30112012284D3011201226036
:10065300D40112012220D5011201226CD50112010D
:10066300226FD501120122B3D501120122FBD5015C
:100673001201223AD6011201225CD6011201229004
:10068300D601120122F3D60112012223850312019E
:10069300222C85031201223A85031201228D850340
:1006A300120122AC8503120122F1850312012235C6
:1006B3008703120122D08703120122148803120137
:1006C300223E8803120122AD8803120122F388031C
:1006D3001201226A89031201221B8A031201225486
:1006E30025001201226425001201220526001201B1
:1006F300226126001201221E27001201223A28003D
:100703001201226C28001201229B280012012248A8
:100713002A00120122BF2C001201222F2F001201E6
:10072300222130001201221A31001201222133004A
:100733001201221536001201224437001201224809
:100743003900120122583A00120122E73B0012013C
:1007530022D83C00120122263D00120122953D00C1
:10076300120122B93D001201220A3E00120122ABFE
:100773004200120122AC43001201220D4400120177
:1007830022384400120122FE44001201221CAA0353
:1007930012012226AA031201226BAA031201227F4D
:1007A300AA031201220FAB0312012237AB0312017A
:1007B3002272AB031201229BAB03120122CFAB03C4
:1007C300120122E4AB031201224FAC031201227087
:1007D300AC0312012284AC0312012299AC0312016F
:1007E30022D3AC0312012238AD031201227BAD03E5
:1007F300120122A5AD03120122E1AD03120122432E
:10080300DA03120122267400120122097500120173
:1008130022847500120122BF750012012210770095
:10082300120122997700120122B1790012012243A9
:100833007C00120122F57C00120122147E001201B9
:10084300226D7E00120122008003120122438003E5
:10085300120122C780031201229A8103120122711D
:100863008403120122EAC50312012297C60312016F
:1008730022A4C703120122E3C7031201223DC803C6
:1008830012012215D10312012278D103120122157C
:10089300D20312012243D20312012264D2031201B2
:1008A300229FD203120122BFD2031201220D94030D
:1008B3001201229994031201225895031201227006
:1008C30096031201228A9803120122D5BB02120158
:1008D30022FABB02120122CEBC021201223BBD024C
:1008E30012012291BD021201222DBE0212012261C8
:1008F300BF021201223CC0021201229BC00212015C
:10090300226CC102120122F8C102120122FBC102B0
:1009130012012245C202120122B7C202120122624F
:10092300C30212012282C302120122CAC3021201AC
:1009330022E6C30212012260C4021201226EC40223
:10094300120122FDC40212012266C50212012273A2
:100953009D03120122F89D031201223A9E03120104
:10096300221E9F031201228B9F03120122CF9F039A
:1009730012012213A00312012240A00312012268D4
:10098300A003120122A0A003120122DEA003120180
:100993002205A1031201227FA103120122C9A1038F
:1009A300120122AF5D001201227C5F001201226A54
:1009B3006100120122BE6100120122E961001201ED
:1009C30022976200120122C76200120122F662001E
:1009D3001201220963001201224A630012012276E6
:1009E3006300120122C46300120122FB630012019F
:1009F30022476400120122A6640012012239650015
:100A0300120122236600120122126700120122F250
:100A13006800120122116E001201226A6E00120197
:100A230022537000120122227200120122A47200CA
:100A3300120122F2730012012203740012012288B0
:100A4300C80312012273C903120122B6C90312019A
:100A53002205CA0312012256CA03120122A7CA039E
:100A63001201226A4500120122EB450012012218ED
:100A73004600120122614600120122624700120160
:100A830022B147001201222D4900120122AF490071
:100A93001201220C4A001201225F4A001201224E67
:100AA3004B00120122E34C00120122AD4D00120152
:100AB30022BD4D00120122E74D00120122EA4D0032
:100AC300120122CD4E00120122B84F0012012265FD
:100AD3005000120122C250001201221B51001201C8
:100AE300227F5100120122275200120122C3520019
:100AF300120122505300120122C553001201222178
:100B03005400120122805400120122A75400120142
:100B1300226555001201225657001201229F5700E9
:100B2300120122CF5700120122425800120122C89B
:100B33005900120122785A001201229D5A00120113
:100B430022DC5A00120122F15A00120122345B0006
:100B5300120122A45B00120122EE5B00120122F8B3
:100B63005C00120122795D001201222EF6011201AE
:100B73002279F60112012285F60112012259F701A9
:100B830012012270F701120122ADF701120122DED8
:100B9300F70112012216F8011201226CF801120169
:100BA3002282F801120122BEF801120122D1F801BA
:100BB300120122F8F8011201222CF901120122522A
:100BC300FA011201229CFB0112012298FC0112017D
:100BD30022B5FD01120122FB7F0012012283F602DE
:100BE30012012231FA0212012265FB02120122EDE7
:100BF3009A02120122B09D02120122B69D02120135
:100C03002273A002120122CDA202120122C1980373
:100C1300120122589903120122169A03120122404B
:100C23009A03120122769C03120122FE8301120110
:100C3300223984011201228D8E01120122F98F01C2
:100C4300120122F690011201227B9401120122610A
:100C53009501120122AD9501120122C795011201DE
:100C630022089601120122119601120122C1960156
:100C7300120122919701120122D897011201223EFB
:100C83009801120122B09801120122D1C20312016C
:100C930022AEC303120122F2C3031201222CC403A6
:100CA300120122C4C40312012233C5031201223CE0
:100CB300C50312012248C50312012262C5031201B2
:100CC300228CC503120122BCC5031201225DF0026E
:100CD3001201226AF00212012284F002120122B7E9
:100CE300F002120122F5F0021201225AF10212015E
:100CF300226FF10212012286F10212012294F10203
:100D0300120122A3F102120122B8F102120122CD33
:100D1300F102120122D8F102120122E4F1021201BE
:100D230022F1F10212012200F2021201220BF2025D
:100D330012012230F202120122D4F202120122E93C
:100D4300F202120122FEF20212012218F302120130
:100D53002235F30212012252F3021201225DF30241
:100D630012012209F402120122EAF4021201220FF3
:100D7300F5021201221AF5021201222FF5021201C5
:100D83002243F502120122A4F502120122AAF5025E
:100D9300120122B0F502120122B6F502120122CE8F
:100DA300F50212012201F6021201227DB1021201A3
:100DB300229FB10212012267B20212012221B5025F
:100DC30012012237B60212012258B702120122324F
:100DD300B802120122E1B8021201220580021201B7
:100DE300229C8002120122348102120122248202F7
:100DF3001201225B82021201226E8202120122DCA4
:100E030082021201227784021201229E84021201BD
:100E13002240850212012275850212012286850273
:100E2300120122FF850212012220860212012238BA
:100E3300860212012290870212012299890212016D
:100E430022E98B02120122EC8C021201223B8D0259
:100E5300120122A1E7011201229EE8011201228957
:100E6300E90112012293E901120122B5E9011201FC
:100E730022C1E90112012213EB0112012242EB010B
:100E830012012272EC01120122B4EC01120122E0E0
:100E9300ED01120122B6EE0112012208EF01120147
:100EA3002267EF011201229EEF01120122D9EF0105
:100EB30012012274F3011201228DF3011201220F98
:100EC300F4011201221DF40112012272F401120134
:100ED3002280F401120122EDF4011201225FF501D7
:100EE300120122A5F501120122CDD203120122F231
:100EF300D20312012263D30312012295D8021201F5
:100F0300229ED802120122A7D802120122D8D902A6
:100F1300120122F7DB021201222DDC0212012267E9
:100F2300DC021201229DDC02120122D7DC02120133
:100F3300220BDD0212012237DD0212012280DD02C3
:100F4300120122BADD0212012202DE02120122582C
:100F5300DE021201228DDE02120122E8DE021201FC
:100F63002222DF0212012273DF02120122A9DF0211
:100F7300120122E3DF0212012206E002120122051E
:100F8300DE0312012231DE031201228CDE03120181
:100F93002296DE03120122A6DE03120122238F030F
:100FA300120122628F03120122EB8F03120122002E
:100FB30090031201224B900312012291900312011C
:100FC30022EA900312012239910312012292910322
:100FD3001201229F9203120122989303120122D538
:100FE300930312012230E003120122D4AF01120154
:100FF3002254B201120122C8B30112012225B40105
:10100300120122CEB401120122CBB50112012253E7
:10101300B601120122DFB60112012204B701120147
:101023002254B701120122F5B90112012266BA0155
:1010330012012252BB011201228CBB01120122CCEC
:10104300BB011201226CBD011201229DBD011201DF
:1010530022F2BD011201223FBE01120122B0BE01E4
:10106300120122D3BE01120122EDBE01120122039D
:10107300C00112012213C001120122A4C1011201F5
:1010830022C4C101120122FAC1011201227EC3014D
:10109300120122F7C30112012236C4011201226890
:1010A300C50112012248CF03120122ACCF03120162
:1010B300225BD0031201227AD003120122CED00385
:1010C30012012251DD0312012262DD031201229774
:1010D300E103120122D6E103120122D0E20312013D
:1010E30022B0DE03120122C0DE03120122DBDE0383
:1010F30012012243DF0312012257DB03120122DB19
:10110300DB0312012241DC03120122ABD7031201DC
:1011130022D4D70312012241D80312012295D80306
:10112300120122EED803120122A2BF03120122B739
:10113300BF03120122DBC00312012245C1031201C6
:1011430022B9C103120122D3C103120122EAC1034E
:10115300120122FDC10312012215C2031201222A28
:10116300C2031201224BC2031201229CC2031201C9
:1011730022F1B10312012208B20312012281B20348
:1011830012012256B30312012228B5031201226869
:10119300BC03120122FABC0312012278BD0312011F
:1011A30022FFBD0312012291BE03120122E8BE03F6
:1011B300120122F2BE0312012201BF031201221700
:1011C300BF031201222ABF031201228BBF031201A4
:1011D300229FBF0312012229D90312012293D903AB
:1011E3001201229ED903120122AED903120122B9A0
:1011F300D903120122D5D90312012221D6031201E8
:10120300224AD60312012273D6031201220CD703FA
:1012130012012224D70312012266D703120122945A
:10122300E0021201229EE002120122DEE00212011C
:101233002227E10212012261E102120122B7E10237
:10124300120122D6E1021201225BE402120122649E
:10125300E402120122B5E402120122DEE4021201C9
:1012630022F3E40212012263E502120122F1E502F4
:1012730012012235E6021201225DE602120122DC8E
:10128300E6021201221FE7021201225CE7021201A9
:10129300226EE7021201228DE70212012296E70273
:1012A3001201225BE80212012283D403120122D429
:1012B300D4031201225DD503120122C3D503120107
:1012C300220DB90312012237B90312012231BA03E5
:1012D30012012256BA03120122F7BA031201227D28
:1012E300BB031201225ADC0312012246CD03120171
:1012F300227CCD03120122B5CD031201220ECF03AE
:101303001201224DDF0312012263DF031201226D5A
:10131300DF0312012290E00312012287E802120187
:101323002244E9021201227FE902120122A7E90203
:1013330012012209EA0212012255EA02120122C015
:10134300EA021201223CEB0212012238EC021201E2
:1013530022BFED0212012242EE02120122A6EE0288
:10136300120122BDEE02120122B3EF02120122FF8B
:10137300EF0212012209A2031201221EA20312018B
:1013830022D1A20312012211A3031201222AA303D1
:101393001201225DA303120122AAA303120122DE7A
:1013A300A30312012220A40312012216A603120191
:1013B30022888D021201227D8E02120122178F02D2
:1013C300120122DB9102120122FE9102120122E29A
:1013D3009302120122349402120122C794021201D1
:1013E30022229602120122A39602120122179702C9
:1013F300120122C7970212012289C502120122BFDC
:10140300C502120122FBC50212012262C6021201A9
:1014130022E0E1031201225DE203120122C3DF0392
:1014230012012226E20312012289E203120122B2EF
:10143300E203120122EFE003E066701008A3E06606
:10144300700A08A3E066700408A3E06622C3E79667
:101453000809E7960809E7960809E79622C3E09684
:1014630008A3E09608A3E09608A3E09622C008C369
:10147300E096F50808A3E096420808A3E096420820
:1014830008A3E09645087001D3D00822080808EAAB
:10149300C0E0EBC0E086F0E7A4FA180986F0E7A401
:1014A3002AFA180986F0E7A42AFA180986F0E7A4AD
:1014B3002AFA1986F0E7A4FBE5F02AFA190886F060
:1014C300E7A42BFBE5F03AFA190886F0E7A42BFB17
:1014D300E5F03AFA18180986F0E7A4C5F02BFBE407
:1014E3003AFA1908E7C5F0C6A426F6E5F03BFBE493
:1014F3003AFA1886F0E7A4F6E5F00826F6E43B0886
:10150300F6E43A08F6D0E0FBD0E0FA22E4CFC0E0FC
:10151300E4CEC0E0E4CDC0E0E4CCC0E075F020E66A
:1015230026F608E633F608E633F608E633F6181827
:1015330018EC33FCED33FDEE33FEEF33FFC3EC97D2
:1015430009ED9709EE9709EF97191919400FFFEC69
:1015530097FC09ED97FD09EE97FE191906D5F0BF23
:10156300ECF709EDF709EEF709EFF7191919D0E0D0
:10157300FCD0E0FDD0E0FED0E0FF22E4C396F60805
:10158300E496F608E496F608E496F6226016080850
:1015930008C6C313C618C613C618C613C618C6137F
:1015A300C6D5E0EA22700908080822601618181840
:1015B300C6C333C608C633C608C633C608C633C651
:1015C300D5E0EA22E627F60809E637F60809E63702
:1015D300F60809E637F622E026F608A3E036F60811
:1015E300A3E036F608A3E036F622E026F008A3E0EF
:1015F30036F008A3E036F008A3E036F022C3E697FE
:10160300F60809E697F60809E697F60809E697F655
:1016130022C3E096F008A3E096F008A3E096F00852
:10162300A3E096F022E657F60809E657F60809E61E
:1016330057F60809E657F622E056F608A3E056F6F1
:1016430008A3E056F608A3E056F622E056F008A3F6
:10165300E056F008A3E056F008A3E056F022E06657
:10166300F608A3E066F608A3E066F608A3E066F6CC
:1016730022E0F608A3E0F608A3E0F608A3E0F622CA
:10168300E6F008A3E6F008A3E6F008A3E6F022E0FC
:10169300FAA3E0FBA3E0FCA3E0FD22EAF0A3EBF056
:1016A300A3ECF0A3EDF022E0F8A3E0F9A3E0FAA3A2
:1016B300E0FB22E8F0A3E9F0A3EAF0A3EBF022CAEF
:1016C300C0E0E6F0A308DAFAD0E0FA22CAC0E0E00C
:1016D300A3C582CCC582C583CDC583F0A3C582CC07
:1016E300C582C583CDC583DAE6D0E0CA22C3E498B8
:1016F300F8E499F91217318026C3E49AFAE49BFBC4
:10170300E920E7E9121731E498F8E499F922C3E4F0
:1017130098F8E499F9121731E498F8E499F9C3E4D5
:101723009AFAE49BFB22EB20E7CFE920E7E0B9003C
:1017330010BB0008E88AF084F8AAF022E4FBC8FA98
:1017430022EB70227B10C833C8C933C9335007C397
:101753009AC3DBF280069A50012ADBEAC833F4C845
:10176300C933F4C9FA2275F008E4C833C8C933C9C8
:1017730033C99AC99B5004C92AC93BD5F0ECFBC8AD
:1017830033F4C8E4C9FA22600D08C6A2E713C618E9
:10179300C613C6D5E0F322600C08C6C313C618C629
:1017A30013C6D5E0F422700422600D18C6C333C6F5
:1017B30008C633C6D5E0F41822251810AF08F5186B
:1017C300400C15198008F51840021519D2AF2200F4
:1017D300C0D0251810AF08F518500C05198008F56E
:1017E3001850020519D2AFD0D0222518F58210AFB8
:1017F30008F518400C15198008F51840021519D280
:10180300AF851983222518F582E43519F58322253E
:1018130018F8E43519F9222518FAE43519FB2225BD
:1018230018FCE43519FD22E4732518C582C0E0E5F0
:101833001934FFC583C0E0E518C3958224F810AFBF
:10184300088583198582188008858319858218D2B3
:10185300AFCEF0A3E520F0A37808E608F0A3DEFA04
:10186300EFF0A3E58124FAF8E608F0A3E608F0A375
:10187300E608F0A30808E608F0A3E608F0A315813C
:101883001581D0E0FED0E0F8158115811581E8C0FF
:10189300E0EEC0E0222518C582C0E0E51934FFC59B
:1018A30083C0E0E518C3958224F910AF0885831936
:1018B3008582188008858319858218D2AFCEF0A35C
:1018C300E520F0A37808E608F0A3DEFAEFF0A3E53D
:1018D3008124FBF8E608F0A3E608F0A30808E6086D
:1018E300F0A3E608F0A315811581D0E0FED0E0F85F
:1018F30015811581E8C0E0EEC0E0228519838518C3
:1019030082E0A3FEE0A3F5207808E0A3F608DFFA5F
:10191300E0A3FFE0A3C0E0E0A3C0E0E0A3C0E0E0F9
:10192300A3C0E0E0A3C0E010AF0885821885831947
:101933008008858218858319D2AFD083D0820201B3
:101943001F851983851882E0A3FEE0A3F52078089C
:10195300E0A3F608DFFAE0A3FFE0A3C0E0E0A3C042
:10196300E0E0A3C0E0E0A3C0E010AF0885821885E3
:1019730083198008858218858319D2AFD083D082DA
:1019830022C0D02518C582C0E0E51934FFC583C045
:10199300E0E518C3958224F310AF08858319858287
:1019A300188008858319858218D2AFC8F0A3E9F09F
:1019B300A3EAF0A3EBF0A37908E709F0A3D8FAECC4
:1019C300F0A3EDF0A3EEF0A3EFF0A3D0E0F0A3D0EB
:1019D300E0F0A3D0E0F0A3E520F0A3E5F0F0A3222C
:1019E300851983851882E0C0E0A3E0F9A3E0FAA398
:1019F300E0FBA37808E0F608A3DFFAE0FCA3E0FD30
:101A0300A3E0FEA3E0FFA3E0C0E0A3E0C0E0A3E007
:101A1300F5D0A3E0F520A3E0A3F5F010AF0885838C
:101A2300198582188008858319858218D2AFD082E0
:101A3300D083D0E0F8D0E0327404800674028002D0
:101A43007401C0E0F4041217EDD0E01216C2227440
:101A530004800474028000CCC0E0EDC0E0E518C34C
:101A63009CCCAD1950011D10AF068C188D19800642
:101A73008C188D19D2AF1216CFD0E0FDD0E0FC2226
:101A8300D083D082E9C0E0E493A3C386F0C5F09588
:101A9300F0F908E493A386F0C5F095F0700BE49396
:101AA300A3C3994005E9048002A3E475F002A425C9
:101AB30082F582E5F03583F583D0E0F9E493A3C0A2
:101AC300E0E493C0E022D083D082ECC0E0EDC0E03C
:101AD300E493A3FCE493A3FDED4C600D121B15EC02
:101AE30024FFFCED34FFFD80EFE493A3FCE493A318
:101AF300FDED4C600D121B54EC24FFFCED34FFFD97
:101B030080EFD0E0FDD0E0FCE493A3C0E0E493C019
:101B1300E022C0E0C3E49396087401939618400F43
:101B2300E49366700808740193661870007019A333
:101B3300A3C3E49396087401939618A3A3400DD00E
:101B4300E0D0E0D0E0021B05A3A3A3A3A3A3D0E0AE
:101B530022C0E0C0F088F0E4936670080874019333
:101B630066187000A8F0A3A3700BD0F0D0E0D0E00B
:0C1B7300D0E0021B05A3A3D0F0D0E022BC
:101B800074F6121898EAFEEBFF8C088D09EE2434E7
:101B9000F8E43FF9E8FCE9FDEE2435121E4CFAEEBC
:101BA0002437121E4CF88508F0A4C885F00A850970
:101BB000F0A4250AF9EA28F8E439F97A257B00121D
:101BC0001731EA8C828D83F0FA131313541FF8EE49
:101BD00028F8E43FF9E8245DF582E439F583E0C0B4
:101BE000E074075AF8D0E0B800028004C313D8FCB0
:101BF000A2E0EE50082434F582E43F801824361227
:101C00001E4CF5F0EA84A8F0EE28F8E43FF9E82449
:101C100038F582E439F583E0F97F0302194474F75B
:101C2000121898EAFEEBFFEE2434121E4CC0E0EED0
:101C30002435F582E43FF583D0E0F08E828F83A3D4
:101C4000A3A3A3A3A3A3C082C0838E828F83A3A3D5
:101C5000A3A3A3E0F8A3E0F9D083D082E0C398F572
:101C600008A3E099F509EE247F121E4C6401703E32
:101C7000EE2480F582E43FF583C082C0838E828F9C
:101C800083A3A3A3A3A3E0240108A3E03400F9D015
:101C900083D082E0687003A3E06970127CC07D0687
:101CA000120B0BEE247FF582E43FF583E4F0AC08E1
:101CB000AD09EEFAEFFB121B80E9F91223C37F0294
:101CC00002194474EF121898900369E064086005E3
:101CD000E06407702A9061C8E06024900397E0F404
:101CE000601DE0F875F00DA4C8AAF02AF9749928CF
:101CF000FE740339FF8E828F83A3A3A3E0700302D7
:101D00001DD1906060E0C0E0EE2468F582E43FF50C
:101D100083D0E0F0750CFC750D06750800750900A0
:101D2000E5D914F50AE5D95403F50E60127403657C
:101D30000E6043E50A600AEE2467121E4C700280B2
:101D4000759006F7E06401601F121E4960047A0472
:101D500080027A00E50AC39AFA95E0FB1209B58A77
:101D6000088B09EA45097005120D8D8064121E4921
:101D700070048A0C8B0DE50A6012850C82850D8338
:101D8000F50BE5D9F0A3150BE50B70F6121E4960B3
:101D90004474FC250AF50A780C121A3FAC0AA90E05
:101DA000EEFAEFFB120BD174021217D2E97026AAD9
:101DB00008AB091212AF793D8E828F83A3A3A3A330
:101DC000E0FA7B0012082FEEFAEFFB120B2F120C39
:101DD000317900806F7403650E6051850A107511AA
:101DE000007810121A3FAC0CAD0DAA08AB09120B0B
:101DF0009574021217D2EE2468121E4C648070048F
:101E0000747F8001E0F50C780C121A43E50EF50C96
:101E1000780C121A43A90AAC08AD09900397E0FAAE
:101E20007B001207FF74021217D28013900369E03F
:101E30006408700BAC0CAD0DEEFAEFFB120C011246
:101E40000D9979017F0A021944EE2483F582E43F5B
:101E5000F583E02274F212189874FC1217BCEAFEA3
:101E6000EBFF8909A2AFE433F508C2AF021F1EE001
:101E7000601B780C121A3FAC0BA90EEEFAEFFB12A6
:101E80000BCB74021217D27404250BF50B740125C9
:101E90000BF5D9850ED9E50B6018F50A850C8285FE
:101EA0000D83E0F5D9A385820C85830D150AE50A1B
:101EB00070EA75E195EE2463F8E43FF97A007B005F
:101EC000A2AFE433F50BC2AF88828983E0FCA3E0C4
:101ED000FDEC4D603A88828983E0FAA3E0FB8A82B8
:101EE0008B83E0FCA3E0FD88828983ECF0A3EDF016
:101EF0008A828B83E4F0A3F088828983E0FCA3E0EC
:101F0000FDEC4D700A88828983A3A3E4F0A3F0E579
:101F10000BA2E092AF1212AF9006C7E004F0EE24DD
:101F200063121E4CF8A3E0F9E8496064EE246312E2
:101F30001E4C2402F8A3E03400F988828983E582EC
:101F40002402F50CE43583F50DE0F50BA3E0F50E66
:101F5000EE2462121E4C640170369061D0E0F812DB
:101F60001E4960047C0480027C007480C398FA954A
:101F7000E0FBE50B2CF8E43400F9E82402F850010A
:101F800009C3EA98EB99A2D265D0334003021E6FD1
:101F90009006C7E0604D9006C8E0F89006C7E0C321
:101FA00098500C74026509703A9006C9E060348E4E
:101FB000828F83A3A3A3A3E0851882851983121FB0
:101FC000F37402121808E8121FF39006C6E028F016
:101FD0007402121822AA18AB197901120859900636
:101FE000C7E4F0E508A2E092AF74041217D27F07AD
:101FF000021944F0A3E4F09006C7E0F822000000C4
:10200000851A87851BC622C0E074EB121984A2AF23
:10201000E433F508C2AF759B00906182E0A2E05006
:1020200030E591A2E0502A7591FE7401651A702185
:1020300012219A120CC1122188121A521222FF7414
:10204000041217D2E9640170057901120CF1121C17
:10205000C3906182E0A2E5505DE591A2E55057751D
:1020600091DF900369E064076005E06408702F1257
:10207000219A7401651A703E120CC1122188121A3D
:10208000521222FF74041217D2E96401700579011B
:10209000120CF17901EEFAEFFB121E548018E06485
:1020A0000D701390038BE004F064287002E4F07A62
:1020B00000E0F9120D9F906182E0A2E64003022148
:1020C0005DE591A2E6400302215D7591BF90036931
:1020D000E064057008120CA9120CB58003120CAF55
:1020E000751A00120D0FE990036AF07900120CF1D5
:1020F000120A757A017B00900368E0F912127F9052
:102100007803E0644270569006FBE014F0704EC213
:10211000AF12211400781DD0E0F618D0E0F6E59F4C
:102120005407F87005750DFF8003750D7FC4C0E07E
:10213000781CE6F50A08E6550DF50B740B780A12C3
:10214000179AD0E0250AF8906270E0A2E740F8E81C
:10215000C333906272F0906270E0D2E0F0906181DF
:10216000E0A2E35009E5E9A2E3500375E9F7A3E033
:10217000A2E75009E591A2E7500375917FE508A217
:10218000E092AF7F080219E38E828F83E0F8A3E02C
:10219000C82416F582E438F58322900397E0F87599
:1021A000F00DA4C8AAF02AF9749928FE740339FF27
:1021B00022C0E0C0D0C082C083906183E0A2E05022
:1021C00009E5BFA2E0500375BFFEE0A2E15009E5BA
:1021D000BFA2E1500375BFFDE0A2E25009E5BFA236
:1021E000E2500375BFFBE0A2E35009E5BFA2E35054
:1021F0000375BFF7E0A2E45009E5BFA2E450037500
:10220000BFEFE0A2E55009E5BFA2E5500375BFDFCF
:10221000E0A2E65009E5BFA2E6500375BFBFD08338
:10222000D082D0D0D0E032C0E074F2121984E5A799
:10223000A2E6500FE5A1A2E6500953A7BF75A1BFC2
:1022400012227BE5A7A2E5500CE5A1A2E5500653BA
:10225000A7DF75A1DFE5A7A2E15009E5A1A2E15042
:102260000375A1FDE5A7A2E2500CE5A1A2E250068C
:1022700053A7FB75A1FB7F010219E374F7121898AD
:10228000751A01900369E064067015120C558A8274
:102290008B83A3A3A3A3A3A3E0FAA3E0FB120C9751
:1022A000A2AFE433FED2AF90036FE0640170187AFE
:1022B000207B00900368E0F91213997A207B00904C
:1022C0000368E0F9121285906182E0D2E6F0900690
:1022D000F8E0602185C61B801690036EE0640170F3
:1022E00008E5C654F84405F5C653BEFC1220007438
:1022F00001651A60E4EEA2E092AF7F020219447415
:10230000F11218988A088B098C0A8D0B90839278A9
:102310000812163B740F121808780C12167490836A
:1023200092780C12163B7808790C1214509083D2D4
:1023300050107808790C12160078081214704014A6
:10234000800E780C7908121600780C121470500464
:102350007901800279007F0802194474ED121898FF
:102360008A088B098C0A8D0B908392780812163B91
:102370007413121808780C121674908392780C1249
:10238000163B780C790812145040117808790C1219
:102390001600AA08AB09AC0AAD0B802275100075B7
:1023A00011007512007513017810790C121600785F
:1023B0001079081215C7AA10AB11AC12AD137F0C1F
:1023C000021944C082C083E9906000F0D083D082BB
:1023D00022C0E074F2121984A2AFE433FED2AFC27D
:1023E000C0E5D1A2E4500675D10F1211D1EEA2E0E2
:1023F00092AF7F010219E3C0E074F2121984A2AF18
:10240000E433FED2AFE589A2E150031211237589AE
:1024100000C2C5EEA2E092AF7F010219E3C0E074F2
:10242000F2121984A2AFE433FED2AFE58BA2E050E2
:1024300003121123758B00C2E880D8C0E0C0D0E839
:10244000C0E0E9C0E0A9A8D2AFC2C7E9A2E7E4337F
:10245000F8E9A2E792AFD0E0F9D0E0F8D0D0D0E030
:1024600032C0E0C0D0E8C0E0E9C0E0EAC0E0C0822D
:10247000C083A2AFE433FAD2AF900F62E0F8A3E0DA
:10248000687008539AFBA374018022C2E9900F621E
:10249000E0F8740128F074E228F582E4340EF58344
:1024A000E0F5C1900F62E0C394804002E4F0EAA23C
:1024B000E092AFD083D082D0E0FAD0E0F9D0E0F85B
:1024C000D0D0D0E032C2AF02000022002020202075
:1024D00020202020202828282828202020202020D4
:1024E00020202020202020202020202088101010B4
:1024F000101010101010101010101010040404040C
:102500000404040404041010101010101041414180
:1025100041414101010101010101010101010101EB
:10252000010101010101011010101010104242427E
:1025300042424202020202020202020202020202BB
:10254000020202020202021010101020FFFFFFFF21
:10255000FFFFFFFFC082C083E9901D48F0D083D009
:102560008202011F74F612182CE99002DCF090032D
:102570003BE0F508750900740278081217A9AA084B
:10258000AB091212F79002DD122F179002DD123301
:1025900004606F90033BE075F003A4FAABF01212F5
:1025A000F79002FA122F179002FA123304700B9070
:1025B00002DD1232D51212FD80489002FA124269F1
:1025C0007AFF7BFF1210A57A0080198A087509002E
:1025D000740278081217A9123D1174FF122717E42C
:1025E000F0A3F00A90033BE0F8EAC39840DD7905D8
:1025F0001206F79002DCE0F91205E37A817B0712FC
:102600000955023DB474F412182C8A088B09EB5456
:102610008060479002DCE0F91212678A0A8B0BAEE9
:102620000AAF0BEE4F602A8E828F83E064B0701A7F
:10263000120709E960148E828F83A3A3A3A3E0F994
:10264000EE2405FAE43FFB1206D9EEFAEFFB121274
:1026500055AA08E5096480FB80047A007B00022803
:102660006774F212182C74FB1217BCEAFEEBFFEE33
:102670004F60457403121808EEF0A3EFF08518823E
:10268000851983ECF0A3EDF07402121808E9F0AAA2
:1026900018AB191205DDE9F50870757413121808E6
:1026A000E0F50AA3E0F50BE50A450B60638E828F27
:1026B00083122CA0EE4F700575080280537A067BBA
:1026C000001212F78A0C8B0DA80CA90DE8497005B1
:1026D000750813803B88828983E4122717EEF0A3E4
:1026E000EF122833E50AF0A3E50BF09002E0122880
:1026F0002C9002E06017E0FCA3E08003EAFCEBFD15
:102700008C828D8312282C70F38C828D8312392C4D
:10271000A90874050244E9F0A312424BA32274F203
:1027200012182C8908890C750D007403780C121787
:10273000A9850C0A850D0B9002DFF09002DD12379F
:102740003712282A602E1212FD7900801D890C751F
:102750000D007402780C1217A99002DD123BD0888C
:1027600082F583A3A3E4F0A3F00990033BE0F8E92A
:10277000C39840D990033BE0FA850AF0A4CAA8F0B8
:10278000850BF0A428FB1212F78A0C8B0DAE0CAF50
:102790000DEE4F700302282090033BE0FC850AF009
:1027A000A4CCA8F0850BF0A428FD790012123D7C82
:1027B0000080318D0C750D007403780C1217A98AF6
:1027C000828B8312282588828983E4F0122832A321
:1027D000A3F0A3F00DEDC3950840D8EE250AFEEF57
:1027E000350BFF0C90033BE0F8ECC39850288C0CA1
:1027F000750D007402780C1217A99002DD122825BD
:10280000E82402500109FAE9FB8A828B83EEF0A3E7
:10281000EFF07D0080BFE5089002DFF079008002D4
:1028200079130244EC123BD4F922A3A31232D9EA61
:102830004B22A312424BA3A3A32274F412182C79A7
:1028400000EAA2E0501F7508337509837808121A50
:102850003F79107C047D007A4A7B1D1206F17402D8
:102860001217D2E9F980007F040218FEC082C083EB
:102870009002E0123304601C88828983A3A3E06A7B
:102880007003A3E06B8882898370E8A3A3A3A312DB
:1028900032D580047A007B0002255D74F212182C78
:1028A00074FD1217BCEAFEEBFF851882851983E4DC
:1028B000F0A3F074021218087401F01233017014BE
:1028C0001208A71212F79002E3122F1712330170A9
:1028D00003022A2D123017EE2404F50AE43FF50B0B
:1028E000850A82F583E024FE603C24FC607424FEAB
:1028F000607E24FE700302297D24FE700302298A73
:1029000024FE700302299724FE70030229A424FEEA
:1029100070030229B124FC70030229D224FE700343
:102920000229EA022A261208A79002E5EAF0A3EBA0
:10293000122A39120253E96003022A269002E51294
:102940001A568E828F83A3A3A3A3A312426985087C
:10295000828509831232D51206C174021217D2027F
:102960002A26AC18AD19EEFAEFFB12070F0229F573
:10297000AC18AD19EEFAEFFB1207158078AC18AD64
:1029800019EEFAEFFB12071B806BAC18AD19EEFACB
:10299000EFFB120721805EAC18AD19EEFAEFFB12C7
:1029A00007278051AC18AD19EEFAEFFB12072D8006
:1029B000447402121812880C890D780C121A3F7494
:1029C00002121822EEFAEFFB12073374021217D22A
:1029D0008023AC18AD19EEFAEFFB120739E9F87055
:1029E000167402121808E4F0803CAC18AD19EEFA27
:1029F000EFFB12073FE9F8E8602C8E828F83A3E09B
:102A000064146022850A82850B83E09002E5F085DC
:102A100018828519831232D59002E6122F17E8A387
:102A2000122A3912024DEEFAEFFB120697740212C7
:102A30001808E0F974030244E9F07CE57D0285089A
:102A4000828509831232D92274E812182C74FA1282
:102A500017BC7404121808ECF0A3EDF08A128B1363
:102A6000EA2405F50EE43513F50FEA2402F510E427
:102A70003513F511851082F5831232D512038B8A36
:102A80000A8B0B7508007C037D0079007AE57B02D8
:102A900012123DE50E2402F516E4350FF517740207
:102AA000121812880C890D780C121A3F850E828537
:102AB0000F83A3A3A3A3E0F50C750D00780C121AE5
:102AC0003FE50E2405F50CE4350FF50D780C121AD0
:102AD0003F8516828517831235DC1205FB740612BA
:102AE00017D28A0C8B0DE50C450D7003022C698002
:102AF00020851882851983E088828983F0050885FE
:102B00001882851983A3E0C0E0122CAAD0E0F0055A
:102B100008E50A24FBFAE50B34FFFBC3E5089AE459
:102B20009B4003022C697E007F00851282851383FF
:102B3000A3A3A3A3E0F5097809121A43E4F514F559
:102B4000157814121A3F7514E27515027814121ACA
:102B50003F9002E3121A567409121808121A56E529
:102B60000A24F9F9AC0CAD0D85108285118312325F
:102B7000D512076974091217D2E96003022C0A857D
:102B80000E82850F83A3A3A3A3A3A3A3E0F89002BF
:102B9000E2E0687075E0F5148E157814121A3F1291
:102BA0004266850E82850F83A3A3A3A3A3A3A3A339
:102BB0001232D512123774021217D2E9604C900209
:102BC000E6123304703BE4F5147814121A3F7CFFCC
:102BD0007DFF79078510828511831232D51206D3C5
:102BE00074021217D212330A7017850E82850F8372
:102BF0001244037404121808123CC412360D022C3D
:102C00009D850C82850D83122CA0A818A919881403
:102C100089157814121A3F7404121808121A56856E
:102C20001682851783122F0D12060774041217D20D
:102C30008A0C8B0DEE4F7003022AE6122CAAEE12BC
:102C40002CB51235C3EF122CB5F8A3E03400F9E52A
:102C50000C450D6003022AF18882898374FFF00518
:102C600008122CAA74FFF00508E508601A13135423
:102C70003F122F1D12025FE960099002E61232D561
:102C80001212AF79008016850E82850F83124403DD
:102C90007404121808123CC412392C790A023596B1
:102CA000A3A3A3A3E0FEA3E0FF22A8089002E6E00E
:102CB000281235C322F00508089002E6E0282274A5
:102CC000E812182C74FA1217BC7402121808122F8A
:102CD000177404121808ECF0A3EDF074021218082F
:102CE000E024051235ACE0F50CA3E0F50D740212FA
:102CF0001808E02402F510A3E03400F511851082D5
:102D0000F5831232D512038B750800750900EA2489
:102D1000FCFEEB34FFFF8008050CE50C7002050D8E
:102D2000A808C3EE98EF94005003022EC9A818A972
:102D300019880E890F780E121A3F85148285158323
:102D4000A3A3A3A312426D121A3FE5142405F50EA6
:102D5000E43515F50F780E121A3F85148285158318
:102D6000122F0B1205FB74061217D28A0E8B0FEA74
:102D7000450F7003022EC9EA2404F516E4350FF559
:102D800017851682F583E0F50CA3E0F50D85188212
:102D90008519831242698A828B83A3A3A3E0F985F4
:102DA00010828511831232D51205E9E9F509600315
:102DB000022EC974021218081235D3F509780912C7
:102DC0001A43E4F512F5137812121A3F7512E275E0
:102DD00013027812121A3F9002E3121A5674071265
:102DE0001808121A56EEF9AC0EAD0F851082851137
:102DF000831232D512076974091217D2E9F50960F6
:102E000003022EC9E508703FE4F50EF50F780E12A7
:102E10001A3F7CFF7DFF790985108285118312326C
:102E2000D51206D374021217D21235F9700D74043C
:102E3000121808122F007911022EFD9002E2E024F0
:102E4000029002E6F080149002E6E0FA9002E2E0DE
:102E5000790024025001096A497072A8089002E2C0
:102E6000E0FAE82AFAE43400FBEE9AEF9B405A8538
:102E70001682851783E0C0E09002E7122CAFD0E005
:102E8000F00508851682851783A3E0C0E00890024C
:102E9000E7122CAFD0E0F005089002E212426D126A
:102EA0001A3F124266A8081235A0121225740212A7
:102EB00017D29002E2E02508F50874FF650C700453
:102EC00074FF650D6003022D18E508601F9002E68F
:102ED000E0F5F0E50884122F1D120265E960099003
:102EE00002E71232D51212AF79008011E5097003A2
:102EF00075090A7404121808122F00A909023596E0
:102F000012373BE50CF0A3E50DF022A3A31244F821
:102F1000AA0CAB0D22A3A3EAF0A3EBF0229002E5EA
:102F2000F07CE57D028510828511831232D92274EE
:102F3000EC12182C74FC1217BC123A3C74021218D2
:102F4000221232CF1206018A0C8B0DEA450D700356
:102F5000023007123017A818A919881089117810A3
:102F6000121A3F7CFF7DFF790B8508828509831249
:102F700032D51206D374021217D212310D700C859D
:102F80000A82850B8312360A0230148E828F83A345
:102F9000A3A3A3E0F5127812121A43E4F512F51375
:102FA0007812121A3F7512E57513027812121A3F41
:102FB0007810121A3F7409121808121A567409125E
:102FC0001808E0F9AC0CAD0D850882850983123232
:102FD000D512076974091217D2E9FE70157CE57DD8
:102FE000028508828509831232D512026BE97009C5
:102FF000802074166E70027E009002E61232D512A6
:1030000012AFEE7004800B7E01850A82850B83125D
:103010003929EEF902393EEE2402F508E43FF509BC
:103020002274EC12182C74FC1217BCEAFEEBFF8C15
:103030000E8D0FEE2405F508E43FF5097402121811
:10304000228508828509831232D51206018A0C8BEB
:103050000DEA450D70030230FDEE2402F50AE43F4F
:10306000F50BA818A919881089117810121A3F7C3D
:10307000FF7DFF790D1232CF1206D374021217D2E0
:1030800012310D700B85088285098312360A807A09
:103090008E828F83A3A3A3A3E0F5127812121A43A2
:1030A000850882850983A3A3121A567512E5751344
:1030B000027812121A3F7810121A3F740912180877
:1030C000121A567409121808E0F91232CB12076965
:1030D00074091217D2E9FE700F7CE57D021232CF1F
:1030E000120271E97009802074166E70027E0090E1
:1030F00002E61232D51212AFEE7004800B7E01850B
:103100000882850983123929EEF902393E123314F7
:10311000F510A3E0F511EA45112274E812182C7499
:10312000FE1217BC8A168B178C148D15EA2405F530
:103130000CE43517F50DEA2402F50EE43517F50F0A
:10314000850E82F5831232D512038B8A088B09759E
:103150000B007C037D0079007AE57B0212123D753D
:103160000A00E50814F5100424FFF508E50934FF0A
:10317000F50980549002E5E0FA9002E2E0F8EA28CE
:10318000F8E43400F9E50898E50999500D9002E556
:10319000E0F8E510C3989002E2F0E0F51275130034
:1031A0007812121A3F1242669002E6E02AFAA3E071
:1031B0003400FB12122574021217D29002E2E0F8DA
:1031C0009002E5E028F0050A850C82850D83A3A313
:1031D000123BE040030232B09002E5E0C39508E400
:1031E000950940030232B0AE0AEE2EFEE433FF1220
:1031F00032EFAC18AD19124281E439FB1206018A94
:10320000128B13AC12AD13EC4D701B750B01123207
:10321000DF12392D9002E612282C60031212AFA99A
:103220000B7402023598851682851783A3A3A3A386
:10323000E0F50B780B121A43E4F512F5137812122D
:103240001A3F7512E27513027812121A3F9002E3C8
:10325000121A567407121808121A56A910850E82EF
:10326000850F831232D512076974091217D2E9F556
:103270000B709B9002E61233046003023174E4F594
:1032800012F5137812121A3F7CFF7DFF790F850E1D
:1032900082850F831232D51206D374021217D2120E
:1032A000330A60030231741232DF12360E02322109
:1032B0007CE57D02850E82850F831232D51202775E
:1032C000E960030232147900023221AC0CAD0D85A5
:1032D0000A82850B831232D922E0FAA3E0FB221284
:1032E00032EFE0FAA3E0F9EA85148285158322859E
:1032F0000C82850D83E02EF8A3E03FF98882898354
:10330000229002E3124407E84922123314F8A3E0A2
:10331000F9E849229002E6EAF0A3EBF09002E6E039
:103320002274E812182C74FA1217BC7404121808CC
:10333000122F178C168D177404121808E02405F547
:103340000EA3E03400F50F7404121808E0240212F2
:1033500035AC1232D512038B8A0A8B0B7F007E00AC
:10336000A818A919880889097808121A3F850E82B9
:10337000850F83A3A3A3A3E0F5088E097808121A8A
:103380003FE50E2405F508E4350FF5097808121A13
:103390003F850E82850F83A3A31235DC1205FB74D3
:1033A000061217D28A0C8B0D80291235CDF00F1220
:1033B00035CDF00F9002E2123918121A3F12426610
:1033C000EFF81235A012122574021217D29002E201
:1033D000E02FFFE50C450D700302345C85188285F3
:1033E0001983123A4EA3A3A3E0F9851482851583AD
:1033F0001232D51205E9E9FEE50C2404F510E43596
:103400000DF511EE705074041218081235D3F5083A
:103410007808121A43E4F508F5097808121A3F757E
:1034200008E27509027808121A3F9002E3121A5650
:103430007407121808121A56E50A24FAF9AC0CADF2
:103440000D8514828515831232D51207697409120D
:1034500017D2E9FE60391235E912392CEF700302F8
:1034600035839002E6E0F5F0EF849002E5F07CE52C
:103470007D028514828515831232D512027DE960A2
:10348000099002E71232D51212AF79000235968FF9
:1034900008EF703BE4F512F5137812121A3F7CFF27
:1034A0007DFF79118514828515831232D51206D3DA
:1034B00074021217D21235F970091235E912360D5D
:1034C0000235969002E2E024049002E6F080359006
:1034D00002E2E0F89002E6E0FAE82404FCE43400BA
:1034E000FDEC6A4D6003023462E50A24FAFAE50B4A
:1034F00034FFFBE50828F8E43400F9EA98EB99502A
:1035000003023462851082851183E0C0E09002E7F7
:10351000E02FF8A3E034008882F583D0E0F00F8537
:103520001082851183A3E0C0E01235BAD0E0F00F1D
:103530007402121812880889097808121A3F740256
:10354000121808121A56850E82850F83122F0B123D
:10355000060774041217D28A0C8B0DEA450D70030E
:103560000233AA7402121808E0C0E01235BAD0E0A3
:10357000F00F7402121808A3E0C0E01235BAD0E0D0
:103580000233B2EE70027E0A850E82850F831235F9
:10359000EF12392CEEF974061217D27F100218FEC2
:1035A0009002E7E028FAA3E03400FB22F514A3E040
:1035B0003400F515851482F583221235BE2290025F
:1035C000E7E02FFAA3E034008A82F583221235BEA9
:1035D00074FF2212373BA3A3A3A3E0221244F88571
:1035E0000E82850F831232D92285108285118312B3
:1035F0004407851682851783229002E7EAF0A3EB41
:10360000F09002E7124407E84922123932E8F0A3A9
:10361000E9F079112274EA12182C74FE1217BC8A90
:10362000088B098C128D13EA2405FEE43509FFACE2
:1036300018AD198E828F831232D51206018A0C8B37
:103640000DEE2406F50EE43FF50FEA450D7003027A
:10365000370DE5082402F50AE43509F50B8A828B5B
:1036600083A3A3A3E0A2E5502885188285198312BD
:1036700032D512075D8A108B11EA4511602079124C
:103680001232CB85108285118312182AE9F50C704D
:103690007F850E82850F83E0600979528011750C59
:1036A0000E806D850882850983A3A3A3A3E0F9E4B6
:1036B000F508F5097808121A3F8E828F83A3A3E0DC
:1036C000F5087808121A3F8E828F83A3A3A3121ADB
:1036D000568E828F831242691232CF12076F7406A0
:1036E0001217D2E9F50C7011850E82850F83E070F8
:1036F0002D1232CF12028380257416650C7011755D
:103700000C007418121808123737E48010750C0179
:103710001243FF851282851383E8F0A3E9F0850E3A
:1037200082850F83E0600479008002A90C74021284
:1037300017D27F0E0218FE12373B22E0F8A3E0F505
:103740008388822274EC12182C74F71217BC8A0A30
:103750008B0B8C108D11EA2405FEE4350BFF750CE4
:1037600000AC18AD198E828F831232D51206018AF1
:10377000088B09EA45097003023903E50A2402F5BA
:103780000A5002050B8A828B83A3A3A3E0A2E55013
:103790002F8518828519831232D512075D8A0C8B0A
:1037A0000DEA450D604F7912AC08AD091232CF8594
:1037B0000C82850D8312182AE9F50C600302390684
:1037C000850A82850B83E0F508A3E0F509AA08FBCA
:1037D000120751EA4B70197AFF7BFF120751EA4B2F
:1037E00070030238F98A828B83E508F0A3E509F0BB
:1037F0007508008008750C0E02390605089002DF76
:10380000E0F8E508C39840030238F985080E750F03
:10381000007403780E1217A98A828B83A3A3E02574
:103820000EF8A3E0350F123CCD70D08E828F83123C
:103830003921122F178E828F83A3A3123921122FC1
:1038400015EE2404F508E43FF509850882F583E0C8
:1038500088828983A3A3A3A3F0A3E4F0EE2405F553
:103860000EE43FF50F850E82F583123921A3A3A341
:10387000A3122F157512077513007812121A3FEE56
:10388000FCEFFD740412181A12122574021217D2DA
:10389000E4F5127812121A3F850882850983E0FC4C
:1038A0007D0079171232CF1206D374021217D27428
:1038B00007121808122F177407121808E0FA4B6045
:1038C0003D850882850983123918121A3F850E82B8
:1038D000850F8312426912122574021217D27402E4
:1038E0001218221232CF120289E9602674071218C8
:1038F000081232D51212AF8019750C098008750CA8
:10390000118003750C011243FF851082851183120B
:10391000392CA90C74098028E0F50875090078088D
:10392000221232D98882898322123932E8F0A3E93F
:10393000F022E0F8A3E0F9850E82850F832274045B
:103940001217D27F0C0218FE74EC12182C123A3C9B
:10395000751000EE2402F50CE43FF50D850C82F5A0
:10396000831232D51207518A088B09EA4509700380
:10397000023A20850A82850B83E064016003023AE3
:1039800015AC08AD09AA0AAB0B120745E9606E85B4
:103990000882850983122CA2EE2406F50AE43FF57D
:1039A0000B8E828F83A3A3121A568E828F83A3A3BA
:1039B000A3A3121A56850A82850B83121A56791808
:1039C0008E828F83123A4E1232D512076F7406120E
:1039D00017D2E9F8741668700B850A82850B83E4A8
:1039E000F0A38014E860128E828F831232D5850E88
:1039F00082850F83EAF0A3EBF088108018780E120E
:103A00001A3FAC08AD09EEFAEFFB12074B74021235
:103A100017D2E9F510AA08AB09120757E510700E86
:103A2000850C82850D831232D512028F800974169F
:103A300065107003751000A910023943EAFEEBFF10
:103A40008C0E8D0FEE2405F50AE43FF50B2212448F
:103A5000F8850C82850D832274EA12182C750800F3
:103A60007509007E007F00750A00EC2402F510E461
:103A70003DF5118035EC65087003ED6509600302C2
:103A80003B0D88828983A3A3E06A7003A3E06B7077
:103A90007C88828983A3A3A3A3124403EE28FEEFAC
:103AA00039FFEA28FAEB39FB050A123BDD503A856B
:103AB0000A0C750D007403780C1217A98510828505
:103AC0001183123BD0123CCD601FE508450970A55B
:103AD0008C088D0988828983122CA088828983A30F
:103AE000A3E02EFAA3E03F80BEE50AC39402500390
:103AF000023BCB750800750900EE4F6010EEFAEF3F
:103B0000FB1212A98A0E8B0FEA450F70057900028D
:103B10003BCD750B00023BA0850B0C750D007403AB
:103B2000780C1217A9851082851183E0250CF50CFD
:103B3000A3E0350DF50DE50C2406F514E4350DF57F
:103B400015851482F583123CD26042E50C2404F5FD
:103B500012E4350DF513851282F583121A56E50E1F
:103B60002508FAE50F3509FB12122574021217D247
:103B7000851282851383E02508F508A3E03509F551
:103B8000098514828515831232D51212AFE50B60B8
:103B90000D7C087D007900AA0CAB0D12123D050BBF
:103BA000E50BC3950A5003023B18851082851183EB
:103BB00012440388828983A3A3A3A3A3A3E50EF0E1
:103BC000A3E50F122833EEF0A3EFF07901023732AC
:103BD000123BD422E0250CF8A3E0350D229002DF41
:103BE000E0F8E50AC3982274F012182C8A0E8B0FA5
:103BF0008C0A8D0B750D00750C0080507916EE2423
:103C000006F508E43FF5098E828F83A3A3121A56A6
:103C10008E828F83A3A3A3A3121A568508828509D7
:103C200083121A56850E82850F83A3A31232D512F2
:103C3000076F74061217D2E9F50D7416650D706CD6
:103C4000850882850983E4F0A3F0050C9002DFE08B
:103C5000F8E50CC3985066AA0C8A0875090074032D
:103C600078081217A9850A82850B83A3A3123D1C2D
:103C7000E8FEE9FF8E828F83123CD26040EA240185
:103C8000F508E43400F5099002DFE065087002E50C
:103C900009601488828983A3A3A3A3A3A3A3A31267
:103CA00033046003023BFC7918023BFEE9609B127F
:103CB00043FF7410121808123CC412392CA90D7F4E
:103CC000080218FEE0FAA3E0F5838A8222F98882CE
:103CD00089831244F8EC4D2274F612182C7C008073
:103CE000010C90033BE0F8ECC398501E8C0875095A
:103CF00000740278081217A9123D11E06A7003A33C
:103D0000E06B70DDE8FAE9FB80047A007B00023D9D
:103D1000B49002DD123D1C8882898322E02508F8D8
:103D2000A3E03509F92274F212182C8A088B097560
:103D30000A0080278E828F83A3A3A3A312282A6060
:103D4000031212AF7C087D007900EEFAEFFB12122D
:103D50003D8E828F83E4F0A3F0050A123BDD5027ED
:103D6000850A0C750D007403780C1217A98508825A
:103D7000850983A3A3E0250CFEA3E0350DFF8E8209
:103D80008F8312330470AD85088285098374FFF038
:103D9000A3F00244EC74F612182C1207038A828BEB
:103DA00083E582458370067A007B008007A3A3A386
:103DB000A31232D57F020218FE74F412182C89085F
:103DC0008C828D83E06402703C1243A2FEA3E0F972
:103DD000EEF874026870037429697029750A027517
:103DE0000B00780A121A3F7410121808121A56742F
:103DF00010121808121A56A9081210AB74061217DE
:103E0000D2E9F98002790102286774E812182C744B
:103E1000FB1217BCE9851882851983F08A168B1767
:103E2000ECFEEDFF7510008E828F83A3A3A3E0A2AA
:103E3000E4502D741D1218081232D512075D8A82C3
:103E40008B83E58245837003024241790AEEFCEFE1
:103E5000FDAA16AB1712182AE9F5106003024244B6
:103E6000741F121808E0F508A3E0F5097421121870
:103E700008E0F50AA3E0F50B7423121808E0F50E2C
:103E8000A3E0F50F8E828F83E0640260030241E2BB
:103E9000A3124403850882850983A3858212858342
:103EA00013EE2406F50CE43FF50D88828983124257
:103EB00081F514E439F5157814121AC901000028A7
:103EC0000128E43E07000228A93F0328173F0029E4
:103ED000D840012903410229A4400329D8400429DC
:103EE0007C41E241E50E450F60030241DD850C8215
:103EF000850D83124403E8FAE9FB8A828B83E0850F
:103F00000A82850B8312428C121A3F8A828B83A30A
:103F1000E0FCA3E0024166E50E450F60030241DDCF
:103F2000850A82850B837401F012427685088285AA
:103F30000983F07C007D008E828F83A3A3A3A3E07E
:103F40002401FAA3E03400FB120601EA4B60408A28
:103F5000828B83E02402F8850A82850B83E028F0B7
:103F6000EA2404F8E43BF988828983E0851282859B
:103F7000138312429A12428C121A3F8A828B83A3B5
:103F8000124269E5082403FAE43509FB02416B8516
:103F90000A82850B83E02404F07C047D007900AA6A
:103FA00012AB1312123D024244E50E450F600302AC
:103FB00041DD124276FEA3E0FF850A82850B837401
:103FC00004F0EE850882850983F0EF85128285135F
:103FD00083F07403121822EEFAEFFB1206018A0C2A
:103FE0008B0DEA450D70030240878A828B83A3A361
:103FF000122CA07401121812880E890F780E121A52
:104000003F7405121808121A567CFF7DFF1206072E
:1040100074041217D28B0FEA450F7033850C82851A
:104020000D8312426D121A3F850C82850D83A312F7
:104030001A567C027D007AF17B8312037974041294
:1040400017D2E9700A740112180874FFF0A3F08EF9
:10405000828F83E064027039750C02750D00780C54
:10406000121A3F8E828F83A3124269E5082404FA54
:10407000E43509FB12122574021217D2850A8285D3
:104080000B83E0240280097401121808EEF0A3EFFC
:10409000F0740112180812425B74011218081242DF
:1040A000520241D7E50E450F60030241DD850C82C7
:1040B000850D831244F1AA16AB171210B1850A823E
:1040C000850B837402F0850882850983EAF08512E6
:1040D00082851383EB0241DAE50E450F600302414E
:1040E000DD124276F8A3E0F9850A82850B8374021B
:1040F000F0E8850882850983F0E9851282851383BB
:104100000241DA850C82850D831232D512121FEA24
:10411000FAF8C3950EE4950F405CE8650E450F7004
:10412000047A008021851882851983E0FCE50E2C35
:10413000FCE4350FFDC3EC98ED94005003E08005DE
:10414000E50ECAC39AFAEA850A82850B83F08A0AC9
:10415000750B00780A121A3F850C82850D83E025C5
:104160000EFCA3E0350FFDAA08AB0912122574025C
:104170001217D2024244751007024244E50E450F61
:10418000705B850C82850D83124403850A82850B42
:10419000837407F08882898312425312424BE08570
:1041A0001282851383F0E82402FAE439FB8A828BB9
:1041B0008312425B8A828B83124252A3A31228325B
:1041C000124260F0E82405F85001098882898312C0
:1041D0004260A312429AA3A3A3A3F0806775100BB9
:1041E0008062741D1218081232D51207038A828B5E
:1041F00083E5824583604A124403880C890DE845B3
:104200000D603E7425121808E0F5107810121A435C
:10421000780E121A3F780A121A3F7808121A3F7461
:1042200007121808E0F9EEFCEFFDAA16AB17850C93
:1042300082850D8312182A74071217D2E9F51080AF
:104240000375100EA9107405023598F088828983D1
:10425000A322A3E0850882850983221242A1F022CD
:104260001242A1A3A3229002E31244F822E0F50E29
:10427000750F00780E22850C82850D8312373BE086
:1042800022E0FAA3E0F8E4C8F9EA2822F08A828B57
:1042900083E0F50A750B00780A2212424B1242A104
:1042A00022E0850882850983A3A32274EE12182CCC
:1042B00074FE1217BC8A088B09ECFEEDFF890AAC6C
:1042C00018AD19EEFAEFFB1206018A0C8B0DEA45C8
:1042D0000D70030243938518828519831232D5121B
:1042E00007038A828B83E5824583700302438EA392
:1042F000A3124403880E890FE8450F700302438E12
:104300007414121808E0F510A3E0F511E50AF50B96
:10431000780B121A437419121808121A56781012D0
:104320001A3F741B121808E0F9AC0CAD0DAA08ABCB
:1043300009850E82850F8312182A74051217D2E997
:10434000F50B705274FE650A604C850C82850D83F6
:10435000E0640270411243A2FAA3E0F9EAF87402A1
:10436000687003742969702E85108285118312424A
:1043700081F50CE439F50D780C121A3FEEFCEFFDD7
:10438000AA08AB0912078774021217D28008750BAE
:104390000E8003750B01A90B74021217D27F0A025B
:1043A00018FEA312440788828983E02274F612184B
:1043B0002C74FE1217BC740C121808124403E88502
:1043C0001882851983F07401121808E9F0E4F508E1
:1043D000F5097808121A3F7508027808121A3F7416
:1043E00004121812880889097808121A3F79FE12F7
:1043F000076F74061217D274021217D2023DB48EE0
:10440000828F8312440722E0F8A3E0F92274F712A6
:10441000182CEAFEEBFF89089002FA12426912108A
:10442000B1EA5402600BA908EEFAEFFB1205F58021
:104430000279017F010218FE74F212182C74FE1228
:1044400017BCEAFEEBFF890A7401650A6014740266
:10445000650A60030244E77901120973E960030207
:1044600044E7EEFAEFFB120751EA4B6003120757DD
:10447000A818A919880889097808121A3F7508022E
:104480007509007808121A3F7508F97509837808CC
:10449000121A3F7CFF7DFF7A017B001205FB740638
:1044A0001217D28038850882850983A3A3A3A3A30A
:1044B000A31244F1EEFAEFFB1210A5E4F50CF50D92
:1044C000780C121A3F7402121808121A567CFF7DDB
:1044D000FFAA08AB0912060774041217D28A088BC8
:1044E00009E508450970BE74021217D27F0602184A
:1044F000FE12373B1244F822E0FCA3E0FD2274F4E4
:1045000012182C8A088B09ECFEEDFF901D48E0F490
:10451000604B7A097B0012124FEA4B60408A828B13
:104520008374B1F0A3E4124560F08A828B83A3A365
:10453000E508F0A3E509124560A3EEF0A3EFF074DF
:104540000C1218081244038A828B83A3A3A3A3A38B
:10455000A3A312392C901D48E0F912125B022867C0
:10456000F08A828B83A3A3A3A322C082C08390611D
:10457000907404F0A37448F0A37402F09061807406
:1045800040F09061BC7403F09061877419F0906200
:1045900065741BF0906249E0C3941390619C4010D5
:1045A0007409F09060667401F090619F7428800D2A
:1045B000740BF0906066E4F090619F742CF01247E9
:1045C000557009C29190036D7467800590036D74F6
:1045D00061F01247A790254CE493F46006E493F948
:1045E000120A697905120D810249E9C082C083E986
:1045F000540FF9906185E0696012E5C654B84441F2
:10460000F5C6E59E5447644170F8E9F053C6B8E535
:104610009E544770FA0249E9C082C083A8A853A8F3
:104620007E906181E4F0A3F0A3F0C2BA539AFEC277
:1046300089759B00C2C275E90075910075BF007550
:10464000A91175B905906181F0A374C0F0A3E4F0DD
:10465000D2BA439A0174805842A80249E9F002494B
:10466000E9C082C08374F81217BC90036B125D67B7
:10467000700302474D90036BE0544060177908AA1D
:1046800018AB19120B77AA18AB191207E790036B36
:10469000E054BFF0E054806010790C7A1C7B071264
:1046A0000B7790036BE0547FF0E0A2E0501E1247BE
:1046B000557009C29190036D7467800590036D7405
:1046C00061F01207ED90036BE054FEF0E0540260DD
:1046D0001E12479A7009D29190036D7471800590F3
:1046E000036D746AF01207ED90036BE054FDF0E087
:1046F000540460109025501247AA1207F390036BE0
:10470000E054FBF0E0540860109025511247AA12C3
:1047100007F390036BE054F7F0E05410600D12477C
:10472000A71207F390036BE054EFF0E05420600A07
:104730001207F390036BE054DFF0A3E05401600D27
:10474000120A871207F990036CE054FEF074081205
:1047500017D20249E990619A12499C9006F6E064EA
:104760000122C082C083E9600514601780291247C6
:10477000557009C29190036D7467801A90036D742F
:1047800061801312479A7009D29190036D74718001
:104790000590036D746AF00249E990619A12498E9E
:1047A0009006F6E0640122902552E493906186F031
:1047B0002274EA12182C74F41217BC90837EAC1881
:1047C000AD1974041216CF90255093F4600302497A
:1047D00023907808E0C39402500302490790831D98
:1047E000740412182274081216CFA818A919881474
:1047F0008915740412181288088909AE08AF097562
:1048000010FF7511FF750EFF7C00750C48750D7853
:10481000801274086C700302489D74096C607E7489
:104820000A6C6079850C82850D8378081216748E67
:10483000828F83A909E50AC9F888127418780812CA
:10484000158FE5124508F8C3E098A3E099850C821E
:10485000850D83780812167440188E828F83741821
:10486000780812158FE5124508F8E0C398F8A3E020
:10487000801A7418780812158FE5124508FAE9FBBA
:104880008E828F831250BEEAC398F8EB99F9C3E881
:104890009510E995115006881089118C0E0CE50CC5
:1048A0002404F50C5002050DECC394135003024888
:1048B0001274FF6510700474FF65116024850E0882
:1048C000740278081217A974482508F5827478359F
:1048D00009F5837808121674851482851583E50816
:1048E000F0EE2402FE50010F851482851583A38506
:1048F0008214858315740C121808E5826E7003E526
:10490000836F60030247FF7508017509007808127C
:104910001A3F74021218227A547B091210FF740293
:104920001217D2740C1217D27F0E0218FEC082C06A
:10493000839061AE7468F0A3746AF090624574FB72
:10494000F0A304F053F4FD43FE029006F67401F068
:104950009061A0E0643A90619A701912499C7401C8
:1049600064017009C29190036D7467801E90036D9D
:104970007461801712498E740164017009D291909C
:10498000036D7471800590036D746A02465D743F17
:10499000F0A3745AF09061A0747FF0227433F0A3F6
:1049A0007455F09061A0743AF0227F040218FEC0A2
:1049B00082C0839006D4E0640170119006DAE0644E
:1049C000016019E07006A3E0640160109006EBE05E
:1049D0006401700C9006F1E064017004790C8002AF
:1049E00079008005E0F91223C3D083D08202011F31
:1049F000E0C4333354C02288828983124F7FA88257
:104A0000A983222414F582E438F58322C082C0836E
:104A10009006DE7425F09006DC7401F0A3E4F07AD1
:104A200001FB120CFD124A58241AF582E438F58372
:104A300074ABF0A3740AF09006DBE064017016908A
:104A400006DAE070107901120D5D120D2D120D576E
:104A50007900120D690249E99006CA124DE12274EB
:104A6000F612182C74FA1217BC9006D3E064017089
:104A700008120A939006D3E4F075E1F1124A582423
:104A800015F582E438F5837401F09006D5E06401F1
:104A9000704B908345AC18AD1974061216CF75D9BA
:104AA0000D9006CC1249F04403F5D97582CD75837B
:104AB00006124F7BE58264D37004E583640670F1CF
:104AC000A818A9191249F77406121808E582687027
:104AD00003E5836970EE75E1957901800279001232
:104AE0000D03901D6C124B457413F0A3740CF0A3CE
:104AF000124B45124B45124CB37419F0A3740C12AF
:104B00004CC89006CCE0F97ACD7B06120CDF9006FB
:104B1000DEE0F91223C37901120D09908382121687
:104B200092120D219083AE121692120CEB790012A4
:104B30000D75124A58124A037416F09003697405F1
:104B4000F0040251E0740DF0A3740CF0A32274F78A
:104B500012182C8908A808E875F00DA4C8AAF02A34
:104B6000F9749928FE740339FF9006E3E0F97AE4BA
:104B70007B06120CDF9006F1E070257900120D3FE4
:104B8000EE240CF582EF3401F583E07004790080A7
:104B9000027901EE2406FAEF3401FB120CE58005E0
:104BA0007901120D3F75E1F175D9239006E31249A1
:104BB000F04405F5D97582E4758306124F7BE582D2
:104BC00064EA7004E583640670F175D90075D90054
:104BD00075D90075D90075D90075D900EE24221257
:104BE00050341250537003E9658370F6EE24261298
:104BF000503F2403F8E43583F91250537003E965FC
:104C00008370F6EE242B125048242C125048242D89
:104C1000125048242E125048242F1250482430128B
:104C20005048243112504824321250482433125034
:104C300048245D12503F2405F8E43583F91250539F
:104C40007003E9658370F6EE2437125BE6541FF8B3
:104C5000EE242A125BE6C43354E048F5D975E19599
:104C6000901D6C74DDF0A3740BF0A374E3F0A374D7
:104C70000B124CAA74E9F0A3740B124CC89006F006
:104C8000E0F91223C3908382121692120D219083B1
:104C9000AE121692120CEB90600DE4F07901120D39
:104CA000759003697406F002541CF0A3124CB31201
:104CB0004CB322124CB72274D7F0A3740BF0A37438
:104CC000D7F0A3740BF0A322124CCC22F0901D7AE3
:104CD000124CD8A3124CD822124CB774D7F0A3743C
:104CE0000BF02274EC12182C9006E112583C78104C
:104CF0001216749006F2E0FAF875F00DA4C8ACF044
:104D00002C1259B8FFEE2EFEEF33FF8E0CF50D7509
:104D10000E00750F0085100885110985120A85138C
:104D20000B90835678081215DA7808121A3B851012
:104D30000885110985120A85130B7808790C12155C
:104D4000C77810790C12150FE4F50EF50F78087975
:104D50000C1216008A0C750D007403780C1217A93A
:104D60007808790C1215C7908392780812163BAA1E
:104D700008AB09AC0AAD0B12235B74041217D28A7C
:104D8000088B09A808A909C3EE98EF995006E82EE8
:104D9000F8E93FF9E890600EF0E9A3F0EEA3F0EF38
:104DA000A3F090600D74C1F07F0C0218FEC082C0A9
:104DB000839006CA124DCD9006DE0249E4C082C03F
:104DC000839006E1124DCD9006F00249E4124DE1C8
:104DD000124DD7F0A3F0222406F582E438F583E4DF
:104DE00022E0F8A3E0C82202011F74F612182C1268
:104DF0004F846004780480027800E8240EF8ECC345
:104E0000985003024EB87C0C9006FCE4F0EA24763D
:104E1000F582E43BF583E09006FDF0EA2477124E3C
:104E2000BD9006FE124EC79006FFF0EA2479124E9E
:104E3000BD900700124EC7900701F0EA247B124E86
:104E4000BD900702124EC7900703F0EA247D124E70
:104E5000BD900704124EC7900705F0EA2474F8E4E9
:104E60003BF98A828B83A3A3A3A3A3E0FEA3E0FF65
:104E700088828983E02EF0A3E03F12555A900706FE
:104E8000124EC7900707124FA860177508FC7509E6
:104E9000067808121A3F7903120BCB74021217D24C
:104EA0007C101251EEECFE124F7BDEFB75E1957922
:104EB00004120D277901800279000251E3F8E43BE6
:104EC000F988828983E02212555FA3E02274F612EA
:104ED000182C124F846004780480027800E8240AB9
:104EE000F8ECC3985003024F767E089006FC7401DC
:104EF000F07CC07D0678FD79067F05124F92A8826E
:104F0000A983DFF7EA2480FCE43BFD8A828B83A33C
:104F1000A3A3A3A3E0F508A3E0F5098C828D83E0A9
:104F20002508F0A3E03509F0124F9208A9838C827E
:104F30008D83E088828983124FA860197508FC75FB
:104F400009067808121A3F7C087903120BCB740209
:104F50001217D27E0C74012EF5D975D9037582FC17
:104F6000758306EEFF124F7BDFFB75E19579041226
:104F70000D277901800279000251E3124F7F22E070
:104F8000F5D9A3229061D0E0F87480C398FC124F49
:104F9000AD22124F96228C828D83E0888289831203
:104FA0005DA488828983A322F0124FAD22EA248374
:104FB000F582E43BF583E02274F712182CEAFEEB4D
:104FC000FF9061D0E0706875D91875D90375D90361
:104FD000EE249C12505A1250537003E9658370F608
:104FE000EE24A412504824A5125048249412505A7A
:104FF0001250537003E9658370F6EE248812503422
:105000001250537003E9658370F675E1957908EEE7
:105010002494FAE43FFB120B6B7904EE2488FAE443
:105020003FFB120B6B7904120D2712516880027935
:105030000002541C12503F2404F8E43583F922F591
:1050400082E43FF583E58222F582E43FF583E0F5D3
:10505000D9EE22124F7FE865822212503F2408F8D1
:10506000E43583F92274F612182CEAFEEBFF900661
:10507000FC7406125111121A3F7C017903120BCBFA
:1050800074021217D275D90675D9037582FC75831F
:10509000061251097004E583640770F575E1959077
:1050A0000369E064087010EE246FF582E43F12504B
:1050B000BCEE2471125B7579010251E3F583125D38
:1050C000732274F612182CEAFEEBFF9061D0E070A8
:1050D000339006FC740A125111121A3F7C017903B5
:1050E000120BCB74021217D275D90675D9037582CB
:1050F000FC7583061251097004E583640770F5128C
:105100005165800279000251E3124F7FE58264010C
:1051100022F07508FC75090678082274F612182C1E
:10512000EAFEEBFF9061D0E0703678019006FC74E7
:105130000BF0900369E0640770197508FC750906A7
:105140007808121A3F7C017903120BCB74021217F4
:10515000D278051253B0124F7BDAFB1251658002F0
:1051600079000251E375E195EE246F125D6DEE2436
:1051700071F582E43FF583E8F0A3E9F07901227448
:10518000F612182C1252B16004780480027800E8FC
:10519000240BF8EAC39840447C099006FC7408127A
:1051A00051FD12520CDDFB125BE3601B7508FC75B0
:1051B00009067808121A3F7903EEFAEFFB120BCBBF
:1051C00074021217D27C0D1251E81252A970FB75AD
:1051D000E1957904120D271251688002790080034D
:1051E0001217D27F020218FE1251EE8C08227401AF
:1051F0002CF5D975D9037582FC75830622F0EE244F
:10520000E5F8E43FF97AFD7B067D082288828983F0
:10521000E08A828B8312555FA3A882A9838A828B3E
:1052200083A3AA82AB832274F612182C1252B160A7
:1052300004780480027800E82408F8EAC3984064FF
:1052400078069006FC740CF0900386E09006FDF062
:10525000900387E09006FEF0900388E09006FFF050
:10526000900389E0900700F090038AE09007011214
:105270005340601B7508FC7509067808121A3F7CBC
:10528000067903EEFA120BCB74021217D2780A12C7
:10529000533A1252A970FB75E1957904120D271249
:1052A0005168800279000251E3124F7F1508E5082A
:1052B00022EAFEEBFF9061D0E0F87480C398FA1206
:1052C00053452274F612182C1252B16004780480EF
:1052D000027800E82404F8EAC398404B780290066C
:1052E000FCE8F0EE24F7125BE69006FD12534060F6
:1052F0001B7508FC7509067808121A3F7C027903B1
:10530000EEFA120BCB74021217D2780612533A122D
:1053100052A970FB75E19512532C7904120D27EEFA
:10532000240D12516B800279000251E3EE241DF529
:1053300082E43FF583E4F0A3F0221253B6880822FA
:10534000F012534522EE2483F582E43FF583E022F8
:1053500074F612182C124F846004780480027800CE
:10536000E82404F8ECC398404278029006FC7407E5
:10537000F0EA24F8F582E43BF583E09006FD124F55
:10538000A860197508FC7509067808121A3F7C0296
:105390007903120BCB74021217D278061253B01293
:1053A0004F7BDAFB75E1957901800279000251E3C8
:1053B0001253B6E8FA22740128F5D975D90375821B
:1053C000FC7583062274F712182CE9FFA2AFE433B0
:1053D000FEC2AF7C0080010C12546D5010ECF8EA54
:1053E00028F8E43BF9125AD16F70EC8016EA246E6B
:1053F000F8E43BF9E0FCEA2CFAE43BFB12540AEF38
:10540000125554EEA2E092AF8012EA246AF582E4CB
:105410003BF58322F0EEA2E092AF79007F01021803
:10542000FEC082C083A2AFE433FDC2AF1254751434
:10543000F07C00801DECF8EA28F8E43BF9E8246BE6
:10544000125AD4C0E0E8246AF582E439F583D0E04A
:10545000F00C12546D40DEEA246DF582E43BF583D6
:1054600074FF12549AEDA2E092AF0249E91254750A
:10547000F8ECC39822EA246EF582E43BF583E0223F
:10548000C082C083A8A8C2AF12540AE912549AE895
:10549000A2E7E433FAE8A2E780CEF0EA2469F582D5
:1054A000E43BF583E4F02274F312182CEAFEEBFFE0
:1054B000ECFAEDFB8A828B83A3A3A3A3E0541FF035
:1054C000EE2436F582E43FF583E4F0750A00EE241D
:1054D0005DFCE43FFD8A828B83E08C828D83F075D6
:1054E0000B00E50A33333354F8F50C8A828B83E0E2
:1054F000F508750900E50B780812178AE508A2E09F
:105500005027EE2436F8E43FF988828983E0F508D5
:10551000EE2508F508E43FF509E5082438F582E4AE
:105520003509F583E50C125554050B050CE50BC345
:10553000940840B7050A8A828B83A3AA82AB838C26
:10554000828D83A3AC82AD83E50AC3940540867F38
:10555000050218FE12555A04F02212555FE022F09F
:10556000888289832274F712182C900395E06403D3
:1055700070030257027C0075829B758303E0600311
:105580000256ECECF875F00DA4C8AAF02AF974994B
:1055900028FA740339FB8A828B83A3A37401125700
:1055A00024E4F0EC8A828B83A3A3A3A3F0125CEE25
:1055B0007401F0EA2467F582E43BF5837401125725
:1055C0001EE4F0A312571EA3A3125734240FF58232
:1055D000E43BF5837401F0EA2435125709241812CC
:1055E0005739241C125709241D12572D247F125796
:1055F00009247312570924821257092468F582E49A
:105600003BF583748012549AEA246E12570924EDF4
:1056100012570924EE12570924EF12570924F012E9
:10562000570924F112572D24F312572D24F612573F
:1056300009248312570924D312570924D412570975
:1056400024D512573924D912573924DF1257092487
:10565000E112570924DD12570924E212570924E305
:1056600012570924F912572D24FB12572D24FD122D
:10567000572D24FF12572D240C12571324061257AE
:10568000132407125713240812571324091257130F
:10569000240A125713240B12571312540B74FF7859
:1056A00004F0A3D8FCEA245DF8E43BF97CC07D0655
:1056B00012574D64C57003ED640670F4EA24E5F8F2
:1056C000E43BF97C7D7D0312574D64857003ED64E6
:1056D0000370F4900395E004F0640170298A828BD2
:1056E00083A3A3A3A3E0900397F0801A0CE5822480
:1056F0000DF582E5833401F583ECC3940350030276
:10570000557D7A007B0002541CF582E43BF583E46E
:10571000F0EA22F582EB3401F583E4F0EA22125735
:1057200024A3A322F08A828B83A3A3A322F582E47D
:105730003BF583E4F0A3F0EA22F582E43BF5831223
:105740005744EA22E4F0A3F0A3F0A3F022124F960C
:10575000A882A983EC22C082C0838A828B83A3A300
:10576000A3E0600F8A828B83A3A3A3E4F090039647
:10577000E014F0900395E014F0700690039774FF26
:10578000F08A828B83A3A3E4F09006C5E0700D90AD
:105790000396E0640170057900120CF10249E9C03A
:1057A00082C083789B790388828983A3E412555F42
:1057B000F01259A2E864C27003E9640670E990032C
:1057C00095E4F0A3F0A374FFF075E1F10249E974E8
:1057D000F512182C750800750900750A007E997F6E
:1057E000038E828F83A3A3A3E0602BE508450960A5
:1057F0001D85088285098312583C121A52125838A6
:105800001216921222FF74041217D2E97008EEF8F1
:10581000EFF988088909050AEE240DFEEF3401FF2F
:10582000E50AC3940340BA850882850983A3A3A32C
:10583000A3E0F97F030218FE8E828F83125D11A30D
:10584000A32274EE12182C8A0A8B0B8C08890C90F8
:105850000396E0F8E9C39850627AFF7BFF7C0078FA
:1058600099790388828983A3A3A3E0603F74FF6AC8
:10587000700374FF6B700CE82473125AD4640170C7
:10588000218012E82473125AD46401700DE824793F
:105890001259AB5017E82479800BE8242E1259AB2B
:1058A000500AE8242E125AD4FAA3E0FB0C1259A293
:1058B000ECC3940340ADEAFEEB8018E96010A3E06E
:1058C000F875F00DA4C8AAF02A1259B88005EA2A82
:1058D000FEEB33FF8E0E8F0F7403780E12179A9023
:1058E0000396E0F8C3E50E98E50F940050030259C3
:1058F0008EE50A25E0F50AE50B33F50BE50825E012
:10590000F508ED33F509AC0AAD0B8007EC2402FC79
:10591000E43DFDC3E5089CE5099D4060C3EC9EEDB8
:105920009F403FECF8EDF9EEFAEFFB1217318B0FC9
:10593000EA450F60068E0E8F0F8006750E00750FFC
:1059400000ECF8EDF9EEFAEFFB1217318A108B112B
:10595000EC9510F8ED9511F9E8250EFCE9350FFDF1
:10596000801AE0F8E50CC3985012EEF8EFF9ECFA63
:10597000EDFB1217318B0FEA450F7090C3EC950ABF
:10598000ED950B4009C3E5089CE5099D50067AFF9B
:105990007BFF8009ECFAEDC313FBEA13FA7F0A02DE
:1059A00018FEE8240DF8E93401F922F582E439F50E
:1059B00083C3E09AA3E09B22F974C728F58274039D
:1059C00039F583E0FEA3E02274F612182C74FC1261
:1059D00017BCEAFEEBFF8044EE2463F8E43FF97A5B
:1059E000007B00A2AFE433F508C2AF88828983E070
:1059F000FCA3E0FDEC4D600F125D2C700A888289DB
:105A000083A3A3E4F0A3F0E508A2E092AF1212AFE3
:105A10009006C6E004F09006C7E004F0EE2463F5BB
:105A200082E43FF583125D6770AE9006C7E0603593
:105A30008E828F83A3A3A3A3E0851882851983F0A8
:105A4000A3E4F09006C7E0F87402121808E8F0A387
:105A5000E4F07402121822AA18AB1979011208593D
:105A60009006C7E4F0EEFAEFFB120B17EEFAEFFB2D
:105A7000120C4F74040251E074F712182CEAFEEB7A
:105A8000FF8E828F83A3A3A3A3E0FA7B0012082FCB
:105A9000EEFAEFFB120B2F120C3102541CC082C025
:105AA000837A007899790388828983A3A3A3E0602D
:105AB00011E8246E125AD46009125AD17004790187
:105AC000800C0A1259A2EAC3940340DB7900024910
:105AD000E9E8246AF582E439F583E022C082C083D4
:105AE000E490037D7808F0A3D8FC90037D0402467F
:105AF0005D74F712182C74FC1217BC851882851976
:105B000083125744120B71E9851882851983F012AC
:105B10000B717401121808E9F0120B71740212185B
:105B200008E9F085188285198312169274041217F9
