:020000040000FA
:060000000201070221AD20
:03002B0002243775
:030033000224198B
:03003B0002245D3F
:030043000223CDC8
:0300530002222363
:03006B000223F37A
:10008300022003E5C754F84401F5C77901220000B3
:100093000080FB120086B900030200F1E4791A78AC
:1000A30002B800028004F709D8FCE4791C7802B88E
:1000B30000028004F709D8FCE490028178A8791A39
:1000C3008002F0A3D8FCD9FA7A287B1C90013778F8
:1000D300DB79018015E493A3AD82AE838A828B839F
:1000E300F0A3AA82AB838D828E83D8E9D9E7758288
:1000F300517583D774031201197582917583007446
:100103000012011975D00075813F751881751902A8
:10011300759F00020096C09FF59FE473D09F22D085
:1001230083D082C09FE493C0E0740193C0E0740263
:1001330093F59F22B503C103F703F103FF0000B456
:10014300000028002800283075A000A000A000A00F
:100153000000080008E001F000100010001000107B
:10016300001000100050005000500010001000D08C
:10017300070000000000000F0001000500307507B4
:10018300001000010081FF00000000FFFFFF0202DA
:1001930002B083010000A88302BC83010000821C1B
:1001A30002C283010000B80202BC83010000831C69
:1001B30002BE83010000CE02FFFF0100FF2002B058
:1001C30083010000A58302BC83010000B11C02B8B7
:1001D30083000000000002C083030000FA0217003E
:1001E300F50BF50BF50BF50BF50BF50BF50BF50B0C
:1001F300F50BF50BF50BF50BF50BD50DF30DCF0D3E
:1002030001E803057710020AFFFFFF00FEFF12015A
:100213002218C1031201222BC1031201224CC10374
:10022300120122B7C103120122F8C10312012219DC
:10023300C2031201223AC2031201227BC20312013A
:100243002213C3031201225BC303120122ACAB03CB
:10025300120122BFAB03120122F0AB031201222AC7
:10026300AC0312012283AC03120122CAAC031201B4
:100273002212AD0312012241AD0312012270AD031C
:10028300120122A7AD03120122EEAD0312012207D0
:10029300AE031201225CAE031201228AAE031201E5
:1002A30022C4AE031201225DA50212012260A6023E
:1002B3001201228DA602120122DEA60212012201E0
:1002C300A70212012213A70212012216A70212018A
:1002D3002254A702120122C8A70212012234A80243
:1002E300120122FCA80212012218A9021201224FB4
:1002F300A90212012289A90212012220AA021201D3
:100303002272AA02120122A3AA02120122A6AA029F
:10031300120122D7AA02120122E4AA02120122FC2C
:10032300AA0212012266AB0212012269AB02120178
:100333002276AB0212012279AB02120122D0AB0268
:10034300120122E1AB021201221AAC021201221D98
:10035300AC0212012251AC0212012254AC0212016E
:1003630022A8AC02120122F1AC0212012201AD0259
:1003730012012234AD0212012241AD0212012244C4
:10038300AD02120122ACAD02120122AEAE02120185
:100393002252AF02120122BBAF02120122F9AF02B5
:1003A3001201222BC40212012223C5021201225779
:1003B300C502120122EDC50212012238C602120142
:1003C300229CC60212012226C702120122DFC702A3
:1003D30012012201CB021201227ECC02120122A1C0
:1003E300CC02120122FC9703120122A199031201EC
:1003F30022C19903120122E29A03120122359B03BF
:10040300120122429C031201226A9C0312012297C9
:100413009C03120122CF9C031201222D9D03120182
:1004230022799D03120122E09D03120122209E03E3
:100433001201225D9E031201228B9E0312012235BB
:100443009F031201223F9F031201224C9F031201BB
:10045300227F9F031201228B9F03120122A39F037A
:10046300120122AD9F031201229BD303120122A981
:10047300D303120122C1D303120122D9D3031201E0
:1004830022F0D303120122DAD70112012284D80108
:1004930012012200D9011201221EDA011201225A8D
:1004A300DA01120122F5DA01120122D9DB0112016C
:1004B300229CDC0112012214DD01120122A2DE01C1
:1004C30012012213DF01120122CDDF01120122BF2B
:1004D300E001120122FFE001120122B3E101120146
:1004E30022E5E101120122DBE3011201221DE401F5
:1004F3001201223BE401120122C0E4011201228411
:10050300E501120122A3E70112012228A40312012B
:10051300223EA4031201225CA4031201226DA5034F
:1005230012012277A503120122A2A6031201229926
:10053300A70312012206A8031201220A850312014E
:1005430022AE8503120122E585031201223C8603B4
:10055300120122518803120122C68301120122775C
:1005630084011201229384011201225C850112018C
:10057300226685011201228085011201228B8501E9
:100583001201226186011201223E87011201229B80
:1005930087011201222B8801120122E28801120134
:1005A30022F08B01120122DF8D01120122918E01B3
:1005B3001201225A8F011201229F92011201224934
:1005C30093011201227294011201222E960112014B
:1005D30022CE96011201221C97011201225B970180
:1005E3001201222E9801120122629801120122EFB8
:1005F3009801120122A5C50112012231C60112017F
:100603002295C701120122A1C701120122DCC701F1
:100613001201224BC80112012254C9011201225DA9
:10062300CA0112012224CB0112012281CC01120141
:10063300229FCC01120122BCCC0112012287CD01E1
:10064300120122AFCD0112012279D0011201227EC3
:10065300D00112012297D201120122E5D201120127
:100663002255D30112012293D3011201226FD40127
:100673001201222FD5011201227BD5011201227E04
:10068300D501120122C2D5011201220AD60112019B
:100693002249D6011201226BD6011201229FD601F3
:1006A30012012202D7011201220080031201220942
:1006B30080031201221780031201226A80031201B0
:1006C30022898003120122CE8003120122128203A7
:1006D300120122AD8203120122F182031201221BB5
:1006E30083031201228A8303120122D0830312019E
:1006F30022478403120122F88403120122D024002A
:10070300120122E02400120122812500120122DDC0
:1007130025001201229A2600120122B62700120197
:1007230022E82700120122172800120122C42900FF
:100733001201223B2C00120122AB2E001201229D3A
:100743002F001201229630001201229D3200120165
:1007530022913500120122C03600120122C4380052
:10076300120122D43900120122633B0012012254E8
:100773003C00120122A23C00120122113D00120191
:1007830022353D00120122863D001201222742003C
:10079300120122284300120122894300120122B4CC
:1007A30043001201227A44001201223BA0031201EA
:1007B3002245A0031201228AA0031201229EA00354
:1007C3001201222EA10312012256A103120122912A
:1007D300A103120122BAA103120122EEA103120105
:1007E3002203A2031201226EA2031201228FA2038B
:1007F300120122A3A203120122B8A203120122F2C0
:10080300A20312012257A3031201229AA303120186
:1008130022C4A30312012200A4031201228DD003D8
:100823001201226D9A02120122509B02120122CB65
:100833009B02120122069C02120122579D02120101
:1008430022E09D02120122F89F021201228AA202D3
:100853001201223CA3021201225BA402120122B460
:10086300A402120122C1F60212012204F7021201AC
:100873002288F7021201225BF80212012232FB02E4
:1008830012012209BC03120122B6BC03120122C3C6
:10089300BD0312012202BE031201225CBE03120138
:1008A3002255C703120122B8C70312012255C803F8
:1008B30012012283C803120122A4C803120122DFFA
:1008C300C803120122FFC803120122008A03120186
:1008D300228C8A031201224B8B03120122638C03A5
:1008E3001201227D8E0312012277BA021201229C89
:1008F300BA0212012270BB02120122DDBB021201F5
:100903002233BC02120122CFBC0212012203BE0217
:10091300120122DEBE021201223DBF021201220E8B
:10092300C0021201229AC0021201229DC0021201CA
:1009330022E7C00212012259C10212012204C2029B
:1009430012012224C2021201226CC2021201228865
:10095300C20212012202C30212012210C3021201B7
:10096300229FC30212012208C402120122669303CA
:10097300120122EB93031201222D9403120122117F
:1009830095031201227E9503120122C295031201DF
:10099300220696031201223396031201225B960369
:1009A300120122939603120122D19603120122F817
:1009B3009603120122729703120122BC97031201BC
:1009C300222B5D00120122F85E00120122E6600074
:1009D3001201223A61001201226561001201221301
:1009E30062001201224362001201227262001201AC
:1009F30022856200120122C66200120122F2620005
:100A0300120122406300120122776300120122C304
:100A13006300120122226400120122B56400120154
:100A2300229F65001201228E66001201226E680069
:100A33001201228D6D00120122E66D00120122CFF8
:100A43006F001201229E7100120122207200120116
:100A5300226E73001201227F7300120122A7BE03CC
:100A630012012292BF03120122D5BF0312012224D5
:100A7300C00312012275C003120122C6C003120172
:100A830022E6440012012267450012012294450028
:100A9300120122DD4500120122DE46001201222D41
:100AA3004700120122A948001201222B490012011A
:100AB30022884900120122DB4900120122CA4A009E
:100AC3001201225F4C00120122294D00120122392A
:100AD3004D00120122634D00120122664D001201E6
:100AE30022494E00120122344F00120122E14F002D
:100AF3001201223E5000120122975000120122FBE4
:100B03005000120122A351001201223F5200120190
:100B130022CC52001201224153001201229D5300A4
:100B2300120122FC5300120122235400120122E17C
:100B33005400120122D256001201221B5700120147
:100B4300224B5700120122BE5700120122445900C2
:100B5300120122F45900120122195A0012012258DB
:100B63005A001201226D5A00120122B05A001201DA
:100B730022205B001201226A5B00120122745C00D6
:100B8300120122F55C001201223DF60112012288B6
:100B9300F60112012294F60112012268F7011201F3
:100BA300227FF701120122BCF701120122EDF701A6
:100BB30012012225F8011201227BF8011201229170
:100BC300F801120122CDF801120122E0F80112010D
:100BD3002207F9011201223BF90112012261FA01F4
:100BE300120122ABFB01120122A7FC01120122C454
:100BF300FD01120122F57F0012012294F10212017C
:100C03002242F50212012276F602120122A2730099
:100C13001201226576001201226B7600120122284E
:100C23007900120122827B00120122B48E03120189
:100C3300224B8F03120122099003120122339003E6
:100C4300120122699203120122E599011201222065
:100C53009A0112012274A401120122E0A5011201DA
:100C630022DDA60112012262AA0112012248AB0170
:100C730012012294AB01120122AEAB01120122EF49
:100C8300AB01120122F8AB01120122A8AC0112013F
:100C93002278AD01120122BFAD0112012225AE015E
:100CA30012012297AE01120122F0B803120122CDE4
:100CB300B90312012211BA031201224BBA03120122
:100CC30022E3BA0312012252BB031201225BBB03CC
:100CD30012012267BB0312012281BB03120122AB63
:100CE300BB03120122DBBB031201228CE5021201BA
:100CF3002299E502120122B3E502120122E6E5027E
:100D030012012224E60212012289E6021201229E26
:100D1300E602120122B5E602120122C3E602120123
:100D230022D2E602120122E7E602120122FCE602C7
:100D330012012207E70212012213E7021201222005
:100D4300E7021201222FE7021201223AE7021201FF
:100D5300225FE70212012203E80212012218E802CD
:100D63001201222DE80212012247E8021201226435
:100D7300E80212012281E8021201228CE802120128
:100D83002238E90212012219EA021201223EEA0282
:100D930012012249EA021201225EEA0212012272C0
:100DA300EA02120122D3EA02120122D9EA02120153
:100DB30022DFEA02120122E5EA02120122FDEA021F
:100DC30012012230EB021201221FB0021201224152
:100DD300B00212012209B102120122C3B3021201AD
:100DE30022D9B402120122FAB502120122D4B602A8
:100DF30012012283B7021201220580021201229CF2
:100E03008002120122348102120122248202120181
:100E1300225B82021201226E8202120122DC820212
:100E23001201227784021201229E840212012240BF
:100E330085021201227585021201228685021201A2
:100E430022FF850212012220860212012238860225
:100E5300120122908702120122998902120122E9CA
:100E63008B02120122EC8C021201223B8D02120131
:100E730022B0E701120122ADE80112012298E90133
:100E8300120122A2E901120122C4E901120122D0B6
:100E9300E90112012222EB0112012251EB0112019D
:100EA3002281EC01120122C3EC01120122EFED01B8
:100EB300120122C5EE0112012217EF01120122765F
:100EC300EF01120122ADEF01120122E8EF0112013D
:100ED3002283F3011201229CF3011201221EF40169
:100EE3001201222CF40112012281F4011201228F3A
:100EF300F401120122FCF4011201226EF501120128
:100F030022B4F5011201220DC90312012232C903D1
:100F1300120122A3C903120122C4CD02120122CD60
:100F2300CD02120122D6CD0212012207CF021201F5
:100F33002226D1021201225CD10212012296D10291
:100F4300120122CCD10212012206D2021201223A4C
:100F5300D20212012266D202120122AFD202120180
:100F630022E9D20212012231D30212012287D302D3
:100F7300120122BCD30212012217D4021201225100
:100F8300D402120122A2D402120122D8D4021201E5
:100F93002212D50212012235D50212012234D503C1
:100FA30012012260D503120122BBD503120122C50F
:100FB300D503120122D5D503120122B2EB0212018D
:100FC30022F1EB021201227AEC021201228FEC02CF
:100FD300120122DAEC021201220EED021201225456
:100FE300ED0212012263ED0212012218EE02120138
:100FF3002271EE02120122C0EE0212012219EF0247
:1010030012012226F0021201221FF1021201225CB8
:10101300F102120122957F00120122E3AF011201B6
:101023002263B201120122D7B30112012234B401A7
:10103300120122DDB401120122DAB501120122628A
:10104300B601120122EEB60112012213B7011201F9
:101053002263B70112012204BA0112012275BA01F7
:1010630012012261BB011201229BBB01120122DB8F
:10107300BB011201227BBD01120122ACBD01120191
:101083002201BE011201224EBE01120122BFBE0186
:10109300120122E2BE01120122FCBE011201221240
:1010A300C00112012222C001120122B3C1011201A7
:1010B30022D3C10112012209C2011201228DC301EF
:1010C30012012206C40112012245C4011201227732
:1010D300C50112012288C503120122ECC5031201C6
:1010E300229BC603120122BAC6031201220EC703B2
:1010F30012012280D40312012291D403120122A4EB
:10110300D703120122E3D703120122DDD803120110
:1011130022DFD503120122EFD5031201220AD603DF
:1011230012012272D603120122A1D1031201222538
:10113300D2031201228BD203120122EBCD0312013F
:101143002214CE0312012281CE03120122D5CE0333
:101153001201222ECF03120122C1B503120122D69E
:10116300B503120122FAB60312012264B703120176
:1011730022D8B703120122F2B70312012209B803DE
:101183001201221CB80312012234B80312012249AE
:10119300B8031201226AB803120122BBB803120179
:1011A3002210A80312012227A803120122A0A803D8
:1011B30012012275A90312012247AB0312012287F0
:1011C300B20312012219B30312012297B3031201CE
:1011D300221EB403120122B0B40312012207B50385
:1011E30012012211B50312012220B5031201223686
:1011F300B50312012249B503120122AAB503120154
:1012030022BEB50312012269CF03120122D3CF03F9
:10121300120122DECF03120122EECF03120122F9C3
:10122300CF0312012215D00312012261CC03120154
:10123300228ACC03120122B3CC031201224CCD0328
:1012430012012264CD03120122A6CD03120122C38F
:10125300D502120122CDD5021201220DD6021201AE
:101263002256D60212012290D602120122E6D6029B
:1012730012012205D7021201228AD90212012293F6
:10128300D902120122E4D9021201220DDA0212015B
:101293002222DA0212012292DA0212012220DB0256
:1012A30012012264DB021201228CDB021201220BE7
:1012B300DC021201224EDC021201228BDC0212013B
:1012C300229DDC02120122BCDC02120122C5DC02D7
:1012D3001201228ADD02120122C3CA03120122145F
:1012E300CB031201229DCB0312012203CC03120173
:1012F300222CAF0312012256AF0312012250B00376
:1013030012012275B00312012216B1031201229CAD
:10131300B103120122A4D20312012286C3031201D4
:1013230022BCC303120122F5C3031201224EC503DB
:101333001201227CD60312012292D6031201229CAF
:10134300D603120122F2D603120122B6DD021201E4
:101353002273DE02120122AEDE02120122D6DE0267
:1013630012012238DF0212012284DF02120122EF6E
:10137300DF021201226BE00212012267E102120175
:1013830022EEE20212012271E302120122D5E302EC
:10139300120122ECE302120122E2E4021201222EE4
:1013A300E502120122E4FB02120122F9FB021201FF
:1013B30022ACFC02120122ECFC0212012205FD0206
:1013C30012012238FD0212012285FD02120122B907
:1013D300FD02120122FBFD02120122F1FF021201A2
:1013E30022888D02120122AD8E02120122758F0214
:1013F300120122AD9102120122889202120122AB44
:101403009202120122A19502120122F39502120106
:1014130022849602120122E9970212012284980281
:10142300120122059902120122EDD7031201226A49
:10143300D80312012233D80312012296D8031201D2
:1014430022BFD803E066701008A3E066700A08A301
:10145300E066700408A3E06622C3E7960809E796EE
:101463000809E7960809E79622C3E09608A3E096E1
:1014730008A3E09608A3E09622C008C3E096F50807
:1014830008A3E096420808A3E096420808A3E09662
:1014930045087001D3D00822080808EAC0E0EBC071
:1014A300E086F0E7A4FA180986F0E7A42AFA1809F7
:1014B30086F0E7A42AFA180986F0E7A42AFA19861F
:1014C300F0E7A4FBE5F02AFA190886F0E7A42BFB62
:1014D300E5F03AFA190886F0E7A42BFBE5F03AFAAF
:1014E30018180986F0E7A4C5F02BFBE43AFA1908AB
:1014F300E7C5F0C6A426F6E5F03BFBE43AFA188606
:10150300F0E7A4F6E5F00826F6E43B08F6E43A082B
:10151300F6D0E0FBD0E0FA22E4CFC0E0E4CEC0E0B6
:10152300E4CDC0E0E4CCC0E075F020E626F608E6A2
:1015330033F608E633F608E633F6181818EC33FCEE
:10154300ED33FDEE33FEEF33FFC3EC9709ED97095F
:10155300EE9709EF97191919400FFFEC97FC09ED66
:1015630097FD09EE97FE191906D5F0BFECF709EDC3
:10157300F709EEF709EFF7191919D0E0FCD0E0FDF0
:10158300D0E0FED0E0FF226016080808C6C313C6E9
:1015930018C613C618C613C618C613C6D5E0EA2262
:1015A3007009080808226016181818C6C333C6083D
:1015B300C633C608C633C608C633C6D5E0EA22E634
:1015C30027F60809E637F60809E637F60809E63785
:1015D300F622E026F608A3E036F608A3E036F6087E
:1015E300A3E036F622E026F008A3E036F008A3E0F5
:1015F30036F008A3E036F022C3E697F60809E6972B
:10160300F60809E697F60809E697F622C3E096F08E
:1016130008A3E096F008A3E096F008A3E096F02272
:10162300E657F60809E657F60809E657F60809E605
:1016330057F622E056F608A3E056F608A3E056F65E
:1016430008A3E056F622E056F008A3E056F008A3FC
:10165300E056F008A3E056F022E066F608A3E06641
:10166300F608A3E066F608A3E066F622E0F608A310
:10167300E0F608A3E0F608A3E0F622E6F008A3E606
:10168300F008A3E6F008A3E6F022E0FAA3E0FBA348
:10169300E0FCA3E0FD22EAF0A3EBF0A3ECF0A3ED62
:1016A300F022E0F8A3E0F9A3E0FAA3E0FB22E8F0DC
:1016B300A3E9F0A3EAF0A3EBF022CAC0E0E6F0A3AB
:1016C30008DAFAD0E0FA22CAC0E0E0A3C582CCC5AA
:1016D30082C583CDC583F0A3C582CCC582C583CD26
:1016E300C583DAE6D0E0CA22C3E498F8E499F91294
:1016F300172C8026C3E49AFAE49BFBE920E7E9125E
:10170300172CE498F8E499F922C3E498F8E499F9DA
:1017130012172CE498F8E499F9C3E49AFAE49BFBD2
:1017230022EB20E7CFE920E7E0B90010BB0008E88F
:101733008AF084F8AAF022E4FBC8FA22EB70227B39
:1017430010C833C8C933C9335007C39AC3DBF28007
:10175300069A50012ADBEAC833F4C8C933F4C9FA3C
:101763002275F008E4C833C8C933C933C99AC99B81
:101773005004C92AC93BD5F0ECFBC833F4C8E4C90B
:10178300FA22600D08C6A2E713C618C613C6D5E031
:10179300F322600C08C6C313C618C613C6D5E0F4FB
:1017A30022700422600D18C6C333C608C633C6D5DB
:1017B300E0F41822251810AF08F518400C1519800D
:1017C30008F51840021519D2AF2200C0D025181011
:1017D300AF08F518500C05198008F51850020519C3
:1017E300D2AFD0D0222518F58210AF08F518400CDF
:1017F30015198008F51840021519D2AF85198322EF
:101803002518F582E43519F583222518F8E43519EE
:10181300F9222518FAE43519FB222518FCE43519B9
:10182300FD22E4732518C582C0E0E51934FFC583A2
:10183300C0E0E518C3958224F810AF0885831985A5
:1018430082188008858319858218D2AFCEF0A3E56C
:1018530020F0A37808E608F0A3DEFAEFF0A3E58111
:1018630024FAF8E608F0A3E608F0A3E608F0A308D4
:1018730008E608F0A3E608F0A315811581D0E0FE81
:10188300D0E0F8158115811581E8C0E0EEC0E022B3
:101893002518C582C0E0E51934FFC583C0E0E5180B
:1018A300C3958224F910AF088583198582188008AF
:1018B300858319858218D2AFCEF0A3E520F0A378F3
:1018C30008E608F0A3DEFAEFF0A3E58124FBF8E6CF
:1018D30008F0A3E608F0A30808E608F0A3E608F07A
:1018E300A315811581D0E0FED0E0F815811581E8BC
:1018F300C0E0EEC0E022851983851882E0A3FEE0F4
:10190300A3F5207808E0A3F608DFFAE0A3FFE0A33D
:10191300C0E0E0A3C0E0E0A3C0E0E0A3C0E0E0A338
:10192300C0E010AF08858218858319800885821866
:10193300858319D2AFD083D08202011F8519838595
:101943001882E0A3FEE0A3F5207808E0A3F608DF01
:10195300FAE0A3FFE0A3C0E0E0A3C0E0E0A3C0E09F
:10196300E0A3C0E010AF088582188583198008853D
:101973008218858319D2AFD083D08222C0D0251894
:10198300C582C0E0E51934FFC583C0E0E518C395FF
:101993008224F310AF088583198582188008858314
:1019A30019858218D2AFC8F0A3E9F0A3EAF0A3EB3C
:1019B300F0A37908E709F0A3D8FAECF0A3EDF0A3BC
:1019C300EEF0A3EFF0A3D0E0F0A3D0E0F0A3D0E0DB
:1019D300F0A3E520F0A3E5F0F0A322851983851891
:1019E30082E0C0E0A3E0F9A3E0FAA3E0FBA3780858
:1019F300E0F608A3DFFAE0FCA3E0FDA3E0FEA3E02A
:101A0300FFA3E0C0E0A3E0C0E0A3E0F5D0A3E0F5CE
:101A130020A3E0A3F5F010AF088583198582188011
:101A230008858319858218D2AFD082D083D0E0F89D
:101A3300D0E03274048006740280027401C0E0F4C2
:101A4300041217E8D0E01216BD2274048004740255
:101A53008000CCC0E0EDC0E0E518C39CCCAD1950CC
:101A6300011D10AF068C188D1980068C188D19D2A4
:101A7300AF1216CAD0E0FDD0E0FC22D083D082E9B9
:101A8300C0E0E493A3C386F0C5F095F0F908E493AE
:101A9300A386F0C5F095F0700BE493A3C3994005BA
:101AA300E9048002A3E475F002A42582F582E5F03F
:101AB3003583F583D0E0F9E493A3C0E0E493C0E079
:101AC30022D083D082ECC0E0EDC0E0E493A3FCE439
:101AD30093A3FDED4C600D121B10EC24FFFCED34C1
:101AE300FFFD80EFE493A3FCE493A3FDED4C600DB5
:101AF300121B4FEC24FFFCED34FFFD80EFD0E0FD23
:101B0300D0E0FCE493A3C0E0E493C0E022C0E0C3D0
:101B1300E49396087401939618400FE49366700853
:101B230008740193661870007019A3A3C3E4939615
:101B3300087401939618A3A3400DD0E0D0E0D0E041
:101B4300021B00A3A3A3A3A3A3D0E022C0E0C0F081
:101B530088F0E4936670080874019366187000A80F
:101B6300F0A3A3700BD0F0D0E0D0E0D0E0021B00D4
:071B7300A3A3D0F0D0E02293
:101B7C0074F6121893EAFEEBFF8C088D09EE2434F0
:101B8C00F8E43FF9E8FCE9FDEE2435121E48FAEEC4
:101B9C002437121E48F88508F0A4C885F00A850978
:101BAC00F0A4250AF9EA28F8E439F97A257B001221
:101BBC00172CEA8C828D83F0FA131313541FF8EE52
:101BCC0028F8E43FF9E8245DF582E439F583E0C0B8
:101BDC00E074075AF8D0E0B800028004C313D8FCB4
:101BEC00A2E0EE50082434F582E43F80182436122B
:101BFC001E48F5F0EA84A8F0EE28F8E43FF9E82452
:101C0C0038F582E439F583E0F97F0302193F74F764
:101C1C00121893EAFEEBFFEE2434121E48C0E0EEDD
:101C2C002435F582E43FF583D0E0F08E828F83A3D8
:101C3C00A3A3A3A3A3A3C082C0838E828F83A3A3D9
:101C4C00A3A3A3E0F8A3E0F9D083D082E0C398F576
:101C5C0008A3E099F509EE247F121E486401703E3A
:101C6C00EE2480F582E43FF583C082C0838E828FA0
:101C7C0083A3A3A3A3A3E0240108A3E03400F9D019
:101C8C0083D082E0687003A3E06970127CC07D068B
:101C9C00120B29EE247FF582E43FF583E4F0AC08C7
:101CAC00AD09EEFAEFFB121B7CE9F91223BF7F02A0
:101CBC0002193F74EF121893900369E064086005F1
:101CCC00E06407702A9061C8E06024900397E0F408
:101CDC00601DE0F875F00DA4C8AAF02AF9749928D3
:101CEC00FE740339FF8E828F83A3A3A3E0700302DB
:101CFC001DCD906060E0C0E0EE2468F582E43FF515
:101D0C0083D0E0F0750CFC750D06750800750900A4
:101D1C00E5D914F50AE5D95403F50E601274036580
:101D2C000E6043E50A600AEE2467121E48700280BA
:101D3C00759006F7E06401601F121E4560047A047A
:101D4C0080027A00E50AC39AFA95E0FB1209D38A5D
:101D5C00088B09EA45097005120DAB8064121E450B
:101D6C0070048A0C8B0DE50A6012850C82850D833C
:101D7C00F50BE5D9F0A3150BE50B70F6121E4560BB
:101D8C004474FC250AF50A780C121A3AAC0AA90E0E
:101D9C00EEFAEFFB120BEF74021217CDE97026AAC4
:101DAC0008AB091212DF793D8E828F83A3A3A3A304
:101DBC00E0FA7B0012084DEEFAEFFB120B4D120C01
:101DCC004F7900806F7403650E6051850A10751190
:101DDC00007810121A3AAC0CAD0DAA08AB09120B14
:101DEC00B374021217CDEE2468121E48648070047E
:101DFC00747F8001E0F50C780C121A3EE50EF50CA0
:101E0C00780C121A3EA90AAC08AD09900397E0FAB7
:101E1C007B0012081D74021217CD8013900369E029
:101E2C006408700BAC0CAD0DEEFAEFFB120C1F122C
:101E3C000DB779017F0A02193FEE2483F582E43F46
:101E4C00F583E02274F212189374FC1217B7EAFEB1
:101E5C00EBFF8909A2AFE433F508C2AF021F1AE009
:101E6C00601B780C121A3AAC0BA90EEEFAEFFB12AF
:101E7C000BE974021217CD7404250BF50B740125B4
:101E8C000BF5D9850ED9E50B6018F50A850C828502
:101E9C000D83E0F5D9A385820C85830D150AE50A1F
:101EAC0070EA75E195EE2463F8E43FF97A007B0063
:101EBC00A2AFE433F50BC2AF88828983E0FCA3E0C8
:101ECC00FDEC4D603A88828983E0FAA3E0FB8A82BC
:101EDC008B83E0FCA3E0FD88828983ECF0A3EDF01A
:101EEC008A828B83E4F0A3F088828983E0FCA3E0F0
:101EFC00FDEC4D700A88828983A3A3E4F0A3F0E57E
:101F0C000BA2E092AF1212DF9006C7E004F0EE24B1
:101F1C0063121E48F8A3E0F9E8496064EE246312EA
:101F2C001E482402F8A3E03400F988828983E582F4
:101F3C002402F50CE43583F50DE0F50BA3E0F50E6A
:101F4C00EE2462121E48640170369061D0E0F812E3
:101F5C001E4560047C0480027C007480C398FA9552
:101F6C00E0FBE50B2CF8E43400F9E82402F850010E
:101F7C0009C3EA98EB99A2D265D0334003021E6BD9
:101F8C009006C7E0604D9006C8E0F89006C7E0C325
:101F9C0098500C74026509703A9006C9E060348E52
:101FAC00828F83A3A3A3A3E0851882851983121FB4
:101FBC00EF7402121803E8121FEF9006C6E028F027
:101FCC00740212181DAA18AB197901120877900621
:101FDC00C7E4F0E508A2E092AF74041217CD7F07B6
:101FEC0002193FF0A3E4F09006C7E0F822000000CD
:101FFC00851A87851BC622C0E074EB12197FA2AF2D
:10200C00E433F508C2AF759B00906182E0A2E0500A
:10201C0030E591A2E0502A7591FE7401651A702189
:10202C00122196120CDF122184121A4D1222FB740B
:10203C00041217CDE9640170057901120D0F121C01
:10204C00BF906182E0A2E5505DE591A2E550577525
:10205C0091DF900369E064076005E06408702F125B
:10206C0021967401651A703E120CDF122184121A2B
:10207C004D1222FB74041217CDE96401700579012D
:10208C00120D0F7901EEFAEFFB121E508018E0646E
:10209C000D701390038BE004F064287002E4F07A66
:1020AC0000E0F9120DBD906182E0A2E6400302212E
:1020BC0059E591A2E640030221597591BF9003693D
:1020CC00E064057008120CC7120CD38003120CCDFF
:1020DC00751A00120D2DE990036AF07900120D0F9C
:1020EC00120A937A017B00900368E0F91212AF9008
:1020FC007803E0644270569006FBE014F0704EC218
:10210C00AF12211000781DD0E0F618D0E0F6E59F54
:10211C005407F87005750DFF8003750D7FC4C0E082
:10212C00781CE6F50A08E6550DF50B740B780A12C7
:10213C001795D0E0250AF8906270E0A2E740F8E825
:10214C00C333906272F0906270E0D2E0F0906181E3
:10215C00E0A2E35009E5E9A2E3500375E9F7A3E037
:10216C00A2E75009E591A2E7500375917FE508A21B
:10217C00E092AF7F080219DE8E828F83E0F8A3E035
:10218C00C82416F582E438F58322900397E0F8759D
:10219C00F00DA4C8AAF02AF9749928FE740339FF2B
:1021AC0022C0E0C0D0C082C083906183E0A2E05026
:1021BC0009E5BFA2E0500375BFFEE0A2E15009E5BE
:1021CC00BFA2E1500375BFFDE0A2E25009E5BFA23A
:1021DC00E2500375BFFBE0A2E35009E5BFA2E35058
:1021EC000375BFF7E0A2E45009E5BFA2E450037504
:1021FC00BFEFE0A2E55009E5BFA2E5500375BFDFD4
:10220C00E0A2E65009E5BFA2E6500375BFBFD0833C
:10221C00D082D0D0D0E032C0E074F212197FE5A7A2
:10222C00A2E6500FE5A1A2E6500953A7BF75A1BFC6
:10223C00122277E5A7A2E5500CE5A1A2E5500653C2
:10224C00A7DF75A1DFE5A7A2E15009E5A1A2E15046
:10225C000375A1FDE5A7A2E2500CE5A1A2E2500690
:10226C0053A7FB75A1FB7F010219DE74F7121893BB
:10227C00751A01900369E064067015120C738A825A
:10228C008B83A3A3A3A3A3A3E0FAA3E0FB120CB537
:10229C00A2AFE433FED2AF90036FE0640170187A02
:1022AC00207B00900368E0F91213C97A207B009020
:1022BC000368E0F91212B5906182E0D2E6F0900664
:1022CC00F8E0602185C61B801690036EE0640170F7
:1022DC0008E5C654F84405F5C653BEFC121FFC7441
:1022EC0001651A60E4EEA2E092AF7F0202193F741E
:1022FC00F11218938A088B098C0A8D0B90834D78F8
:10230C0008121636740F121803780C12166F90837D
:10231C004D780C1216367808790C12145C90836D7B
:10232C0050107808790C1215FB780812147C4014A4
:10233C00800E780C79081215FB780C12147C500462
:10234C007901800279007F0802193F74ED1218930D
:10235C008A088B098C0A8D0B90834D7808121636DF
:10236C007413121803780C12166F90834D780C129C
:10237C001636780C790812145C40117808790C1216
:10238C0015FBAA08AB09AC0AAD0B802275100075C1
:10239C0011007512007513017810790C1215FB7869
:1023AC001079081215C2AA10AB11AC12AD137F0C28
:1023BC0002193FC082C083E9906000F0D083D082C4
:1023CC0022C0E074F212197FA2AFE433FED2AFC286
:1023DC00C0E5D1A2E4500675D10F121201EEA2E0B5
:1023EC0092AF7F010219DEC0E074F212197FA2AF26
:1023FC00E433FED2AFE589A2E15003121153758983
:10240C0000C2C5EEA2E092AF7F010219DEC0E074FB
:10241C00F212197FA2AFE433FED2AFE58BA2E050EB
:10242C0003121153758B00C2E880D8C0E0C0D0E80D
:10243C00C0E0E9C0E0A9A8D2AFC2C7E9A2E7E43383
:10244C00F8E9A2E792AFD0E0F9D0E0F8D0D0D0E034
:10245C0032C0E0C0D0E8C0E0E9C0E0EAC0E0C08231
:10246C00C083A2AFE433FAD2AF900F62E0F8A3E0DE
:10247C00687008539AFBA374018022C2E9900F6222
:10248C00E0F8740128F074E228F582E4340EF58348
:10249C00E0F5C1900F62E0C394804002E4F0EAA240
:1024AC00E092AFD083D082D0E0FAD0E0F9D0E0F85F
:0B24BC00D0D0D0E032C2AF02000022FE
:1024C800FFFFFFFFFFFFFFFFC082C083E9901CB042
:1024D800F0D083D08202011F74F6121827E9900207
:1024E800DCF090033BE0F5087509007402780812E7
:1024F80017A4AA08AB091213279002DD122E939095
:1025080002DD123280606F90033BE075F003A4FA9D
:10251800ABF01213279002FA122E939002FA12329D
:1025280080700B9002DD12325112132D80489002F8
:10253800FA1241E57AFF7BFF1210D57A0080198ADA
:1025480008750900740278081217A4123C8D74FFEC
:10255800122693E4F0A3F00A90033BE0F8EAC3984C
:1025680040DD79051207159002DCE0F91206017AC0
:102578009F7B07120973023D3074F41218278A08EA
:102588008B09EB548060479002DCE0F91212978ABD
:102598000A8B0BAE0AAF0BEE4F602A8E828F83E058
:1025A80064B0701A120727E960148E828F83A3A380
:1025B800A3A3E0F9EE2405FAE43FFB1206F7EEFACE
:1025C800EFFB121285AA08E5096480FB80047A00F3
:1025D8007B000227E374F212182774FB1217B7EA7C
:1025E800FEEBFFEE4F60457403121803EEF0A3EF05
:1025F800F0851882851983ECF0A3EDF074021218A7
:1026080003E9F0AA18AB191205FBE9F5087075740F
:1026180013121803E0F50AA3E0F50BE50A450B6071
:10262800638E828F83122C1CEE4F70057508028012
:10263800537A067B001213278A0C8B0DA80CA90D60
:10264800E8497005750813803B88828983E412265F
:1026580093EEF0A3EF1227AFE50AF0A3E50BF09095
:1026680002E01227A89002E06017E0FCA3E08003D4
:10267800EAFCEBFD8C828D831227A870F38C828D87
:10268800831238A8A9087405024465F0A31241C74B
:10269800A32274F21218278908890C750D00740397
:1026A800780C1217A4850C0A850D0B9002DFF090A8
:1026B80002DD1236B31227A6602E12132D79008080
:1026C8001D890C750D007402780C1217A49002DD98
:1026D800123B4C8882F583A3A3E4F0A3F00990038E
:1026E8003BE0F8E9C39840D990033BE0FA850AF04B
:1026F800A4CAA8F0850BF0A428FB1213278A0C8B18
:102708000DAE0CAF0DEE4F700302279C90033BE01B
:10271800FC850AF0A4CCA8F0850BF0A428FD79006C
:1027280012126D7C0080318D0C750D007403780CCD
:102738001217A48A828B831227A188828983E4F0E6
:102748001227AEA3A3F0A3F00DEDC3950840D8EE71
:10275800250AFEEF350BFF0C90033BE0F8ECC3981D
:1027680050288C0C750D007402780C1217A4900276
:10277800DD1227A1E82402500109FAE9FB8A828BBD
:1027880083EEF0A3EFF07D0080BFE5089002DFF054
:10279800790080027913024468123B50F922A3A3FE
:1027A800123255EA4B22A31241C7A3A3A32274F401
:1027B8001218277900EAA2E0501F750819750983D5
:1027C8007808121A3A79107C047D007AB27B1C12C0
:1027D800070F74021217CDE9F980007F040218F977
:1027E800C082C0839002E0123280601C8882898394
:1027F800A3A3E06A7003A3E06B8882898370E8A3CF
:10280800A3A3A312325180047A007B000224D97456
:10281800F212182774FD1217B7EAFEEBFF8518822B
:10282800851983E4F0A3F074021218037401F012FE
:10283800327D70141208C51213279002E3122E93EA
:1028480012327D70030229A9122F93EE2404F50A8F
:10285800E43FF50B850A82F583E024FE603C24FC06
:10286800607424FE607E24FE70030228F924FE7042
:102878000302290624FE700302291324FE700302B2
:10288800292024FE700302292D24FC700302294EFE
:1028980024FE70030229660229A21208C59002E5E7
:1028A800EAF0A3EB1229B5120259E960030229A242
:1028B8009002E5121A518E828F83A3A3A3A3A312B9
:1028C80041E58508828509831232511206DF7402B8
:1028D8001217CD0229A2AC18AD19EEFAEFFB1207B8
:1028E8002D022971AC18AD19EEFAEFFB12073380EF
:1028F80078AC18AD19EEFAEFFB120739806BAC18FB
:10290800AD19EEFAEFFB12073F805EAC18AD19EE79
:10291800FAEFFB1207458051AC18AD19EEFAEFFB40
:1029280012074B8044740212180D880C890D780C1C
:10293800121A3A740212181DEEFAEFFB12075174BC
:10294800021217CD8023AC18AD19EEFAEFFB12076F
:1029580057E9F870167402121803E4F0803CAC18BA
:10296800AD19EEFAEFFB12075DE9F8E8602C8E82EC
:102978008F83A3E064146022850A82850B83E0902C
:1029880002E5F08518828519831232519002E61209
:102998002E93E8A31229B5120253EEFAEFFB1206A2
:1029A800B57402121803E0F97403024465F07CE57B
:1029B8007D028508828509831232552274E812182F
:1029C8002774FA1217B77404121803ECF0A3EDF089
:1029D8008A128B13EA2405F50EE43513F50FEA2461
:1029E80002F510E43513F511851082F58312325182
:1029F80012039D8A0A8B0B7508007C037D00790001
:102A08007AE57B0212126DE50E2402F516E4350F05
:102A1800F517740212180D880C890D780C121A3AE1
:102A2800850E82850F83A3A3A3A3E0F50C750D0083
:102A3800780C121A3AE50E2405F50CE4350FF50D5D
:102A4800780C121A3A8516828517831235581206A1
:102A58001974061217CD8A0C8B0DE50C450D700301
:102A6800022BE58020851882851983E08882898376
:102A7800F00508851882851983A3E0C0E0122C268A
:102A8800D0E0F00508E50A24FBFAE50B34FFFBC3A8
:102A9800E5089AE49B4003022BE57E007F0085123F
:102AA80082851383A3A3A3A3E0F5097809121A3E2C
:102AB800E4F514F5157814121A3A7514E27515022E
:102AC8007814121A3A9002E3121A51740912180370
:102AD800121A51E50A24F9F9AC0CAD0D851082855E
:102AE800118312325112078774091217CDE9600356
:102AF800022B86850E82850F83A3A3A3A3A3A3A37A
:102B0800E0F89002E2E0687075E0F5148E1578142C
:102B1800121A3A1241E2850E82850F83A3A3A3A35A
:102B2800A3A3A3A312325112126774021217CDE99C
:102B3800604C9002E6123280703BE4F5147814126F
:102B48001A3A7CFF7DFF790785108285118312323E
:102B5800511206F174021217CD1232867017850EC3
:102B680082850F8312437F7404121803123C4012AB
:102B78003589022C19850C82850D83122C1CA81806
:102B8800A919881489157814121A3A7404121803AA
:102B9800121A51851682851783122E8912062574FA
:102BA800041217CD8A0C8B0DEE4F7003022A6212A5
:102BB8002C26EE122C3112353FEF122C31F8A3E0FF
:102BC8003400F9E50C450D6003022A6D888289837B
:102BD80074FFF00508122C2674FFF00508E508605C
:102BE8001A1313543F122E99120265E960099002D4
:102BF800E61232511212DF79008016850E82850F97
:102C08008312437F7404121803123C401238A879C7
:102C18000A023512A3A3A3A3E0FEA3E0FF22A8089B
:102C28009002E6E02812353F22F00508089002E6F7
:102C3800E0282274E812182774FA1217B7740212DF
:102C48001803122E937404121803ECF0A3EDF07419
:102C580002121803E02405123528E0F50CA3E0F56C
:102C68000D7402121803E02402F510A3E03400F5F5
:102C780011851082F58312325112039D7508007573
:102C88000900EA24FCFEEB34FFFF8008050CE50C84
:102C98007002050DA808C3EE98EF94005003022EA9
:102CA80045A818A919880E890F780E121A3A8514A2
:102CB80082851583A3A3A3A31241E9121A3AE51446
:102CC8002405F50EE43515F50F780E121A3A851419
:102CD80082851583122E8712061974061217CD8A5B
:102CE8000E8B0FEA450F7003022E45EA2404F516F1
:102CF800E4350FF517851682F583E0F50CA3E0F5AA
:102D08000D8518828519831241E58A828B83A3A3D6
:102D1800A3E0F9851082851183123251120607E962
:102D2800F5096003022E45740212180312354FF597
:102D3800097809121A3EE4F512F5137812121A3AB4
:102D48007512E27513027812121A3A9002E3121AF7
:102D5800517407121803121A51EEF9AC0EAD0F8513
:102D6800108285118312325112078774091217CD08
:102D7800E9F5096003022E45E508703FE4F50EF514
:102D88000F780E121A3A7CFF7DFF7909851082852B
:102D980011831232511206F174021217CD123575D1
:102DA800700D7404121803122E7C7911022E79907A
:102DB80002E2E024029002E6F080149002E6E0FAD3
:102DC8009002E2E0790024025001096A497072A871
:102DD800089002E2E0FAE82AFAE43400FBEE9AEFFF
:102DE8009B405A851682851783E0C0E09002E7125F
:102DF8002C2BD0E0F00508851682851783A3E0C048
:102E0800E0089002E7122C2BD0E0F005089002E2CF
:102E18001241E9121A3A1241E2A80812351C12129C
:102E28005574021217CD9002E2E02508F50874FFE8
:102E3800650C700474FF650D6003022C94E508604E
:102E48001F9002E6E0F5F0E50884122E9912026B55
:102E5800E960099002E71232511212DF79008011FD
:102E6800E509700375090A7404121803122E7CA967
:102E7800090235121236B7E50CF0A3E50DF022A3CE
:102E8800A3124474AA0CAB0D22A3A3EAF0A3EBF09F
:102E9800229002E5F07CE57D02851082851183127F
:102EA80032552274EC12182774FC1217B71239B86D
:102EB800740212181D12324B12061F8A0C8B0DEA6F
:102EC800450D7003022F83122F93A818A919881093
:102ED80089117810121A3A7CFF7DFF790B850882D8
:102EE8008509831232511206F174021217CD12307D
:102EF80089700C850A82850B83123586022F908E85
:102F0800828F83A3A3A3A3E0F5127812121A3EE4DA
:102F1800F512F5137812121A3A7512E5751302783C
:102F280012121A3A7810121A3A7409121803121A5D
:102F3800517409121803E0F9AC0CAD0D85088285AF
:102F4800098312325112078774091217CDE9FE70EE
:102F5800157CE57D028508828509831232511202AB
:102F680071E97009802074166E70027E009002E686
:102F78001232511212DFEE7004800B7E01850A8234
:102F8800850B831238A5EEF90238BAEE2402F5084B
:102F9800E43FF5092274EC12182774FC1217B7EAFB
:102FA800FEEBFF8C0E8D0FEE2405F508E43FF509C6
:102FB800740212181D85088285098312325112067F
:102FC8001F8A0C8B0DEA450D7003023079EE24023E
:102FD800F50AE43FF50BA818A9198810891178108B
:102FE800121A3A7CFF7DFF790D12324B1206F174EA
:102FF800021217CD123089700B8508828509831259
:103008003586807A8E828F83A3A3A3A3E0F51278F6
:1030180012121A3E850882850983A3A3121A5175D4
:1030280012E57513027812121A3A7810121A3A74C5
:1030380009121803121A517409121803E0F912320E
:103048004712078774091217CDE9FE700F7CE57DDA
:103058000212324B120277E97009802074166E70E2
:10306800027E009002E61232511212DFEE700480E6
:103078000B7E018508828509831238A5EEF902388E
:10308800BA123290F510A3E0F511EA45112274E85E
:1030980012182774FE1217B78A168B178C148D1501
:1030A800EA2405F50CE43517F50DEA2402F50EE4DB
:1030B8003517F50F850E82F58312325112039D8A5A
:1030C800088B09750B007C037D0079007AE57B028B
:1030D80012126D750A00E50814F5100424FFF508AE
:1030E800E50934FFF50980549002E5E0FA9002E220
:1030F800E0F8EA28F8E43400F9E50898E509995079
:103108000D9002E5E0F8E510C3989002E2F0E0F5D2
:10311800127513007812121A3A1241E29002E6E090
:103128002AFAA3E03400FB12125574021217CD904C
:1031380002E2E0F89002E5E028F0050A850C8285B5
:103148000D83A3A3123B5C400302322C9002E5E0FE
:10315800C39508E49509400302322CAE0AEE2EFE10
:10316800E433FF12326BAC18AD191241FDE439FBA0
:1031780012061F8A128B13AC12AD13EC4D701B751F
:103188000B0112325B1238A99002E61227A86003DD
:103198001212DFA90B740202351485168285178373
:1031A800A3A3A3A3E0F50B780B121A3EE4F512F5DE
:1031B800137812121A3A7512E27513027812121A5B
:1031C8003A9002E3121A517407121803121A51A9FD
:1031D80010850E82850F83123251120787740912E7
:1031E80017CDE9F50B709B9002E61232806003025E
:1031F80030F0E4F512F5137812121A3A7CFF7DFFCD
:10320800790F850E82850F831232511206F17402EE
:103218001217CD12328660030230F012325B12357B
:103228008A02319D7CE57D02850E82850F831232EC
:103238005112027DE96003023190790002319DACA0
:103248000CAD0D850A82850B8312325522E0FAA354
:10325800E0FB2212326BE0FAA3E0F9EA85148285DA
:10326800158322850C82850D83E02EF8A3E03FF9B3
:1032780088828983229002E3124383E8492212322A
:1032880090F8A3E0F9E849229002E6EAF0A3EBF00F
:103298009002E6E02274E812182774FA1217B7743D
:1032A80004121803122E938C168D17740412180327
:1032B800E02405F50EA3E03400F50F74041218039A
:1032C800E0240212352812325112039D8A0A8B0B10
:1032D8007F007E00A818A919880889097808121A99
:1032E8003A850E82850F83A3A3A3A3E0F5088E0970
:1032F8007808121A3AE50E2405F508E4350FF509A1
:103308007808121A3A850E82850F83A3A3123558BE
:1033180012061974061217CD8A0C8B0D80291235E6
:1033280049F00F123549F00F9002E2123894121A40
:103338003A1241E2EFF812351C12125574021217B4
:10334800CD9002E2E02FFFE50C450D70030233D863
:103358008518828519831239CAA3A3A3E0F98514B5
:1033680082851583123251120607E9FEE50C240402
:10337800F510E4350DF511EE7050740412180312AF
:10338800354FF5087808121A3EE4F508F50978086B
:10339800121A3A7508E27509027808121A3A900268
:1033A800E3121A517407121803121A51E50A24FA83
:1033B800F9AC0CAD0D8514828515831232511207B4
:1033C8008774091217CDE9FE60391235651238A8DD
:1033D800EF70030234FF9002E6E0F5F0EF8490020C
:1033E800E5F07CE57D028514828515831232511241
:1033F8000283E960099002E71232511212DF790064
:103408000235128F08EF703BE4F512F513781212AB
:103418001A3A7CFF7DFF7911851482851583123253
:10342800511206F174021217CD1235757009123552
:10343800651235890235129002E2E024049002E612
:10344800F080359002E2E0F89002E6E0FAE8240421
:10345800FCE43400FDEC6A4D60030233DEE50A2427
:10346800FAFAE50B34FFFBE50828F8E43400F9EA3A
:1034780098EB9950030233DE851082851183E0C0F2
:10348800E09002E7E02FF8A3E034008882F583D0CB
:10349800E0F00F851082851183A3E0C0E012353675
:1034A800D0E0F00F740212180D8808890978081204
:1034B8001A3A7402121803121A51850E82850F8364
:1034C800122E8712062574041217CD8A0C8B0DEA6A
:1034D800450D70030233267402121803E0C0E0128F
:1034E8003536D0E0F00F7402121803A3E0C0E012E2
:1034F8003536D0E002332EEE70027E0A850E8285C4
:103508000F8312356B1238A8EEF974061217CD7FA7
:10351800100218F99002E7E028FAA3E03400FB2231
:10352800F514A3E03400F515851482F583221235CD
:103538003A229002E7E02FFAA3E034008A82F5836A
:103548002212353A74FF221236B7A3A3A3A3E022AE
:10355800124474850E82850F83123255228510829B
:10356800851183124383851682851783229002E78B
:10357800EAF0A3EBF09002E7124383E849221238FD
:10358800AEE8F0A3E9F079112274EA12182774FE64
:103598001217B78A088B098C128D13EA2405FEE4EA
:1035A8003509FFAC18AD198E828F8312325112067D
:1035B8001F8A0C8B0DEE2406F50EE43FF50FEA4545
:1035C8000D7003023689E5082402F50AE43509F589
:1035D8000B8A828B83A3A3A3E0A2E55028851882D7
:1035E80085198312325112077B8A108B11EA451113
:1035F80060207912123247851082851183121825AE
:10360800E9F50C707F850E82850F83E06009795299
:103618008011750C0E806D850882850983A3A3A38C
:10362800A3E0F9E4F508F5097808121A3A8E828FB2
:1036380083A3A3E0F5087808121A3A8E828F83A331
:10364800A3A3121A518E828F831241E512324B12B4
:10365800078D74061217CDE9F50C7011850E828559
:103668000F83E0702D12324B120289802574166583
:103678000C7011750C0074181218031236B3E4801C
:1036880010750C0112437B851282851383E8F0A321
:10369800E9F0850E82850F83E0600479008002A935
:1036A8000C74021217CD7F0E0218F91236B722E0F9
:1036B800F8A3E0F58388822274EC12182774F712B5
:1036C80017B78A0A8B0B8C108D11EA2405FEE43596
:1036D8000BFF750C00AC18AD198E828F8312325116
:1036E80012061F8A088B09EA4509700302387FE52C
:1036F8000A2402F50A5002050B8A828B83A3A3A32E
:10370800E0A2E5502F8518828519831232511207DD
:103718007B8A0C8B0DEA450D604F7912AC08AD0918
:1037280012324B850C82850D83121825E9F50C6041
:1037380003023882850A82850B83E0F508A3E0F549
:1037480009AA08FB12076FEA4B70197AFF7BFF1270
:10375800076FEA4B70030238758A828B83E508F09D
:10376800A3E509F07508008008750C0E023882057B
:10377800089002DFE0F8E508C39840030238758531
:10378800080E750F007403780E1217A48A828B83B3
:10379800A3A3E0250EF8A3E0350F123C4970D08EA4
:1037A800828F8312389D122E938E828F83A3A31249
:1037B800389D122E91EE2404F508E43FF50985089A
:1037C80082F583E088828983A3A3A3A3F0A3E4F00E
:1037D800EE2405F50EE43FF50F850E82F5831238C9
:1037E8009DA3A3A3A3122E91751207751300781237
:1037F800121A3AEEFCEFFD740412181512125574E1
:10380800021217CDE4F5127812121A3A8508828549
:103818000983E0FC7D00791712324B1206F174021D
:103828001217CD7407121803122E93740712180377
:10383800E0FA4B603D850882850983123894121A94
:103848003A850E82850F831241E5121255740212D1
:1038580017CD740212181D12324B12028FE960261E
:1038680074071218031232511212DF8019750C09ED
:103878008008750C118003750C0112437B8510823A
:103888008511831238A8A90C74098028E0F50875F9
:10389800090078082212325588828983221238AEAC
:1038A800E8F0A3E9F022E0F8A3E0F9850E82850F9D
:1038B800832274041217CD7F0C0218F974EC1218C5
:1038C800271239B8751000EE2402F50CE43FF50D07
:1038D800850C82F58312325112076F8A088B09EA28
:1038E8004509700302399C850A82850B83E06401CF
:1038F8006003023991AC08AD09AA0AAB0B12076341
:10390800E9606E850882850983122C1EEE2406F56F
:103918000AE43FF50B8E828F83A3A3121A518E827D
:103928008F83A3A3A3A3121A51850A82850B83123E
:103938001A5179188E828F831239CA12325112079E
:103948008D74061217CDE9F8741668700B850A8213
:10395800850B83E4F0A38014E860128E828F8312B3
:103968003251850E82850F83EAF0A3EBF088108030
:1039780018780E121A3AAC08AD09EEFAEFFB1207E6
:103988006974021217CDE9F510AA08AB0912077578
:10399800E510700E850C82850D8312325112029546
:1039A8008009741665107003751000A9100238BFDD
:1039B800EAFEEBFF8C0E8D0FEE2405F50AE43FF5C9
:1039C8000B22124474850C82850D832274EA121826
:1039D800277508007509007E007F00750A00EC2431
:1039E80002F510E43DF5118035EC65087003ED65CE
:1039F800096003023A8988828983A3A3E06A700375
:103A0800A3E06B707C88828983A3A3A3A312437F5E
:103A1800EE28FEEF39FFEA28FAEB39FB050A123BDC
:103A280059503A850A0C750D007403780C1217A4C6
:103A3800851082851183123B4C123C49601FE508B2
:103A4800450970A58C088D0988828983122C1C88E9
:103A5800828983A3A3E02EFAA3E03F80BEE50AC3D0
:103A680094025003023B47750800750900EE4F6049
:103A780010EEFAEFFB1212D98A0E8B0FEA450F707F
:103A8800057900023B49750B00023B1C850B0C7540
:103A98000D007403780C1217A4851082851183E039
:103AA800250CF50CA3E0350DF50DE50C2406F514F1
:103AB800E4350DF515851482F583123C4E6042E518
:103AC8000C2404F512E4350DF513851282F58312E2
:103AD8001A51E50E2508FAE50F3509FB121255743F
:103AE800021217CD851282851383E02508F508A3F5
:103AF800E03509F5098514828515831232511212B1
:103B0800DFE50B600D7C087D007900AA0CAB0D1277
:103B1800126D050BE50BC3950A5003023A94851004
:103B28008285118312437F88828983A3A3A3A3A3D9
:103B3800A3E50EF0A3E50F1227AFEEF0A3EFF0799F
:103B4800010236AE123B5022E0250CF8A3E0350DF9
:103B5800229002DFE0F8E50AC3982274F0121827D1
:103B68008A0E8B0F8C0A8D0B750D00750C0080501A
:103B78007916EE2406F508E43FF5098E828F83A3B3
:103B8800A3121A518E828F83A3A3A3A3121A51855D
:103B98000882850983121A51850E82850F83A3A393
:103BA80012325112078D74061217CDE9F50D7416ED
:103BB800650D706C850882850983E4F0A3F0050C17
:103BC8009002DFE0F8E50CC3985066AA0C8A0875E5
:103BD8000900740378081217A4850A82850B83A349
:103BE800A3123C98E8FEE9FF8E828F83123C4E6058
:103BF80040EA2401F508E43400F5099002DFE065A5
:103C0800087002E509601488828983A3A3A3A3A38B
:103C1800A3A3A31232806003023B787918023B7A8F
:103C2800E9609B12437B7410121803123C4012384F
:103C3800A8A90D7F080218F9E0FAA3E0F5838A82A3
:103C480022F988828983124474EC4D2274F6121882
:103C5800277C0080010C90033BE0F8ECC398501ED1
:103C68008C08750900740278081217A4123C8DE0BC
:103C78006A7003A3E06B70DDE8FAE9FB80047A0060
:103C88007B00023D309002DD123C988882898322B5
:103C9800E02508F8A3E03509F92274F21218278AFA
:103CA800088B09750A0080278E828F83A3A3A3A39C
:103CB8001227A660031212DF7C087D007900EEFA55
:103CC800EFFB12126D8E828F83E4F0A3F0050A12C7
:103CD8003B595027850A0C750D007403780C121790
:103CE800A4850882850983A3A3E0250CFEA3E035FB
:103CF8000DFF8E828F8312328070AD850882850910
:103D08008374FFF0A3F002446874F61218271207B0
:103D1800218A828B83E582458370067A007B008046
:103D280007A3A3A3A31232517F020218F974F41255
:103D3800182789088C828D83E06402703C12431E28
:103D4800FEA3E0F9EEF8740268700374296970291B
:103D5800750A02750B00780A121A3A7410121803C1
:103D6800121A517410121803121A51A9081210DBF2
:103D780074061217CDE9F9800279010227E374E885
:103D880012182774FB1217B7E9851882851983F072
:103D98008A168B17ECFEEDFF7510008E828F83A3B9
:103DA800A3A3E0A2E4502D741D121803123251127D
:103DB800077B8A828B83E582458370030241BD7944
:103DC8000AEEFCEFFDAA16AB17121825E9F51060EC
:103DD800030241C0741F121803E0F508A3E0F509B7
:103DE8007421121803E0F50AA3E0F50B74231218E6
:103DF80003E0F50EA3E0F50F8E828F83E064026086
:103E08000302415EA312437F850882850983A38547
:103E18008212858313EE2406F50CE43FF50D8882A3
:103E280089831241FDF514E439F5157814121AC482
:103E3800010000280128603E07000228253F0328CA
:103E4800933E0029544001297F400229204003293C
:103E580054400429F8405E41E50E450F60030241D5
:103E680059850C82850D8312437FE8FAE9FB8A8223
:103E78008B83E0850A82850B83124208121A3A8ADC
:103E8800828B83A3E0FCA3E00240E2E50E450F60CD
:103E980003024159850A82850B837401F01241F2AD
:103EA800850882850983F07C007D008E828F83A33C
:103EB800A3A3A3E02401FAA3E03400FB12061FEA3F
:103EC8004B60408A828B83E02402F8850A82850B46
:103ED80083E028F0EA2404F8E43BF988828983E047
:103EE800851282851383124216124208121A3A8AE0
:103EF800828B83A31241E5E5082403FAE43509FB24
:103F08000240E7850A82850B83E02404F07C047D67
:103F1800007900AA12AB1312126D0241C0E50E45DA
:103F28000F60030241591241F2FEA3E0FF850A82A5
:103F3800850B837404F0EE850882850983F0EF858C
:103F48001282851383F0740312181DEEFAEFFB1228
:103F5800061F8A0C8B0DEA450D70030240038A8206
:103F68008B83A3A3122C1C740112180D880E890FC1
:103F7800780E121A3A7405121803121A517CFF7D32
:103F8800FF12062574041217CD8B0FEA450F703304
:103F9800850C82850D831241E9121A3A850C8285B7
:103FA8000D83A3121A517C027D007AB27B8312031F
:103FB8008B74041217CDE9700A740112180374FF88
:103FC800F0A3F08E828F83E064027039750C02755D
:103FD8000D00780C121A3A8E828F83A31241E5E500
:103FE800082404FAE43509FB12125574021217CD9D
:103FF800850A82850B83E024028009740112180364
:10400800EEF0A3EFF074011218031241D7740112F5
:1040180018031241CE024153E50E450F60030241D9
:1040280059850C82850D8312446DAA16AB171210A0
:10403800E1850A82850B837402F0850882850983ED
:10404800EAF0851282851383EB024156E50E450F8F
:1040580060030241591241F2F8A3E0F9850A82850A
:104068000B837402F0E8850882850983F0E98512DC
:1040780082851383024156850C82850D8312325145
:1040880012124FEAFAF8C3950EE4950F405CE86502
:104098000E450F70047A008021851882851983E007
:1040A800FCE50E2CFCE4350FFDC3EC98ED940050B4
:1040B80003E08005E50ECAC39AFAEA850A82850BF1
:1040C80083F08A0A750B00780A121A3A850C8285E1
:1040D8000D83E0250EFCA3E0350FFDAA08AB0912FD
:1040E800125574021217CD0241C07510070241C063
:1040F800E50E450F705B850C82850D8312437F8525
:104108000A82850B837407F0888289831241CF1253
:1041180041C7E0851282851383F0E82402FAE43966
:10412800FB8A828B831241D78A828B831241CEA36A
:10413800A31227AE1241DCF0E82405F850010988E3
:104148008289831241DCA3124216A3A3A3A3F080A1
:104158006775100B8062741D121803123251120712
:10416800218A828B83E5824583604A12437F880CCB
:10417800890DE8450D603E7425121803E0F51078A6
:1041880010121A3E780E121A3A780A121A3A780859
:10419800121A3A7407121803E0F9EEFCEFFDAA169A
:1041A800AB17850C82850D8312182574071217CD5D
:1041B800E9F510800375100EA9107405023514F086
:1041C80088828983A322A3E0850882850983221235
:1041D800421DF02212421DA3A3229002E31244744E
:1041E80022E0F50E750F00780E22850C82850D836E
:1041F8001236B7E022E0FAA3E0F8E4C8F9EA282288
:10420800F08A828B83E0F50A750B00780A22124146
:10421800C712421D22E0850882850983A3A3227460
:10422800EE12182774FE1217B78A088B09ECFEEDF8
:10423800FF890AAC18AD19EEFAEFFB12061F8A0CBB
:104248008B0DEA450D700302430F8518828519838B
:104258001232511207218A828B83E58245837003CB
:1042680002430AA3A312437F880E890FE8450F7003
:104278000302430A7414121803E0F510A3E0F511C1
:10428800E50AF50B780B121A3E7419121803121A64
:10429800517810121A3A741B121803E0F9AC0CADDD
:1042A8000DAA08AB09850E82850F8312182574059F
:1042B8001217CDE9F50B705274FE650A604C850C37
:1042C80082850D83E06402704112431EFAA3E0F96F
:1042D800EAF87402687003742969702E8510828563
:1042E80011831241FDF50CE439F50D780C121A3AD8
:1042F800EEFCEFFDAA08AB091207A574021217CD50
:104308008008750B0E8003750B01A90B7402121738
:10431800CD7F0A0218F9A312438388828983E02299
:1043280074F612182774FE1217B7740C12180312B9
:10433800437FE8851882851983F07401121803E910
:10434800F0E4F508F5097808121A3A7508027808B1
:10435800121A3A740412180D880889097808121A72
:104368003A79FE12078D74061217CD74021217CD12
:10437800023D308E828F8312438322E0F8A3E0F956
:104388002274F7121827EAFEEBFF89089002FA1246
:1043980041E51210E1EA5402600BA908EEFAEFFBBE
:1043A800120613800279017F010218F974F21218BB
:1043B8002774FE1217B7EAFEEBFF890A7401650A33
:1043C80060147402650A600302446379011209915A
:1043D800E96003024463EEFAEFFB12076FEA4B60F1
:1043E80003120775A818A919880889097808121AE4
:1043F8003A7508027509007808121A3A7508C075E6
:1044080009837808121A3A7CFF7DFF7A017B001233
:10441800061974061217CD8038850882850983A38A
:10442800A3A3A3A3A312446DEEFAEFFB1210D5E4E5
:10443800F50CF50D780C121A3A7402121803121AB8
:10444800517CFF7DFFAA08AB0912062574041217D8
:10445800CD8A088B09E508450970BE74021217CD8C
:104468007F060218F91236B712447422E0FCA3E062
:10447800FD2274F41218278A088B09ECFEEDFF90D0
:104488001CB0E0F4604B7A097B0012127FEA4B60A3
:10449800408A828B8374B1F0A3E41244DCF08A82F0
:1044A8008B83A3A3E508F0A3E5091244DCA3EEF08F
:1044B800A3EFF0740C12180312437F8A828B83A334
:1044C800A3A3A3A3A3A31238A8901CB0E0F91212C7
:1044D8008B0227E3F08A828B83A3A3A3A322C08243
:1044E800C0839061907404F0A37448F0A37402F040
:1044F8009061807440F09061BC7403F0906187749F
:1045080019F0906265741BF0906249E0C3941390AF
:10451800619C40107409F09060667401F090619F8E
:104528007428800D740BF0906066E4F090619F74BD
:104538002CF01246D17009C29190036D7467800502
:1045480090036D7461F01247239024C8E493F460DB
:1045580006E493F9120A877905120D9F024965C08E
:1045680082C083E9540FF9906185E0696012E5C65D
:1045780054B84441F5C6E59E5447644170F8E9F0E3
:1045880053C6B8E59E544770FA024965C082C08395
:10459800A8A853A87E906181E4F0A3F0A3F0C2BA62
:1045A800539AFEC289759B00C2C275E900759100D5
:1045B80075BF0075A91175B905906181F0A374C024
:1045C800F0A3E4F0D2BA439A0174805842A8024991
:1045D80065F0024965C082C08374F81217B790036A
:1045E8006B125CE370030246C990036BE0544060B1
:1045F800177908AA18AB19120B95AA18AB19120843
:104608000590036BE054BFF0E054806010790C7A99
:104618001C7B07120B9590036BE0547FF0E0A2E03F
:10462800501E1246D17009C29190036D74678005BF
:1046380090036D7461F012080B90036BE054FEF068
:10464800E05402601E1247167009D29190036D74EF
:1046580071800590036D746AF012080B90036BE08B
:1046680054FDF0E0540460109024CC124726120840
:104678001190036BE054FBF0E0540860109024CDD7
:1046880012472612081190036BE054F7F0E054101B
:10469800600D12472312081190036BE054EFF0E00D
:1046A8005420600A12081190036BE054DFF0A3E075
:1046B8005401600D120AA512081790036CE054FE0D
:1046C800F074081217CD02496590619A1249189042
:1046D80006F6E0640122C082C083E9600514601711
:1046E80080291246D17009C29190036D7467801AAF
:1046F80090036D746180131247167009D29190036C
:104708006D7471800590036D746AF002496590615B
:104718009A12490A9006F6E06401229024CEE493A6
:10472800906186F02274EA12182774F41217B79071
:104738008359AC18AD1974041216CA9024CC93F49A
:10474800600302489F907808E0C39402500302482F
:10475800839082F7740412181D74081216CAA818D8
:10476800A91988148915740412180D88088909AEC6
:1047780008AF097510FF7511FF750EFF7C00750CE9
:1047880048750D78801274086C7003024819740912
:104798006C607E740A6C6079850C82850D8378085C
:1047A80012166F8E828F83A909E50AC9F8881274D8
:1047B80018780812158AE5124508F8C3E098A3E0AE
:1047C80099850C82850D83780812166F40188E82A1
:1047D8008F837418780812158AE5124508F8E0C323
:1047E80098F8A3E0801A7418780812158AE512451B
:1047F80008FAE9FB8E828F8312503AEAC398F8EBE5
:1048080099F9C3E89510E995115006881089118C1B
:104818000E0CE50C2404F50C5002050DECC39413A2
:10482800500302478E74FF6510700474FF651160B1
:1048380024850E08740278081217A474482508F510
:104848008274783509F583780812166F8514828585
:104858001583E508F0EE2402FE50010F85148285C9
:104868001583A3858214858315740C121803E582B9
:104878006E7003E5836F600302477B750801750955
:10488800007808121A3A740212181D7A337B09123A
:10489800112F74021217CD740C1217CD7F0E021847
:1048A800F9C082C0839061AE7468F0A3746AF09016
:1048B800624574FBF0A304F053F4FD43FE02900636
:1048C800F67401F09061A0E0643A90619A70191250
:1048D8004918740164017009C29190036D7467806E
:1048E8001E90036D7461801712490A740164017087
:1048F80009D29190036D7471800590036D746A02FA
:1049080045D9743FF0A3745AF09061A0747FF022E7
:104918007433F0A37455F09061A0743AF0227F04C8
:104928000218F9C082C0839006D4E0640170119027
:1049380006DAE064016019E07006A3E06401601023
:104948009006EBE06401700C9006F1E064017004DD
:10495800790C800279008005E0F91223BFD083D05A
:104968008202011FE0C4333354C022888289831233
:104978004EFBA882A983222414F582E438F5832209
:10498800C082C0839006DE7425F09006DC7401F0C6
:10499800A3E4F07A01FB120D1B1249D4241AF58204
:1049A800E438F58374C9F0A3740AF09006DBE06478
:1049B8000170169006DAE070107901120D7B120D65
:1049C8004B120D757900120D870249659006CA12BF
:1049D8004D5D2274F612182774FA1217B79006D391
:1049E800E064017008120AB19006D3E4F075E1F1B1
:1049F8001249D42415F582E438F5837401F0900641
:104A0800D5E06401704B908313AC18AD197406128D
:104A180016CA75D90D9006CC12496C4403F5D975A0
:104A280082CD758306124EF7E58264D37004E58360
:104A3800640670F1A818A9191249737406121803AC
:104A4800E582687003E5836970EE75E19579018008
:104A5800027900120D21901CD4124AC17431F0A3BE
:104A6800740CF0A3124AC1124AC1124C2F7437F0C9
:104A7800A3740C124C449006CCE0F97ACD7B061254
:104A88000CFD9006DEE0F91223BF7901120D279084
:104A9800835512168D120D3F90833512168D120D07
:104AA800097900120D931249D412497F7416F090B7
:104AB80003697405F00402515C742BF0A3740CF0C4
:104AC800A32274F71218278908A808E875F00DA41E
:104AD800C8AAF02AF9749928FE740339FF9006E3EE
:104AE800E0F97AE47B06120CFD9006F1E070257976
:104AF80000120D5DEE240CF582EF3401F583E070B1
:104B080004790080027901EE2406FAEF3401FB12E1
:104B18000D0380057901120D5D75E1F175D92390BA
:104B280006E312496C4405F5D97582E475830612CB
:104B38004EF7E58264EA7004E583640670F175D97E
:104B48000075D90075D90075D90075D90075D900D7
:104B5800EE2422124FB0124FCF7003E9658370F62E
:104B6800EE2426124FBB2403F8E43583F9124FCF05
:104B78007003E9658370F6EE242B124FC4242C12BF
:104B88004FC4242D124FC4242E124FC4242F124F69
:104B9800C42430124FC42431124FC42432124FC4DB
:104BA8002433124FC4245D124FBB2405F8E4358327
:104BB800F9124FCF7003E9658370F6EE2437125B64
:104BC80062541FF8EE242A125B62C43354E048F59D
:104BD800D975E195901CD474FBF0A3740BF0A37401
:104BE80001F0A3740C124C267407F0A3740C124C39
:104BF800449006F0E0F91223BF90835512168D12E7
:104C08000D3F90833512168D120D0990600DE4F05A
:104C18007901120D939003697406F0025398F0A37A
:104C2800124C2F124C2F22124C332274F5F0A3741D
:104C38000BF0A374F5F0A3740BF0A322124C4822D6
:104C4800F0901CE2124C54A3124C5422124C3374B0
:104C5800F5F0A3740BF02274EC1218279006E112F9
:104C680057B8781012166F9006F2E0FAF875F00D42
:104C7800A4C8ACF02C125934FFEE2EFEEF33FF8E91
:104C88000CF50D750E00750F008510088511098546
:104C9800120A85130B90839978081215D578081293
:104CA8001A3685100885110985120A85130B7808AC
:104CB800790C1215C27810790C12151BE4F50EF553
:104CC8000F7808790C1215FB8A0C750D007403789F
:104CD8000C1217A47808790C1215C290834D780825
:104CE800121636AA08AB09AC0AAD0B122357740486
:104CF8001217CD8A088B09A808A909C3EE98EF995D
:104D08005006E82EF8E93FF9E890600EF0E9A3F0C4
:104D1800EEA3F0EFA3F090600D74C1F07F0C0218C1
:104D2800F9C082C0839006CA124D499006DE024936
:104D380060C082C0839006E1124D499006F0024996
:104D480060124D5D124D53F0A3F0222406F582E463
:104D580038F583E422E0F8A3E0C82202011F74F6C4
:104D6800121827124F006004780480027800E824A3
:104D78000EF8ECC3985003024E347C0C9006FCE409
:104D8800F0EA2476F582E43BF583E09006FDF0EA4C
:104D98002477124E399006FE124E439006FFF0EA31
:104DA8002479124E39900700124E43900701F0EA19
:104DB800247B124E39900702124E43900703F0EA03
:104DC800247D124E39900704124E43900705F0EAED
:104DD8002474F8E43BF98A828B83A3A3A3A3A3E0FA
:104DE800FEA3E0FF88828983E02EF0A3E03F1254FF
:104DF800D6900706124E43900707124F2460177586
:104E080008FC7509067808121A3A7903120BE97436
:104E1800021217CD7C1012516AECFE124EF7DEFB1F
:104E280075E1957904120D457901800279000251E6
:104E38005FF8E43BF988828983E0221254DBA3E01F
:104E48002274F6121827124F006004780480027842
:104E580000E8240AF8ECC3985003024EF27E08904A
:104E680006FC7401F07CC07D0678FD79067F05128A
:104E78004F0EA882A983DFF7EA2480FCE43BFD8A71
:104E8800828B83A3A3A3A3A3E0F508A3E0F5098C71
:104E9800828D83E02508F0A3E03509F0124F0E0853
:104EA800A9838C828D83E088828983124F246019BC
:104EB8007508FC7509067808121A3A7C08790312F5
:104EC8000BE974021217CD7E0C74012EF5D975D931
:104ED800037582FC758306EEFF124EF7DFFB75E162
:104EE800957904120D4579018002790002515F120B
:104EF8004EFB22E0F5D9A3229061D0E0F87480C37C
:104F080098FC124F2922124F12228C828D83E0883E
:104F1800828983125D2088828983A322F0124F2917
:104F280022EA2483F582E43BF583E02274F7121821
:104F380027EAFEEBFF9061D0E0706875D91875D943
:104F48000375D903EE249C124FD6124FCF7003E994
:104F5800658370F6EE24A4124FC424A5124FC4240E
:104F680094124FD6124FCF7003E9658370F6EE2482
:104F780088124FB0124FCF7003E9658370F675E160
:104F8800957908EE2494FAE43FFB120B897904EE34
:104F98002488FAE43FFB120B897904120D4512505C
:104FA800E480027900025398124FBB2404F8E435D8
:104FB80083F922F582E43FF583E58222F582E43F16
:104FC800F583E0F5D9EE22124EFBE8658222124FF6
:104FD800BB2408F8E43583F92274F6121827EAFE90
:104FE800EBFF9006FC740612508D121A3A7C017978
:104FF80003120BE974021217CD75D90675D903751A
:1050080082FC7583061250857004E583640770F589
:1050180075E195900369E064087010EE246FF582DD
:10502800E43F125038EE2471125AF1790102515FAF
:10503800F583125CEF2274F6121827EAFEEBFF9054
:1050480061D0E070339006FC740A12508D121A3A3F
:105058007C017903120BE974021217CD75D9067514
:10506800D9037582FC7583061250857004E5836444
:105078000770F51250E18002790002515F124EFB71
:10508800E582640122F07508FC7509067808227427
:10509800F6121827EAFEEBFF9061D0E0703678012F
:1050A8009006FC740BF0900369E0640770197508AA
:1050B800FC7509067808121A3A7C017903120BE983
:1050C80074021217CD780512532C124EF7DAFB1220
:1050D80050E18002790002515F75E195EE246F126C
:1050E8005CE9EE2471F582E43FF583E8F0A3E9F08A
:1050F80079012274F612182712522D600478048060
:10510800027800E8240BF8EAC39840447C0990062A
:10511800FC7408125179125188DDFB125B5F601B29
:105128007508FC7509067808121A3A7903EEFAEF41
:10513800FB120BE974021217CD7C0D125164125246
:105148002570FB75E1957904120D451250E4800233
:10515800790080031217CD7F020218F912516A8C68
:10516800082274012CF5D975D9037582FC7583065C
:1051780022F0EE24E5F8E43FF97AFD7B067D08226B
:1051880088828983E08A828B831254DBA3A882A950
:10519800838A828B83A3AA82AB832274F612182790
:1051A80012522D6004780480027800E82408F8EA96
:1051B800C398406478069006FC740CF0900386E06F
:1051C8009006FDF0900387E09006FEF0900388E0DB
:1051D8009006FFF0900389E0900700F090038AE0C2
:1051E8009007011252BC601B7508FC750906780807
:1051F800121A3A7C067903EEFA120BE974021217B6
:10520800CD780A1252B612522570FB75E1957904D1
:10521800120D451250E48002790002515F124EFBD4
:105228001508E50822EAFEEBFF9061D0E0F87480EB
:10523800C398FA1252C12274F612182712522D601E
:1052480004780480027800E82404F8EAC398404B04
:1052580078029006FCE8F0EE24F7125B629006FDF7
:105268001252BC601B7508FC7509067808121A3AB8
:105278007C027903EEFA120BE974021217CD780654
:105288001252B612522570FB75E1951252A8790494
:10529800120D45EE240D1250E78002790002515F8D
:1052A800EE241DF582E43FF583E4F0A3F0221253C7
:1052B80032880822F01252C122EE2483F582E43F9C
:1052C800F583E02274F6121827124F006004780460
:1052D80080027800E82404F8ECC3984042780290F1
:1052E80006FC7407F0EA24F8F582E43BF583E090C5
:1052F80006FD124F2460197508FC75090678081216
:105308001A3A7C027903120BE974021217CD780657
:1053180012532C124EF7DAFB75E195790180027968
:105328000002515F125332E8FA22740128F5D97548
:10533800D9037582FC7583062274F7121827E9FFD2
:10534800A2AFE433FEC2AF7C0080010C1253E950D7
:1053580010ECF8EA28F8E43BF9125A4D6F70EC802B
:1053680016EA246EF8E43BF9E0FCEA2CFAE43BFB8D
:10537800125386EF1254D0EEA2E092AF8012EA24C4
:105388006AF582E43BF58322F0EEA2E092AF790061
:105398007F010218F9C082C083A2AFE433FDC2AF17
:1053A8001253F114F07C00801DECF8EA28F8E43B75
:1053B800F9E8246B125A50C0E0E8246AF582E4390F
:1053C800F583D0E0F00C1253E940DEEA246DF58253
:1053D800E43BF58374FF125416EDA2E092AF024944
:1053E800651253F1F8ECC39822EA246EF582E43B87
:1053F800F583E022C082C083A8A8C2AF125386E911
:10540800125416E8A2E7E433FAE8A2E780CEF0EAFD
:105418002469F582E43BF583E4F02274F31218273B
:10542800EAFEEBFFECFAEDFB8A828B83A3A3A3A32E
:10543800E0541FF0EE2436F582E43FF583E4F0757E
:105448000A00EE245DFCE43FFD8A828B83E08C82B7
:105458008D83F0750B00E50A33333354F8F50C8A65
:10546800828B83E0F508750900E50B78081217852B
:10547800E508A2E05027EE2436F8E43FF98882894F
:1054880083E0F508EE2508F508E43FF509E508246A
:1054980038F582E43509F583E50C1254D0050B057F
:1054A8000CE50BC3940840B7050A8A828B83A3AA2C
:1054B80082AB838C828D83A3AC82AD83E50AC394CF
:1054C8000540867F050218F91254D604F0221254BA
:1054D800DBE022F0888289832274F7121827900370
:1054E80095E06403700302567E7C0075829B758389
:1054F80003E06003025668ECF875F00DA4C8AAF042
:105508002AF9749928FA740339FB8A828B83A3A336
:1055180074011256A0E4F0EC8A828B83A3A3A3A3A0
:10552800F0125C6A7401F0EA2467F582E43BF583C3
:10553800740112569AE4F0A312569AA3A31256B015
:10554800240FF582E43BF5837401F0EA2435125602
:105558008524181256B5241C125685241D1256A9E6
:10556800247F125685247312568524821256852468
:1055780068F582E43BF5837480125416EA246E12AF
:10558800568524ED12568524EE12568524EF1256C0
:105598008524F012568524F11256A924F31256A92F
:1055A80024F6125685248312568524D31256852450
:1055B800D412568524D51256B524D91256B524DFEF
:1055C80012568524E112568524DD12568524E212EE
:1055D800568524E312568524F91256A924FB12563F
:1055E800A924FD1256A924FF1256A9240C12568F7D
:1055F800240612568F240712568F240812568F2419
:105608000912568F240A12568F240B12568F1253E2
:105618008774FF7804F0A3D8FCEA245DF8E43BF92A
:105628007CC07D061256C964C57003ED640670F42B
:10563800EA24E5F8E43BF97C7D7D031256C96485CC
:105648007003ED640370F4900395E004F064017056
:10565800298A828B83A3A3A3A3E0900397F0801ADF
:105668000CE582240DF582E5833401F583ECC394BF
:105678000350030254F97A007B00025398F582E440
:105688003BF583E4F0EA22F582EB3401F583E4F09C
:10569800EA221256A0A3A322F08A828B83A3A3A393
:1056A80022F582E43BF583E4F0A3F0EA22F582E4F4
:1056B8003BF5831256C0EA22E4F0A3F0A3F0A3F06E
:1056C80022124F12A882A983EC22C082C0838A8248
:1056D8008B83A3A3A3E0600F8A828B83A3A3A3E495
:1056E800F0900396E014F0900395E014F0700690A3
:1056F800039774FFF08A828B83A3A3E4F09006C516
:10570800E0700D900396E0640170057900120D0FAA
:10571800024965C082C083789B790388828983A304
:10572800E41254DBF012591EE864C27003E96406FF
:1057380070E9900395E4F0A3F0A374FFF075E1F12C
:1057480002496574F5121827750800750900750A6D
:10575800007E997F038E828F83A3A3A3E0602BE54D
:10576800084509601D8508828509831257B8121AF1
:105778004D1257B412168D1222FB74041217CDE97C
:105788007008EEF8EFF988088909050AEE240DFE7D
:10579800EF3401FFE50AC3940340BA8508828509FE
:1057A80083A3A3A3A3E0F97F030218F98E828F8352
:1057B800125C8DA3A32274EE1218278A0A8B0B8C15
:1057C80008890C900396E0F8E9C39850627AFF7B49
:1057D800FF7C007899790388828983A3A3A3E0607A
:1057E8003F74FF6A700374FF6B700CE82473125ADD
:1057F80050640170218012E82473125A50640170B9
:105808000DE824791259275017E82479800BE824E9
:105818002E125927500AE8242E125A50FAA3E0FBF8
:105828000C12591EECC3940340ADEAFEEB8018E954
:105838006010A3E0F875F00DA4C8AAF02A12593434
:105848008005EA2AFEEB33FF8E0E8F0F7403780E65
:10585800121795900396E0F8C3E50E98E50F9400AB
:10586800500302590AE50A25E0F50AE50B33F50B62
:10587800E50825E0F508ED33F509AC0AAD0B80071E
:10588800EC2402FCE43DFDC3E5089CE5099D40606D
:10589800C3EC9EED9F403FECF8EDF9EEFAEFFB12FA
:1058A800172C8B0FEA450F60068E0E8F0F8006753A
:1058B8000E00750F00ECF8EDF9EEFAEFFB12172C5D
:1058C8008A108B11EC9510F8ED9511F9E8250EFC6E
:1058D800E9350FFD801AE0F8E50CC3985012EEF890
:1058E800EFF9ECFAEDFB12172C8B0FEA450F7090CD
:1058F800C3EC950AED950B4009C3E5089CE5099DA5
:1059080050067AFF7BFF8009ECFAEDC313FBEA131C
:10591800FA7F0A0218F9E8240DF8E93401F922F5AA
:1059280082E439F583C3E09AA3E09B22F974C7287F
:10593800F582740339F583E0FEA3E02274F61218A9
:105948002774FC1217B7EAFEEBFF8044EE2463F8D5
:10595800E43FF97A007B00A2AFE433F508C2AF88D0
:10596800828983E0FCA3E0FDEC4D600F125CA87017
:105978000A88828983A3A3E4F0A3F0E508A2E09251
:10598800AF1212DF9006C6E004F09006C7E004F0FC
:10599800EE2463F582E43FF583125CE370AE900673
:1059A800C7E060358E828F83A3A3A3A3E085188206
:1059B800851983F0A3E4F09006C7E0F87402121882
:1059C80003E8F0A3E4F0740212181DAA18AB1979C1
:1059D800011208779006C7E4F0EEFAEFFB120B35D8
:1059E800EEFAEFFB120C6D740402515C74F7121896
:1059F80027EAFEEBFF8E828F83A3A3A3A3E0FA7BA3
:105A08000012084DEEFAEFFB120B4D120C4F025329
:105A180098C082C0837A007899790388828983A3A1
:105A2800A3A3E06011E8246E125A506009125A4D7F
:105A380070047901800C0A12591EEAC3940340DBF2
:105A48007900024965E8246AF582E439F583E022A1
:105A5800C082C083E490037D7808F0A3D8FC90034B
:105A68007D040245D974F712182774FC1217B785FC
:105A780018828519831256C0120B8FE98518828502
:105A88001983F0120B8F7401121803E9F0120B8FAF
:105A98007402121803E9F085188285198312168D8D
:105AA80074041217CD02539874F6121827EAFEEB05
:105AB800FFEC2403F8E43DF988088909EC2407F889
:105AC800E43DF9E8FCE9FD125AFD12172CEE240D0D
:105AD800125AF1125AFD12172C8B09EA4509600671
:105AE800EE240D125B1002515FF582E43FF583E866
:105AF800F0A3E9F0228C828D83125CEF8508828501
:105B08000983E0FAA3E0FB22F582E43FF583E02471
:105B180001F0A3E03400F02274F6121827EAFEEB35
